{
  "contractName": "Voting",
  "abi": [
    {
      "constant": true,
      "inputs": [
        {
          "name": "",
          "type": "address"
        }
      ],
      "name": "machineToBooth",
      "outputs": [
        {
          "name": "",
          "type": "uint256"
        }
      ],
      "payable": false,
      "stateMutability": "view",
      "type": "function"
    },
    {
      "constant": true,
      "inputs": [
        {
          "name": "",
          "type": "uint256"
        }
      ],
      "name": "candidates",
      "outputs": [
        {
          "name": "name",
          "type": "string"
        },
        {
          "name": "aadharId",
          "type": "uint256"
        },
        {
          "name": "voteCount",
          "type": "uint256"
        },
        {
          "name": "constituencyId",
          "type": "uint256"
        },
        {
          "name": "id",
          "type": "uint256"
        },
        {
          "name": "doesExist",
          "type": "bool"
        }
      ],
      "payable": false,
      "stateMutability": "view",
      "type": "function"
    },
    {
      "constant": true,
      "inputs": [
        {
          "name": "",
          "type": "uint256"
        }
      ],
      "name": "constituencyList",
      "outputs": [
        {
          "name": "name",
          "type": "string"
        },
        {
          "name": "id",
          "type": "uint256"
        },
        {
          "name": "boothCount",
          "type": "uint256"
        },
        {
          "name": "doesExist",
          "type": "bool"
        },
        {
          "name": "candidateCount",
          "type": "uint256"
        }
      ],
      "payable": false,
      "stateMutability": "view",
      "type": "function"
    },
    {
      "constant": true,
      "inputs": [
        {
          "name": "",
          "type": "uint256"
        },
        {
          "name": "",
          "type": "uint256"
        }
      ],
      "name": "constituencyToBooth",
      "outputs": [
        {
          "name": "boothAddress",
          "type": "string"
        },
        {
          "name": "id",
          "type": "uint256"
        },
        {
          "name": "constituencyId",
          "type": "uint256"
        },
        {
          "name": "doesExist",
          "type": "bool"
        }
      ],
      "payable": false,
      "stateMutability": "view",
      "type": "function"
    },
    {
      "constant": true,
      "inputs": [],
      "name": "officerCount",
      "outputs": [
        {
          "name": "",
          "type": "uint256"
        }
      ],
      "payable": false,
      "stateMutability": "view",
      "type": "function"
    },
    {
      "constant": true,
      "inputs": [],
      "name": "constituencyCount",
      "outputs": [
        {
          "name": "",
          "type": "uint256"
        }
      ],
      "payable": false,
      "stateMutability": "view",
      "type": "function"
    },
    {
      "constant": true,
      "inputs": [],
      "name": "boothCount",
      "outputs": [
        {
          "name": "",
          "type": "uint256"
        }
      ],
      "payable": false,
      "stateMutability": "view",
      "type": "function"
    },
    {
      "constant": true,
      "inputs": [],
      "name": "votersCount",
      "outputs": [
        {
          "name": "",
          "type": "uint256"
        }
      ],
      "payable": false,
      "stateMutability": "view",
      "type": "function"
    },
    {
      "constant": true,
      "inputs": [
        {
          "name": "",
          "type": "uint256"
        }
      ],
      "name": "pinToConstituency",
      "outputs": [
        {
          "name": "name",
          "type": "string"
        },
        {
          "name": "id",
          "type": "uint256"
        },
        {
          "name": "boothCount",
          "type": "uint256"
        },
        {
          "name": "doesExist",
          "type": "bool"
        },
        {
          "name": "candidateCount",
          "type": "uint256"
        }
      ],
      "payable": false,
      "stateMutability": "view",
      "type": "function"
    },
    {
      "constant": true,
      "inputs": [],
      "name": "candidateCount",
      "outputs": [
        {
          "name": "",
          "type": "uint256"
        }
      ],
      "payable": false,
      "stateMutability": "view",
      "type": "function"
    },
    {
      "constant": true,
      "inputs": [
        {
          "name": "",
          "type": "uint256"
        }
      ],
      "name": "voters",
      "outputs": [
        {
          "components": [
            {
              "name": "name",
              "type": "string"
            },
            {
              "name": "aadharId",
              "type": "uint256"
            }
          ],
          "name": "person",
          "type": "tuple"
        },
        {
          "name": "isVoted",
          "type": "bool"
        },
        {
          "name": "constituencyId",
          "type": "uint256"
        },
        {
          "name": "id",
          "type": "uint256"
        },
        {
          "name": "boothId",
          "type": "uint256"
        },
        {
          "name": "doesExist",
          "type": "bool"
        }
      ],
      "payable": false,
      "stateMutability": "view",
      "type": "function"
    },
    {
      "constant": true,
      "inputs": [
        {
          "name": "",
          "type": "uint256"
        },
        {
          "name": "",
          "type": "uint256"
        }
      ],
      "name": "constituencyToCandidate",
      "outputs": [
        {
          "name": "",
          "type": "uint256"
        }
      ],
      "payable": false,
      "stateMutability": "view",
      "type": "function"
    },
    {
      "constant": true,
      "inputs": [
        {
          "name": "",
          "type": "uint256"
        }
      ],
      "name": "boothList",
      "outputs": [
        {
          "name": "boothAddress",
          "type": "string"
        },
        {
          "name": "id",
          "type": "uint256"
        },
        {
          "name": "constituencyId",
          "type": "uint256"
        },
        {
          "name": "doesExist",
          "type": "bool"
        }
      ],
      "payable": false,
      "stateMutability": "view",
      "type": "function"
    },
    {
      "constant": true,
      "inputs": [],
      "name": "State",
      "outputs": [
        {
          "name": "",
          "type": "uint8"
        }
      ],
      "payable": false,
      "stateMutability": "view",
      "type": "function"
    },
    {
      "constant": true,
      "inputs": [
        {
          "name": "",
          "type": "uint256"
        }
      ],
      "name": "officersList",
      "outputs": [
        {
          "name": "name",
          "type": "string"
        },
        {
          "name": "aadharId",
          "type": "uint256"
        },
        {
          "name": "id",
          "type": "uint256"
        },
        {
          "name": "boothId",
          "type": "uint256"
        },
        {
          "name": "doesExist",
          "type": "bool"
        }
      ],
      "payable": false,
      "stateMutability": "view",
      "type": "function"
    },
    {
      "inputs": [],
      "payable": false,
      "stateMutability": "nonpayable",
      "type": "constructor"
    },
    {
      "anonymous": false,
      "inputs": [
        {
          "indexed": false,
          "name": "sender",
          "type": "address"
        }
      ],
      "name": "voteCast",
      "type": "event"
    },
    {
      "anonymous": false,
      "inputs": [
        {
          "components": [
            {
              "name": "name",
              "type": "string"
            },
            {
              "name": "aadharId",
              "type": "uint256"
            },
            {
              "name": "voteCount",
              "type": "uint256"
            },
            {
              "name": "constituencyId",
              "type": "uint256"
            },
            {
              "name": "id",
              "type": "uint256"
            },
            {
              "name": "doesExist",
              "type": "bool"
            }
          ],
          "indexed": false,
          "name": "result",
          "type": "tuple[]"
        }
      ],
      "name": "Result",
      "type": "event"
    },
    {
      "constant": false,
      "inputs": [
        {
          "name": "stateNo",
          "type": "uint256"
        }
      ],
      "name": "changeState",
      "outputs": [],
      "payable": false,
      "stateMutability": "nonpayable",
      "type": "function"
    },
    {
      "constant": false,
      "inputs": [
        {
          "name": "boothAddress",
          "type": "string"
        },
        {
          "name": "constituencyId",
          "type": "uint256"
        }
      ],
      "name": "addBooth",
      "outputs": [],
      "payable": false,
      "stateMutability": "nonpayable",
      "type": "function"
    },
    {
      "constant": false,
      "inputs": [
        {
          "name": "name",
          "type": "string"
        }
      ],
      "name": "addConstituency",
      "outputs": [],
      "payable": false,
      "stateMutability": "nonpayable",
      "type": "function"
    },
    {
      "constant": false,
      "inputs": [
        {
          "name": "name",
          "type": "string"
        },
        {
          "name": "aadharId",
          "type": "uint256"
        },
        {
          "name": "boothId",
          "type": "uint256"
        }
      ],
      "name": "addOfficer",
      "outputs": [],
      "payable": false,
      "stateMutability": "nonpayable",
      "type": "function"
    },
    {
      "constant": false,
      "inputs": [
        {
          "name": "constituencyName",
          "type": "string"
        },
        {
          "name": "name",
          "type": "string"
        },
        {
          "name": "aadharId",
          "type": "uint256"
        }
      ],
      "name": "addCandidate",
      "outputs": [],
      "payable": false,
      "stateMutability": "nonpayable",
      "type": "function"
    },
    {
      "constant": false,
      "inputs": [
        {
          "name": "constituencyName",
          "type": "string"
        },
        {
          "name": "boothId",
          "type": "uint256"
        },
        {
          "name": "name",
          "type": "string"
        },
        {
          "name": "aadharId",
          "type": "uint256"
        }
      ],
      "name": "addVoter",
      "outputs": [],
      "payable": false,
      "stateMutability": "nonpayable",
      "type": "function"
    },
    {
      "constant": false,
      "inputs": [],
      "name": "StartVoting",
      "outputs": [],
      "payable": false,
      "stateMutability": "nonpayable",
      "type": "function"
    },
    {
      "constant": false,
      "inputs": [
        {
          "name": "candidateId",
          "type": "uint256"
        },
        {
          "name": "aadharId",
          "type": "uint256"
        }
      ],
      "name": "vote",
      "outputs": [
        {
          "name": "",
          "type": "uint256"
        }
      ],
      "payable": false,
      "stateMutability": "nonpayable",
      "type": "function"
    },
    {
      "constant": true,
      "inputs": [
        {
          "name": "boothId",
          "type": "uint256"
        },
        {
          "name": "aadharId",
          "type": "uint256"
        }
      ],
      "name": "verifyToVote",
      "outputs": [
        {
          "name": "",
          "type": "uint256"
        }
      ],
      "payable": false,
      "stateMutability": "view",
      "type": "function"
    },
    {
      "constant": true,
      "inputs": [
        {
          "name": "aadharId",
          "type": "uint256"
        }
      ],
      "name": "verifyOfficer",
      "outputs": [
        {
          "name": "",
          "type": "uint256"
        }
      ],
      "payable": false,
      "stateMutability": "view",
      "type": "function"
    },
    {
      "constant": false,
      "inputs": [],
      "name": "finishVoting",
      "outputs": [],
      "payable": false,
      "stateMutability": "nonpayable",
      "type": "function"
    },
    {
      "constant": false,
      "inputs": [],
      "name": "finishElectionCheck",
      "outputs": [],
      "payable": false,
      "stateMutability": "nonpayable",
      "type": "function"
    }
  ],
  "bytecode": "0x60806040523480156200001157600080fd5b50620000616040805190810160405280600881526020017f47757761686174690000000000000000000000000000000000000000000000008152506200069f640100000000026401000000009004565b620000b06040805190810160405280600881526020017f5368656f67616e6a0000000000000000000000000000000000000000000000008152506200069f640100000000026401000000009004565b620001016040805190810160405280600781526020017f47532d526f6164000000000000000000000000000000000000000000000000008152506001620007cc640100000000026401000000009004565b620001526040805190810160405280600c81526020017f50616c74616e2042617a617200000000000000000000000000000000000000008152506001620007cc640100000000026401000000009004565b620001a36040805190810160405280600c81526020017f4e616761722050616c696b6100000000000000000000000000000000000000008152506002620007cc640100000000026401000000009004565b620001fa6040805190810160405280600d81526020017f4b617274696b6579204b616e740000000000000000000000000000000000000081525064aa8965f4e360016200095b640100000000026401000000009004565b620002516040805190810160405280600d81526020017f4173686973682052616e6a616e000000000000000000000000000000000000008152506486133fe40060026200095b640100000000026401000000009004565b620002a86040805190810160405280600f81526020017f4d6974616e736875204d697474616c00000000000000000000000000000000008152506444487f575360036200095b640100000000026401000000009004565b6000600a60006101000a81548160ff02191690836002811115620002c857fe5b0217905550600360006001815260200190815260200160002060086000620497c98152602001908152602001600020600082018160000190805460018160011615610100020316600290046200032092919062000a12565b5060018201548160010155600282015481600201556003820160009054906101000a900460ff168160030160006101000a81548160ff021916908315150217905550600482015481600401559050506003600060018152602001908152602001600020600860006206f855815260200190815260200160002060008201816000019080546001816001161561010002031660029004620003c292919062000a12565b5060018201548160010155600282015481600201556003820160009054906101000a900460ff168160030160006101000a81548160ff02191690831515021790555060048201548160040155905050600360006001815260200190815260200160002060086000620c9e7c8152602001908152602001600020600082018160000190805460018160011615610100020316600290046200046492919062000a12565b5060018201548160010155600282015481600201556003820160009054906101000a900460ff168160030160006101000a81548160ff021916908315150217905550600482015481600401559050506003600060018152602001908152602001600020600860006204af538152602001908152602001600020600082018160000190805460018160011615610100020316600290046200050692919062000a12565b5060018201548160010155600282015481600201556003820160009054906101000a900460ff168160030160006101000a81548160ff0219169083151502179055506004820154816004015590505060036000600181526020019081526020016000206008600062020409815260200190815260200160002060008201816000019080546001816001161561010002031660029004620005a892919062000a12565b5060018201548160010155600282015481600201556003820160009054906101000a900460ff168160030160006101000a81548160ff0219169083151502179055506004820154816004015590505060036000600181526020019081526020016000206008600062044d958152602001908152602001600020600082018160000190805460018160011615610100020316600290046200064a92919062000a12565b5060018201548160010155600282015481600201556003820160009054906101000a900460ff168160030160006101000a81548160ff0219169083151502179055506004820154816004015590505062000b4f565b600e6000815480929190600101919050555060a060405190810160405280828152602001600e54815260200160008152602001600115158152602001600081525060036000600e54815260200190815260200160002060008201518160000190805190602001906200071392919062000aa0565b50602082015181600101556040820151816002015560608201518160030160006101000a81548160ff02191690831515021790555060808201518160040155905050600e546005826040518082805190602001908083835b6020831015156200079257805182526020820191506020810190506020830392506200076b565b6001836020036101000a03801982511681845116808217855250505050505090500191505090815260200160405180910390208190555050565b600b60008154809291906001019190505550608060405190810160405280838152602001600b5481526020018281526020016001151581525060046000600b54815260200190815260200160002060008201518160000190805190602001906200083892919062000aa0565b50602082015181600101556040820151816002015560608201518160030160006101000a81548160ff02191690831515021790555090505060036000828152602001908152602001600020600201600081548092919060010191905055506007600082815260200190815260200160002060046000600b54815260200190815260200160002090806001815401808255809150509060018203906000526020600020906004020160009091929091909150600082018160000190805460018160011615610100020316600290046200091292919062000a12565b5060018201548160010155600282015481600201556003820160009054906101000a900460ff168160030160006101000a81548160ff0219169083151502179055505050505050565b600f6000815480929190600101919050555060a060405190810160405280848152602001838152602001600f54815260200182815260200160011515815250600160008481526020019081526020016000206000820151816000019080519060200190620009cb92919062000aa0565b5060208201518160010155604082015181600201556060820151816003015560808201518160040160006101000a81548160ff021916908315150217905550905050505050565b828054600181600116156101000203166002900490600052602060002090601f016020900481019282601f1062000a4d578054855562000a8d565b8280016001018555821562000a8d57600052602060002091601f016020900482015b8281111562000a8c57825482559160010191906001019062000a6f565b5b50905062000a9c919062000b27565b5090565b828054600181600116156101000203166002900490600052602060002090601f016020900481019282601f1062000ae357805160ff191683800117855562000b14565b8280016001018555821562000b14579182015b8281111562000b1357825182559160200191906001019062000af6565b5b50905062000b23919062000b27565b5090565b62000b4c91905b8082111562000b4857600081600090555060010162000b2e565b5090565b90565b6125368062000b5f6000396000f3fe60806040526004361061015f576000357c0100000000000000000000000000000000000000000000000000000000900463ffffffff16806305a395a514610164578063150407151461018d5780633477ee2e146101ca5780633ca09fdf1461020c5780633fac3553146102355780634284eb57146102765780635499e14a146102b357806361c0ca4b146102f35780636c33f1a81461031e5780637a99c0a614610349578063921326091461036057806394909c551461038957806398c07938146103b45780639e420f05146103df578063a9a981a314610420578063b00741cb1461044b578063b384abef14610474578063da58c7d9146104b1578063e1e9c3f6146104f3578063e3223cc814610530578063e8fee21014610559578063e938080d14610596578063f0bb6393146105bf578063f1b6dccd146105ff578063f90943031461062a578063f9277f4f14610641578063fc07e29714610658575b600080fd5b34801561017057600080fd5b5061018b60048036036101869190810190611d56565b610699565b005b34801561019957600080fd5b506101b460048036036101af9190810190611d2d565b6107c2565b6040516101c191906123b0565b60405180910390f35b3480156101d657600080fd5b506101f160048036036101ec9190810190611f64565b6107da565b60405161020396959493929190612260565b60405180910390f35b34801561021857600080fd5b50610233600480360361022e9190810190611d97565b6108bb565b005b34801561024157600080fd5b5061025c60048036036102579190810190611f64565b610b15565b60405161026d9594939291906121ac565b60405180910390f35b34801561028257600080fd5b5061029d60048036036102989190810190611f8d565b610bf0565b6040516102aa91906123b0565b60405180910390f35b3480156102bf57600080fd5b506102da60048036036102d59190810190611f8d565b610c97565b6040516102ea9493929190612160565b60405180910390f35b3480156102ff57600080fd5b50610308610d88565b60405161031591906123b0565b60405180910390f35b34801561032a57600080fd5b50610333610d8e565b60405161034091906123b0565b60405180910390f35b34801561035557600080fd5b5061035e610d94565b005b34801561036c57600080fd5b5061038760048036036103829190810190611e16565b610e24565b005b34801561039557600080fd5b5061039e610faf565b6040516103ab91906123b0565b60405180910390f35b3480156103c057600080fd5b506103c9610fb5565b6040516103d691906123b0565b60405180910390f35b3480156103eb57600080fd5b5061040660048036036104019190810190611f64565b610fbb565b6040516104179594939291906121ac565b60405180910390f35b34801561042c57600080fd5b50610435611096565b60405161044291906123b0565b60405180910390f35b34801561045757600080fd5b50610472600480360361046d9190810190611f64565b61109c565b005b34801561048057600080fd5b5061049b60048036036104969190810190611f8d565b611129565b6040516104a891906123b0565b60405180910390f35b3480156104bd57600080fd5b506104d860048036036104d39190810190611f64565b6112c7565b6040516104ea96959493929190612348565b60405180910390f35b3480156104ff57600080fd5b5061051a60048036036105159190810190611f64565b6113d3565b60405161052791906123b0565b60405180910390f35b34801561053c57600080fd5b5061055760048036036105529190810190611e6a565b61144a565b005b34801561056557600080fd5b50610580600480360361057b9190810190611f8d565b61176b565b60405161058d91906123b0565b60405180910390f35b3480156105a257600080fd5b506105bd60048036036105b89190810190611efd565b61179b565b005b3480156105cb57600080fd5b506105e660048036036105e19190810190611f64565b611850565b6040516105f69493929190612160565b60405180910390f35b34801561060b57600080fd5b50610614611925565b6040516106219190612145565b60405180910390f35b34801561063657600080fd5b5061063f611938565b005b34801561064d57600080fd5b506106566119c8565b005b34801561066457600080fd5b5061067f600480360361067a9190810190611f64565b611a33565b604051610690959493929190612206565b60405180910390f35b600e6000815480929190600101919050555060a060405190810160405280828152602001600e54815260200160008152602001600115158152602001600081525060036000600e548152602001908152602001600020600082015181600001908051906020019061070b929190611b0e565b50602082015181600101556040820151816002015560608201518160030160006101000a81548160ff02191690831515021790555060808201518160040155905050600e546005826040518082805190602001908083835b6020831015156107885780518252602082019150602081019050602083039250610763565b6001836020036101000a03801982511681845116808217855250505050505090500191505090815260200160405180910390208190555050565b60066020528060005260406000206000915090505481565b6000602052806000526040600020600091509050806000018054600181600116156101000203166002900480601f0160208091040260200160405190810160405280929190818152602001828054600181600116156101000203166002900480156108865780601f1061085b57610100808354040283529160200191610886565b820191906000526020600020905b81548152906001019060200180831161086957829003601f168201915b5050505050908060010154908060020154908060030154908060040154908060050160009054906101000a900460ff16905086565b600060028111156108c857fe5b600a60009054906101000a900460ff1660028111156108e357fe5b141515610925576040517f08c379a000000000000000000000000000000000000000000000000000000000815260040161091c90612328565b60405180910390fd5b60006005846040518082805190602001908083835b60208310151561095f578051825260208201915060208101905060208303925061093a565b6001836020036101000a03801982511681845116808217855250505050505090500191505090815260200160405180910390205490506000811180156109a75750600e548111155b15156109e8576040517f08c379a00000000000000000000000000000000000000000000000000000000081526004016109df906122c8565b60405180910390fd5b600d6000815480929190600101919050555060c06040519081016040528084815260200183815260200160008152602001828152602001600d54815260200160011515815250600080600d5481526020019081526020016000206000820151816000019080519060200190610a5e929190611b0e565b506020820151816001015560408201518160020155606082015181600301556080820151816004015560a08201518160050160006101000a81548160ff02191690831515021790555090505060096000828152602001908152602001600020600d549080600181540180825580915050906001820390600052602060002001600090919290919091505550600360008281526020019081526020016000206004016000815480929190600101919050555050505050565b6003602052806000526040600020600091509050806000018054600181600116156101000203166002900480601f016020809104026020016040519081016040528092919081815260200182805460018160011615610100020316600290048015610bc15780601f10610b9657610100808354040283529160200191610bc1565b820191906000526020600020905b815481529060010190602001808311610ba457829003601f168201915b5050505050908060010154908060020154908060030160009054906101000a900460ff16908060040154905085565b600060016002811115610bff57fe5b600a60009054906101000a900460ff166002811115610c1a57fe5b141515610c2a5760019050610c91565b600115156002600084815260200190815260200160002060060160009054906101000a900460ff161515141515610c645760049050610c91565b826002600084815260200190815260200160002060050154141515610c8c5760059050610c91565b600090505b92915050565b600760205281600052604060002081815481101515610cb257fe5b906000526020600020906004020160009150915050806000018054600181600116156101000203166002900480601f016020809104026020016040519081016040528092919081815260200182805460018160011615610100020316600290048015610d5f5780601f10610d3457610100808354040283529160200191610d5f565b820191906000526020600020905b815481529060010190602001808311610d4257829003601f168201915b5050505050908060010154908060020154908060030160009054906101000a900460ff16905084565b600f5481565b600e5481565b60006002811115610da157fe5b600a60009054906101000a900460ff166002811115610dbc57fe5b141515610dfe576040517f08c379a0000000000000000000000000000000000000000000000000000000008152600401610df590612328565b60405180910390fd5b6001600a60006101000a81548160ff02191690836002811115610e1d57fe5b0217905550565b600b60008154809291906001019190505550608060405190810160405280838152602001600b5481526020018281526020016001151581525060046000600b5481526020019081526020016000206000820151816000019080519060200190610e8e929190611b0e565b50602082015181600101556040820151816002015560608201518160030160006101000a81548160ff02191690831515021790555090505060036000828152602001908152602001600020600201600081548092919060010191905055506007600082815260200190815260200160002060046000600b5481526020019081526020016000209080600181540180825580915050906001820390600052602060002090600402016000909192909190915060008201816000019080546001816001161561010002031660029004610f66929190611b8e565b5060018201548160010155600282015481600201556003820160009054906101000a900460ff168160030160006101000a81548160ff0219169083151502179055505050505050565b600b5481565b600c5481565b6008602052806000526040600020600091509050806000018054600181600116156101000203166002900480601f0160208091040260200160405190810160405280929190818152602001828054600181600116156101000203166002900480156110675780601f1061103c57610100808354040283529160200191611067565b820191906000526020600020905b81548152906001019060200180831161104a57829003601f168201915b5050505050908060010154908060020154908060030160009054906101000a900460ff16908060040154905085565b600d5481565b60018114156110ce576000600a60006101000a81548160ff021916908360028111156110c457fe5b0217905550611126565b6002811415611100576001600a60006101000a81548160ff021916908360028111156110f657fe5b0217905550611125565b6002600a60006101000a81548160ff0219169083600281111561111f57fe5b02179055505b5b50565b60006001600281111561113857fe5b600a60009054906101000a900460ff16600281111561115357fe5b14151561116357600190506112c1565b6000600660003373ffffffffffffffffffffffffffffffffffffffff1673ffffffffffffffffffffffffffffffffffffffff168152602001908152602001600020541180156111f35750600b54600660003373ffffffffffffffffffffffffffffffffffffffff1673ffffffffffffffffffffffffffffffffffffffff1681526020019081526020016000205411155b151561120257600290506112c1565b6002600083815260200190815260200160002060060160009054906101000a900460ff16151561123557600390506112c1565b6002600083815260200190815260200160002060020160009054906101000a900460ff16151561126857600490506112c1565b6000808481526020019081526020016000206002016000815480929190600101919050555060016002600084815260200190815260200160002060020160006101000a81548160ff021916908315150217905550600090505b92915050565b600260205280600052604060002060009150905080600001604080519081016040529081600082018054600181600116156101000203166002900480601f0160208091040260200160405190810160405280929190818152602001828054600181600116156101000203166002900480156113835780601f1061135857610100808354040283529160200191611383565b820191906000526020600020905b81548152906001019060200180831161136657829003601f168201915b50505050508152602001600182015481525050908060020160009054906101000a900460ff16908060030154908060040154908060050154908060060160009054906101000a900460ff16905086565b6000600160028111156113e257fe5b600a60009054906101000a900460ff1660028111156113fd57fe5b14151561140d5760019050611445565b6001600083815260200190815260200160002060040160009054906101000a900460ff1615156114405760029050611445565b600090505b919050565b60006005856040518082805190602001908083835b602083101515611484578051825260208201915060208101905060208303925061145f565b6001836020036101000a0380198251168184511680821785525050505050509050019150509081526020016040518091039020549050600060028111156114c757fe5b600a60009054906101000a900460ff1660028111156114e257fe5b141515611524576040517f08c379a000000000000000000000000000000000000000000000000000000000815260040161151b90612328565b60405180910390fd5b6000811180156115365750600e548111155b1515611577576040517f08c379a000000000000000000000000000000000000000000000000000000000815260040161156e906122c8565b60405180910390fd5b60008411801561159d575060036000828152602001908152602001600020600201548411155b15156115de576040517f08c379a00000000000000000000000000000000000000000000000000000000081526004016115d5906122e8565b60405180910390fd5b600015156002600084815260200190815260200160002060060160009054906101000a900460ff16151514151561164a576040517f08c379a000000000000000000000000000000000000000000000000000000000815260040161164190612308565b60405180910390fd5b611652611c15565b6040805190810160405280858152602001848152509050600c60008154809291906001019190505550611683611c2f565b60c060405190810160405280838152602001600015158152602001848152602001600c548152602001878152602001600115158152509050806002600086815260200190815260200160002060008201518160000160008201518160000190805190602001906116f4929190611b0e565b5060208201518160010155505060208201518160020160006101000a81548160ff02191690831515021790555060408201518160030155606082015181600401556080820151816005015560a08201518160060160006101000a81548160ff02191690831515021790555090505050505050505050565b60096020528160005260406000208181548110151561178657fe5b90600052602060002001600091509150505481565b600f6000815480929190600101919050555060a060405190810160405280848152602001838152602001600f54815260200182815260200160011515815250600160008481526020019081526020016000206000820151816000019080519060200190611809929190611b0e565b5060208201518160010155604082015181600201556060820151816003015560808201518160040160006101000a81548160ff021916908315150217905550905050505050565b6004602052806000526040600020600091509050806000018054600181600116156101000203166002900480601f0160208091040260200160405190810160405280929190818152602001828054600181600116156101000203166002900480156118fc5780601f106118d1576101008083540402835291602001916118fc565b820191906000526020600020905b8154815290600101906020018083116118df57829003601f168201915b5050505050908060010154908060020154908060030160009054906101000a900460ff16905084565b600a60009054906101000a900460ff1681565b6001600281111561194557fe5b600a60009054906101000a900460ff16600281111561196057fe5b1415156119a2576040517f08c379a000000000000000000000000000000000000000000000000000000000815260040161199990612328565b60405180910390fd5b6002600a60006101000a81548160ff021916908360028111156119c157fe5b0217905550565b6002808111156119d457fe5b600a60009054906101000a900460ff1660028111156119ef57fe5b141515611a31576040517f08c379a0000000000000000000000000000000000000000000000000000000008152600401611a2890612328565b60405180910390fd5b565b6001602052806000526040600020600091509050806000018054600181600116156101000203166002900480601f016020809104026020016040519081016040528092919081815260200182805460018160011615610100020316600290048015611adf5780601f10611ab457610100808354040283529160200191611adf565b820191906000526020600020905b815481529060010190602001808311611ac257829003601f168201915b5050505050908060010154908060020154908060030154908060040160009054906101000a900460ff16905085565b828054600181600116156101000203166002900490600052602060002090601f016020900481019282601f10611b4f57805160ff1916838001178555611b7d565b82800160010185558215611b7d579182015b82811115611b7c578251825591602001919060010190611b61565b5b509050611b8a9190611c70565b5090565b828054600181600116156101000203166002900490600052602060002090601f016020900481019282601f10611bc75780548555611c04565b82800160010185558215611c0457600052602060002091601f016020900482015b82811115611c03578254825591600101919060010190611be8565b5b509050611c119190611c70565b5090565b604080519081016040528060608152602001600081525090565b60e060405190810160405280611c43611c95565b81526020016000151581526020016000815260200160008152602001600081526020016000151581525090565b611c9291905b80821115611c8e576000816000905550600101611c76565b5090565b90565b604080519081016040528060608152602001600081525090565b6000611cbb823561247b565b905092915050565b600082601f8301121515611cd657600080fd5b8135611ce9611ce4826123f8565b6123cb565b91508082526020830160208301858383011115611d0557600080fd5b611d108382846124a9565b50505092915050565b6000611d25823561248d565b905092915050565b600060208284031215611d3f57600080fd5b6000611d4d84828501611caf565b91505092915050565b600060208284031215611d6857600080fd5b600082013567ffffffffffffffff811115611d8257600080fd5b611d8e84828501611cc3565b91505092915050565b600080600060608486031215611dac57600080fd5b600084013567ffffffffffffffff811115611dc657600080fd5b611dd286828701611cc3565b935050602084013567ffffffffffffffff811115611def57600080fd5b611dfb86828701611cc3565b9250506040611e0c86828701611d19565b9150509250925092565b60008060408385031215611e2957600080fd5b600083013567ffffffffffffffff811115611e4357600080fd5b611e4f85828601611cc3565b9250506020611e6085828601611d19565b9150509250929050565b60008060008060808587031215611e8057600080fd5b600085013567ffffffffffffffff811115611e9a57600080fd5b611ea687828801611cc3565b9450506020611eb787828801611d19565b935050604085013567ffffffffffffffff811115611ed457600080fd5b611ee087828801611cc3565b9250506060611ef187828801611d19565b91505092959194509250565b600080600060608486031215611f1257600080fd5b600084013567ffffffffffffffff811115611f2c57600080fd5b611f3886828701611cc3565b9350506020611f4986828701611d19565b9250506040611f5a86828701611d19565b9150509250925092565b600060208284031215611f7657600080fd5b6000611f8484828501611d19565b91505092915050565b60008060408385031215611fa057600080fd5b6000611fae85828601611d19565b9250506020611fbf85828601611d19565b9150509250929050565b611fd28161242f565b82525050565b611fe181612497565b82525050565b6000611ff282612424565b8084526120068160208601602086016124b8565b61200f816124eb565b602085010191505092915050565b6000601482527f496e76616c696420436f6e7374697475656e63790000000000000000000000006020830152604082019050919050565b6000600d82527f496e76616c696420426f6f7468000000000000000000000000000000000000006020830152604082019050919050565b6000601f82527f596f75206861766520616c7265616479206265656e20726567697374657264006020830152604082019050919050565b6000600d82527f496e76616c6964205374617465000000000000000000000000000000000000006020830152604082019050919050565b600060408301600083015184820360008601526121168282611fe7565b915050602083015161212b6020860182612136565b508091505092915050565b61213f81612471565b82525050565b600060208201905061215a6000830184611fd8565b92915050565b6000608082019050818103600083015261217a8187611fe7565b90506121896020830186612136565b6121966040830185612136565b6121a36060830184611fc9565b95945050505050565b600060a08201905081810360008301526121c68188611fe7565b90506121d56020830187612136565b6121e26040830186612136565b6121ef6060830185611fc9565b6121fc6080830184612136565b9695505050505050565b600060a08201905081810360008301526122208188611fe7565b905061222f6020830187612136565b61223c6040830186612136565b6122496060830185612136565b6122566080830184611fc9565b9695505050505050565b600060c082019050818103600083015261227a8189611fe7565b90506122896020830188612136565b6122966040830187612136565b6122a36060830186612136565b6122b06080830185612136565b6122bd60a0830184611fc9565b979650505050505050565b600060208201905081810360008301526122e18161201d565b9050919050565b6000602082019050818103600083015261230181612054565b9050919050565b600060208201905081810360008301526123218161208b565b9050919050565b60006020820190508181036000830152612341816120c2565b9050919050565b600060c082019050818103600083015261236281896120f9565b90506123716020830188611fc9565b61237e6040830187612136565b61238b6060830186612136565b6123986080830185612136565b6123a560a0830184611fc9565b979650505050505050565b60006020820190506123c56000830184612136565b92915050565b6000604051905081810181811067ffffffffffffffff821117156123ee57600080fd5b8060405250919050565b600067ffffffffffffffff82111561240f57600080fd5b601f19601f8301169050602081019050919050565b600081519050919050565b60008115159050919050565b600060038210151561244957fe5b819050919050565b600073ffffffffffffffffffffffffffffffffffffffff82169050919050565b6000819050919050565b600061248682612451565b9050919050565b6000819050919050565b60006124a28261243b565b9050919050565b82818337600083830152505050565b60005b838110156124d65780820151818401526020810190506124bb565b838111156124e5576000848401525b50505050565b6000601f19601f830116905091905056fea265627a7a72305820576b78c8f388f55920c1758e753aca85fe45b32a211c2e15a667df4a0c7b3f116c6578706572696d656e74616cf50037",
  "source": "pragma solidity ^0.5.0;\r\npragma experimental ABIEncoderV2;\r\n\r\ncontract Voting{\r\n    // Candidate\r\n    struct Person{\r\n        string name;\r\n        uint aadharId;\r\n    }\r\n\r\n    struct Candidate{\r\n        string name;\r\n        uint aadharId;\r\n        uint voteCount;\r\n        uint constituencyId;\r\n        uint id;\r\n        bool doesExist;\r\n    }\r\n\r\n    struct Voter{\r\n        Person person;\r\n        bool isVoted;\r\n        uint constituencyId;\r\n        uint id;\r\n        uint boothId;\r\n        bool doesExist;\r\n    }\r\n\r\n    //Booth\r\n    struct Booth{\r\n        string boothAddress;\r\n        uint id;\r\n        uint constituencyId;\r\n        bool doesExist;\r\n    }\r\n\r\n    // Constituency\r\n    struct Constituency{\r\n        string name;\r\n        uint id;\r\n        uint boothCount;\r\n        bool doesExist;\r\n        uint candidateCount;\r\n    }\r\n\r\n    struct Officer{\r\n        string name;\r\n        uint aadharId;\r\n        uint id;\r\n        uint boothId;\r\n        bool doesExist;\r\n    }\r\n\r\n\r\n    mapping(uint => Candidate) public candidates;\r\n    mapping(uint => Officer) public officersList; // aadhar\r\n    mapping(uint => Voter)  public voters; //aadhar\r\n    mapping(uint => Constituency) public constituencyList;\r\n    mapping(uint => Booth) public boothList;\r\n    mapping(string => uint)  constituencyNameToId;\r\n    mapping(address => uint) public machineToBooth;\r\n    mapping(uint => Booth[]) public constituencyToBooth;\r\n    mapping(uint => Constituency) public pinToConstituency;\r\n    mapping (uint => uint[]) public constituencyToCandidate;\r\n    enum StateType { PreVoting, Voting, Result}\r\n\r\n    //List of properties\r\n    StateType public  State;\r\n    uint public boothCount;\r\n    uint public votersCount;\r\n    uint public candidateCount;\r\n    uint public constituencyCount;\r\n    uint public officerCount;\r\n\r\n    event voteCast(address sender);\r\n\r\n    constructor() public\r\n    {\r\n        addConstituency(\"Guwahati\");\r\n        addConstituency(\"Sheoganj\");\r\n        addBooth(\"GS-Road\",1);\r\n        addBooth(\"Paltan Bazar\",1);\r\n        addBooth(\"Nagar Palika\",2);\r\n        addOfficer(\"Kartikey Kant\",732449600739,1);\r\n        addOfficer(\"Ashish Ranjan\", 575848571904, 2);\r\n        addOfficer(\"Mitanshu Mittal\", 293274081107, 3);\r\n        State = StateType.PreVoting;\r\n        pinToConstituency[301001] = constituencyList[1];\r\n        pinToConstituency[456789] = constituencyList[1];\r\n        pinToConstituency[827004] = constituencyList[1];\r\n        pinToConstituency[307027] = constituencyList[1];\r\n        pinToConstituency[132105] = constituencyList[1];\r\n        pinToConstituency[282005] = constituencyList[1];\r\n    }\r\n    function changeState(uint stateNo) public {\r\n        if(stateNo==1){\r\n            State = StateType.PreVoting;\r\n        }else if(stateNo == 2){\r\n            State = StateType.Voting;\r\n        }else{\r\n            State = StateType.Result;\r\n        }\r\n    }\r\n\r\n    function addBooth(string memory boothAddress,uint constituencyId)public {\r\n        boothCount++;\r\n        boothList[boothCount] = Booth(boothAddress,boothCount,constituencyId,true);\r\n        constituencyList[constituencyId].boothCount++;\r\n        constituencyToBooth[constituencyId].push(boothList[boothCount]);\r\n    }\r\n\r\n    function addConstituency(string memory name) public {\r\n        constituencyCount++;\r\n        constituencyList[constituencyCount] = Constituency(name,constituencyCount,0,true,0);\r\n        constituencyNameToId[name] = constituencyCount;\r\n    //    for(uint i = 0;i < boothId.length;++i){\r\n    //        constituencyToBooth[constituencyCount].push(boothId[i]);\r\n    //    }\r\n    }\r\n\r\n    function addOfficer(string memory name,uint aadharId,uint boothId) public{\r\n        officerCount++;\r\n        officersList[aadharId] = Officer(name,aadharId,officerCount,boothId,true);\r\n    }\r\n\r\n    function addCandidate(string memory constituencyName,string memory name,uint aadharId) public {\r\n        require(State==StateType.PreVoting,\"Invalid State\");\r\n        // emit voteCast(msg.sender);\r\n        // verify candidate\r\n        uint constituencyId = constituencyNameToId[constituencyName];\r\n        require(constituencyId > 0 && constituencyId <= constituencyCount,\"Invalid Constituency\");\r\n        // check aadhar.\r\n        // Person memory person = Person(name,aadharId);\r\n        candidateCount++;\r\n        candidates[candidateCount] = Candidate(name,aadharId,0,constituencyId,candidateCount,true);\r\n        constituencyToCandidate[constituencyId].push(candidateCount);\r\n        constituencyList[constituencyId].candidateCount++;\r\n    }\r\n\r\n    // // update candidate\r\n    // function updateCandidate(uint id) public {\r\n\r\n    // }\r\n\r\n    function addVoter(string memory constituencyName,uint boothId,string memory name,uint aadharId) public {\r\n        uint constituencyId = constituencyNameToId[constituencyName];\r\n        require(State==StateType.PreVoting,\"Invalid State\");\r\n        require(constituencyId > 0 && constituencyId <= constituencyCount,\"Invalid Constituency\");\r\n        require(boothId > 0 && boothId <= constituencyList[constituencyId].boothCount, \"Invalid Booth\");\r\n        require(voters[aadharId].doesExist == false,\"You have already been registerd\");\r\n        // verify aadhar.\r\n        // verify voter age checking\r\n        Person memory person = Person(name,aadharId);\r\n        votersCount++;\r\n        //error in below line,, what is id in voter\r\n        Voter memory voter = Voter(person,false,constituencyId,votersCount,boothId,true);\r\n        //changed aadharid from voter.id,,coz of problem while verfying user\r\n        voters[aadharId] = voter;\r\n    }\r\n    // Fuction to get voter details.\r\n\r\n    // register msg.sender\r\n    function StartVoting() public{\r\n        require(State==StateType.PreVoting,\"Invalid State\");\r\n        State = StateType.Voting;\r\n    }\r\n\r\n    function vote(uint candidateId,uint aadharId) public returns (uint) {\r\n        if(!(State==StateType.Voting))\r\n            return 1;\r\n        if(!(machineToBooth[msg.sender] > 0 && machineToBooth[msg.sender] <= boothCount))\r\n            return 2;\r\n        if(!(voters[aadharId].doesExist))\r\n            return 3;\r\n        if(!(voters[aadharId].isVoted))\r\n            return 4;\r\n        candidates[candidateId].voteCount++;\r\n        voters[aadharId].isVoted = true;\r\n        return 0;\r\n    }\r\n\r\n    function verifyToVote(uint boothId, uint aadharId) public view returns (uint)  {\r\n        if(!(State==StateType.Voting))\r\n            return 1;\r\n        if(!(voters[aadharId].doesExist == true))\r\n            return 4;\r\n        if(!(voters[aadharId].boothId == boothId))\r\n            return 5;\r\n        return 0;\r\n    }\r\n\r\n    function verifyOfficer(uint aadharId) public view returns (uint){\r\n        if(!(State==StateType.Voting))\r\n            return 1;\r\n        if(!(officersList[aadharId].doesExist))\r\n            return 2;\r\n        return 0;\r\n    }\r\n\r\n    function finishVoting() public{\r\n        require(State==StateType.Voting,\"Invalid State\");\r\n        State = StateType.Result;\r\n    }\r\n\r\n\r\n\r\n        // mapping (uint => Candidate[]) result;\r\n        // Candidate[] result;\r\n\r\n    event Result(\r\n        Candidate[] result\r\n    );\r\n\r\n    function finishElectionCheck() public {\r\n        require(State == StateType.Result,\"Invalid State\");\r\n    }\r\n}\r\n\r\n\r\n\r\n// contract Election {\r\n//     // Model a Candidate\r\n//     struct Candidate {\r\n//         uint id;\r\n//         string name;\r\n//         uint voteCount;\r\n//     }\r\n\r\n//     // Store accounts that have voted\r\n//     mapping(address => bool) public voters;\r\n//     // Store Candidates\r\n//     // Fetch Candidate\r\n//     mapping(uint => Candidate) public candidates;\r\n//     // Store Candidates Count\r\n//     uint public candidatesCount;\r\n\r\n//     // voted event\r\n//     event votedEvent (\r\n//         uint indexed _candidateId\r\n//     );\r\n\r\n//     constructor() public {\r\n//         addCandidate(\"Candidate 1\");\r\n//         addCandidate(\"Candidate 2\");\r\n//     }\r\n\r\n//     function addCandidate (string memory _name) private {\r\n//         candidatesCount ++;\r\n//         candidates[candidatesCount] = Candidate(candidatesCount, _name, 0);\r\n//     }\r\n\r\n//     function vote (uint _candidateId) public {\r\n//         // require that they haven't voted before\r\n//         require(!voters[msg.sender],\"You have already voted!\");\r\n\r\n//         // require a valid candidate\r\n//         require(_candidateId > 0 && _candidateId <= candidatesCount,\"Candidate is not valid!\");\r\n\r\n//         // record that voter has voted\r\n//         voters[msg.sender] = true;\r\n\r\n//         // update candidate vote Count\r\n//         candidates[_candidateId].voteCount ++;\r\n\r\n//         // trigger voted event\r\n//         emit votedEvent(_candidateId);\r\n//     }\r\n// }\r\n\r\n\r\n// contract Voting {\r\n//     // an event that is called whenever a Candidate is added so the frontend could\r\n//     // appropriately display the candidate with the right element id (it is used\r\n//     // to vote for the candidate, since it is one of arguments for the function \"vote\")\r\n//     event AddedCandidate(uint candidateID);\r\n\r\n//     // describes a Voter, which has an id and the ID of the candidate they voted for\r\n//     address owner;\r\n//     function Voting()public {\r\n//         owner=msg.sender;\r\n//     }\r\n//     modifier onlyOwner {\r\n//         require(msg.sender == owner);\r\n//         _;\r\n//     }\r\n//     struct Voter {\r\n//         bytes32 uid; // bytes32 type are basically strings\r\n//         uint candidateIDVote;\r\n//     }\r\n//     // describes a Candidate\r\n//     struct Candidate {\r\n//         bytes32 name;\r\n//         bytes32 party;\r\n//         // \"bool doesExist\" is to check if this Struct exists\r\n//         // This is so we can keep track of the candidates\r\n//         bool doesExist;\r\n//     }\r\n\r\n//     // These state variables are used keep track of the number of Candidates/Voters\r\n//     // and used to as a way to index them    \r\n//     uint numCandidates; // declares a state variable - number Of Candidates\r\n//     uint numVoters;\r\n\r\n\r\n//     // Think of these as a hash table, with the key as a uint and value of\r\n//     // the struct Candidate/Voter. These mappings will be used in the majority\r\n//     // of our transactions/calls\r\n//     // These mappings will hold all the candidates and Voters respectively\r\n//     mapping (uint => Candidate) candidates;\r\n//     mapping (uint => Voter) voters;\r\n\r\n//     /* * * * * * * * * * * * * * * * * * * * * * * * * * * * * * * *\r\n//      *  These functions perform transactions, editing the mappings *\r\n//      * * * * * * * * * * * * * * * * * * * * * * * * * * * * * * * */\r\n\r\n//     function addCandidate(bytes32 name, bytes32 party) onlyOwner public {\r\n//         // candidateID is the return variable\r\n//         uint candidateID = numCandidates++;\r\n//         // Create new Candidate Struct with name and saves it to storage.\r\n//         candidates[candidateID] = Candidate(name,party,true);\r\n//         AddedCandidate(candidateID);\r\n//     }\r\n\r\n//     function vote(bytes32 uid, uint candidateID) public {\r\n//         // checks if the struct exists for that candidate\r\n//         if (candidates[candidateID].doesExist == true) {\r\n//             uint voterID = numVoters++; //voterID is the return variable\r\n//             voters[voterID] = Voter(uid,candidateID);\r\n//         }\r\n//     }\r\n\r\n//     /* * * * * * * * * * * * * * * * * * * * * * * * * *\r\n//      *  Getter Functions, marked by the key word \"view\" *\r\n//      * * * * * * * * * * * * * * * * * * * * * * * * * */\r\n\r\n\r\n//     // finds the total amount of votes for a specific candidate by looping\r\n//     // through voters\r\n//     function totalVotes(uint candidateID) view public returns (uint) {\r\n//         uint numOfVotes = 0; // we will return this\r\n//         for (uint i = 0; i < numVoters; i++) {\r\n//             // if the voter votes for this specific candidate, we increment the number\r\n//             if (voters[i].candidateIDVote == candidateID) {\r\n//                 numOfVotes++;\r\n//             }\r\n//         }\r\n//         return numOfVotes;\r\n//     }\r\n\r\n//     function getNumOfCandidates() public view returns(uint) {\r\n//         return numCandidates;\r\n//     }\r\n\r\n//     function getNumOfVoters() public view returns(uint) {\r\n//         return numVoters;\r\n//     }\r\n//     // returns candidate information, including its ID, name, and party\r\n//     function getCandidate(uint candidateID) public view returns (uint,bytes32, bytes32) {\r\n//         return (candidateID,candidates[candidateID].name,candidates[candidateID].party);\r\n//     }\r\n// }",
  "sourcePath": "c:/Users/Ashish Ranjan/Desktop/blockchain-electronic-voting-master/contracts/Voting.sol",
  "compiler": {
    "name": "solc",
    "version": "0.5.0+commit.1d4f565a.Emscripten.clang"
  },
  "schemaVersion": "3.0.11",
  "updatedAt": "2019-08-21T14:11:06.071Z",
  "devdoc": {
    "methods": {}
  },
  "userdoc": {
    "methods": {}
  }
}