{
  "contractName": "Voting",
  "abi": [
    {
      "constant": true,
      "inputs": [
        {
          "name": "",
          "type": "address"
        }
      ],
      "name": "machineToBooth",
      "outputs": [
        {
          "name": "",
          "type": "uint256"
        }
      ],
      "payable": false,
      "stateMutability": "view",
      "type": "function"
    },
    {
      "constant": true,
      "inputs": [
        {
          "name": "",
          "type": "uint256"
        }
      ],
      "name": "candidates",
      "outputs": [
        {
          "components": [
            {
              "name": "name",
              "type": "string"
            },
            {
              "name": "aadharId",
              "type": "uint256"
            }
          ],
          "name": "person",
          "type": "tuple"
        },
        {
          "name": "voteCount",
          "type": "uint256"
        },
        {
          "name": "constituencyId",
          "type": "uint256"
        },
        {
          "name": "id",
          "type": "uint256"
        },
        {
          "name": "doesExist",
          "type": "bool"
        }
      ],
      "payable": false,
      "stateMutability": "view",
      "type": "function"
    },
    {
      "constant": true,
      "inputs": [
        {
          "name": "",
          "type": "uint256"
        }
      ],
      "name": "constituencyList",
      "outputs": [
        {
          "name": "name",
          "type": "string"
        },
        {
          "name": "id",
          "type": "uint256"
        },
        {
          "name": "boothCount",
          "type": "uint256"
        },
        {
          "name": "doesExist",
          "type": "bool"
        }
      ],
      "payable": false,
      "stateMutability": "view",
      "type": "function"
    },
    {
      "constant": true,
      "inputs": [
        {
          "name": "",
          "type": "uint256"
        },
        {
          "name": "",
          "type": "uint256"
        }
      ],
      "name": "constituencyToBooth",
      "outputs": [
        {
          "name": "boothAddress",
          "type": "string"
        },
        {
          "name": "id",
          "type": "uint256"
        },
        {
          "name": "constituencyId",
          "type": "uint256"
        },
        {
          "name": "doesExist",
          "type": "bool"
        }
      ],
      "payable": false,
      "stateMutability": "view",
      "type": "function"
    },
    {
      "constant": true,
      "inputs": [],
      "name": "officerCount",
      "outputs": [
        {
          "name": "",
          "type": "uint256"
        }
      ],
      "payable": false,
      "stateMutability": "view",
      "type": "function"
    },
    {
      "constant": true,
      "inputs": [],
      "name": "constituencyCount",
      "outputs": [
        {
          "name": "",
          "type": "uint256"
        }
      ],
      "payable": false,
      "stateMutability": "view",
      "type": "function"
    },
    {
      "constant": true,
      "inputs": [],
      "name": "boothCount",
      "outputs": [
        {
          "name": "",
          "type": "uint256"
        }
      ],
      "payable": false,
      "stateMutability": "view",
      "type": "function"
    },
    {
      "constant": true,
      "inputs": [],
      "name": "votersCount",
      "outputs": [
        {
          "name": "",
          "type": "uint256"
        }
      ],
      "payable": false,
      "stateMutability": "view",
      "type": "function"
    },
    {
      "constant": true,
      "inputs": [
        {
          "name": "",
          "type": "uint256"
        }
      ],
      "name": "pinToConstituency",
      "outputs": [
        {
          "name": "name",
          "type": "string"
        },
        {
          "name": "id",
          "type": "uint256"
        },
        {
          "name": "boothCount",
          "type": "uint256"
        },
        {
          "name": "doesExist",
          "type": "bool"
        }
      ],
      "payable": false,
      "stateMutability": "view",
      "type": "function"
    },
    {
      "constant": true,
      "inputs": [],
      "name": "candidateCount",
      "outputs": [
        {
          "name": "",
          "type": "uint256"
        }
      ],
      "payable": false,
      "stateMutability": "view",
      "type": "function"
    },
    {
      "constant": true,
      "inputs": [
        {
          "name": "",
          "type": "uint256"
        }
      ],
      "name": "voters",
      "outputs": [
        {
          "components": [
            {
              "name": "name",
              "type": "string"
            },
            {
              "name": "aadharId",
              "type": "uint256"
            }
          ],
          "name": "person",
          "type": "tuple"
        },
        {
          "name": "isVoted",
          "type": "bool"
        },
        {
          "name": "constituencyId",
          "type": "uint256"
        },
        {
          "name": "id",
          "type": "uint256"
        },
        {
          "name": "boothId",
          "type": "uint256"
        },
        {
          "name": "doesExist",
          "type": "bool"
        }
      ],
      "payable": false,
      "stateMutability": "view",
      "type": "function"
    },
    {
      "constant": true,
      "inputs": [
        {
          "name": "",
          "type": "uint256"
        }
      ],
      "name": "boothList",
      "outputs": [
        {
          "name": "boothAddress",
          "type": "string"
        },
        {
          "name": "id",
          "type": "uint256"
        },
        {
          "name": "constituencyId",
          "type": "uint256"
        },
        {
          "name": "doesExist",
          "type": "bool"
        }
      ],
      "payable": false,
      "stateMutability": "view",
      "type": "function"
    },
    {
      "constant": true,
      "inputs": [],
      "name": "State",
      "outputs": [
        {
          "name": "",
          "type": "uint8"
        }
      ],
      "payable": false,
      "stateMutability": "view",
      "type": "function"
    },
    {
      "constant": true,
      "inputs": [
        {
          "name": "",
          "type": "uint256"
        }
      ],
      "name": "officersList",
      "outputs": [
        {
          "components": [
            {
              "name": "name",
              "type": "string"
            },
            {
              "name": "aadharId",
              "type": "uint256"
            }
          ],
          "name": "person",
          "type": "tuple"
        },
        {
          "name": "id",
          "type": "uint256"
        },
        {
          "name": "boothId",
          "type": "uint256"
        },
        {
          "name": "doesExist",
          "type": "bool"
        }
      ],
      "payable": false,
      "stateMutability": "view",
      "type": "function"
    },
    {
      "inputs": [],
      "payable": false,
      "stateMutability": "nonpayable",
      "type": "constructor"
    },
    {
      "anonymous": false,
      "inputs": [
        {
          "indexed": false,
          "name": "sender",
          "type": "address"
        }
      ],
      "name": "voteCast",
      "type": "event"
    },
    {
      "anonymous": false,
      "inputs": [
        {
          "components": [
            {
              "components": [
                {
                  "name": "name",
                  "type": "string"
                },
                {
                  "name": "aadharId",
                  "type": "uint256"
                }
              ],
              "name": "person",
              "type": "tuple"
            },
            {
              "name": "voteCount",
              "type": "uint256"
            },
            {
              "name": "constituencyId",
              "type": "uint256"
            },
            {
              "name": "id",
              "type": "uint256"
            },
            {
              "name": "doesExist",
              "type": "bool"
            }
          ],
          "indexed": false,
          "name": "result",
          "type": "tuple[]"
        }
      ],
      "name": "Result",
      "type": "event"
    },
    {
      "constant": false,
      "inputs": [
        {
          "name": "boothAddress",
          "type": "string"
        },
        {
          "name": "constituencyId",
          "type": "uint256"
        }
      ],
      "name": "addBooth",
      "outputs": [],
      "payable": false,
      "stateMutability": "nonpayable",
      "type": "function"
    },
    {
      "constant": false,
      "inputs": [
        {
          "name": "name",
          "type": "string"
        }
      ],
      "name": "addConstituency",
      "outputs": [],
      "payable": false,
      "stateMutability": "nonpayable",
      "type": "function"
    },
    {
      "constant": false,
      "inputs": [
        {
          "name": "name",
          "type": "string"
        },
        {
          "name": "aadharId",
          "type": "uint256"
        },
        {
          "name": "boothId",
          "type": "uint256"
        }
      ],
      "name": "addOfficer",
      "outputs": [],
      "payable": false,
      "stateMutability": "nonpayable",
      "type": "function"
    },
    {
      "constant": false,
      "inputs": [
        {
          "name": "constituencyName",
          "type": "string"
        },
        {
          "name": "name",
          "type": "string"
        },
        {
          "name": "aadharId",
          "type": "uint256"
        }
      ],
      "name": "addCandidate",
      "outputs": [],
      "payable": false,
      "stateMutability": "nonpayable",
      "type": "function"
    },
    {
      "constant": false,
      "inputs": [
        {
          "name": "constituencyName",
          "type": "string"
        },
        {
          "name": "boothId",
          "type": "uint256"
        },
        {
          "name": "name",
          "type": "string"
        },
        {
          "name": "aadharId",
          "type": "uint256"
        }
      ],
      "name": "addVoter",
      "outputs": [],
      "payable": false,
      "stateMutability": "nonpayable",
      "type": "function"
    },
    {
      "constant": false,
      "inputs": [],
      "name": "StartVoting",
      "outputs": [],
      "payable": false,
      "stateMutability": "nonpayable",
      "type": "function"
    },
    {
      "constant": false,
      "inputs": [
        {
          "name": "candidateId",
          "type": "uint256"
        },
        {
          "name": "aadharId",
          "type": "uint256"
        }
      ],
      "name": "vote",
      "outputs": [],
      "payable": false,
      "stateMutability": "nonpayable",
      "type": "function"
    },
    {
      "constant": true,
      "inputs": [
        {
          "name": "boothId",
          "type": "uint256"
        },
        {
          "name": "aadharId",
          "type": "uint256"
        }
      ],
      "name": "verifyToVote",
      "outputs": [
        {
          "name": "",
          "type": "bool"
        }
      ],
      "payable": false,
      "stateMutability": "view",
      "type": "function"
    },
    {
      "constant": false,
      "inputs": [
        {
          "name": "aadharId",
          "type": "uint256"
        }
      ],
      "name": "verifyOfficer",
      "outputs": [
        {
          "name": "",
          "type": "bool"
        }
      ],
      "payable": false,
      "stateMutability": "nonpayable",
      "type": "function"
    },
    {
      "constant": false,
      "inputs": [],
      "name": "finishVoting",
      "outputs": [],
      "payable": false,
      "stateMutability": "nonpayable",
      "type": "function"
    },
    {
      "constant": false,
      "inputs": [
        {
          "name": "constituencyId",
          "type": "uint256"
        }
      ],
      "name": "getResults",
      "outputs": [],
      "payable": false,
      "stateMutability": "nonpayable",
      "type": "function"
    }
  ],
  "bytecode": "0x60806040523480156200001157600080fd5b50620000616040805190810160405280600881526020017f477577616861746900000000000000000000000000000000000000000000000081525062000394640100000000026401000000009004565b620000b26040805190810160405280600781526020017f47532d526f6164000000000000000000000000000000000000000000000000008152506001620004b0640100000000026401000000009004565b620001096040805190810160405280601181526020017f526168756c204b756d617220477570746100000000000000000000000000000081525064d404a5ccb560016200063f640100000000026401000000009004565b6000600960006101000a81548160ff021916908360028111156200012957fe5b0217905550600360006001815260200190815260200160002060086000620497c9815260200190815260200160002060008201816000019080546001816001161561010002031660029004620001819291906200071d565b5060018201548160010155600282015481600201556003820160009054906101000a900460ff168160030160006101000a81548160ff0219169083151502179055509050506003600060018152602001908152602001600020600860006206f855815260200190815260200160002060008201816000019080546001816001161561010002031660029004620002199291906200071d565b5060018201548160010155600282015481600201556003820160009054906101000a900460ff168160030160006101000a81548160ff021916908315150217905550905050600360006001815260200190815260200160002060086000620c9e7c815260200190815260200160002060008201816000019080546001816001161561010002031660029004620002b19291906200071d565b5060018201548160010155600282015481600201556003820160009054906101000a900460ff168160030160006101000a81548160ff0219169083151502179055509050506003600060018152602001908152602001600020600860006204af53815260200190815260200160002060008201816000019080546001816001161561010002031660029004620003499291906200071d565b5060018201548160010155600282015481600201556003820160009054906101000a900460ff168160030160006101000a81548160ff02191690831515021790555090505062000874565b600d60008154809291906001019190505550608060405190810160405280828152602001600d548152602001600081526020016001151581525060036000600d548152602001908152602001600020600082015181600001908051906020019062000401929190620007ab565b50602082015181600101556040820151816002015560608201518160030160006101000a81548160ff021916908315150217905550905050600d546005826040518082805190602001908083835b6020831015156200047657805182526020820191506020810190506020830392506200044f565b6001836020036101000a03801982511681845116808217855250505050505090500191505090815260200160405180910390208190555050565b600a60008154809291906001019190505550608060405190810160405280838152602001600a5481526020018281526020016001151581525060046000600a54815260200190815260200160002060008201518160000190805190602001906200051c929190620007ab565b50602082015181600101556040820151816002015560608201518160030160006101000a81548160ff02191690831515021790555090505060036000828152602001908152602001600020600201600081548092919060010191905055506007600082815260200190815260200160002060046000600a5481526020019081526020016000209080600181540180825580915050906001820390600052602060002090600402016000909192909190915060008201816000019080546001816001161561010002031660029004620005f69291906200071d565b5060018201548160010155600282015481600201556003820160009054906101000a900460ff168160030160006101000a81548160ff0219169083151502179055505050505050565b6200064962000832565b6040805190810160405280858152602001848152509050600e60008154809291906001019190505550608060405190810160405280828152602001600e54815260200183815260200160011515815250600160008581526020019081526020016000206000820151816000016000820151816000019080519060200190620006d3929190620007ab565b50602082015181600101555050602082015181600201556040820151816003015560608201518160040160006101000a81548160ff02191690831515021790555090505050505050565b828054600181600116156101000203166002900490600052602060002090601f016020900481019282601f1062000758578054855562000798565b828001600101855582156200079857600052602060002091601f016020900482015b82811115620007975782548255916001019190600101906200077a565b5b509050620007a791906200084c565b5090565b828054600181600116156101000203166002900490600052602060002090601f016020900481019282601f10620007ee57805160ff19168380011785556200081f565b828001600101855582156200081f579182015b828111156200081e57825182559160200191906001019062000801565b5b5090506200082e91906200084c565b5090565b604080519081016040528060608152602001600081525090565b6200087191905b808211156200086d57600081600090555060010162000853565b5090565b90565b61309780620008846000396000f3fe608060405260043610610149576000357c0100000000000000000000000000000000000000000000000000000000900463ffffffff16806305a395a51461014e57806315040715146101775780633477ee2e146101b45780633ca09fdf146101f55780633fac35531461021e5780634284eb571461025e5780635499e14a1461029b57806361c0ca4b146102db5780636c33f1a8146103065780637a99c0a61461033157806381a60c0d14610348578063921326091461037157806394909c551461039a57806398c07938146103c55780639e420f05146103f0578063a9a981a314610430578063b384abef1461045b578063da58c7d914610484578063e1e9c3f6146104c6578063e3223cc814610503578063e938080d1461052c578063f0bb639314610555578063f1b6dccd14610595578063f9094303146105c0578063fc07e297146105d7575b600080fd5b34801561015a57600080fd5b50610175600480360361017091908101906123f5565b610617565b005b34801561018357600080fd5b5061019e600480360361019991908101906123cc565b61072f565b6040516101ab9190612ec8565b60405180910390f35b3480156101c057600080fd5b506101db60048036036101d69190810190612603565b610747565b6040516101ec959493929190612e6e565b60405180910390f35b34801561020157600080fd5b5061021c60048036036102179190810190612436565b610840565b005b34801561022a57600080fd5b5061024560048036036102409190810190612603565b610a5a565b6040516102559493929190612c0e565b60405180910390f35b34801561026a57600080fd5b506102856004803603610280919081019061262c565b610b2f565b6040516102929190612bd8565b60405180910390f35b3480156102a757600080fd5b506102c260048036036102bd919081019061262c565b610dbf565b6040516102d29493929190612c0e565b60405180910390f35b3480156102e757600080fd5b506102f0610eb0565b6040516102fd9190612ec8565b60405180910390f35b34801561031257600080fd5b5061031b610eb6565b6040516103289190612ec8565b60405180910390f35b34801561033d57600080fd5b50610346610ebc565b005b34801561035457600080fd5b5061036f600480360361036a9190810190612603565b610f4c565b005b34801561037d57600080fd5b50610398600480360361039391908101906124b5565b6113ed565b005b3480156103a657600080fd5b506103af611578565b6040516103bc9190612ec8565b60405180910390f35b3480156103d157600080fd5b506103da61157e565b6040516103e79190612ec8565b60405180910390f35b3480156103fc57600080fd5b5061041760048036036104129190810190612603565b611584565b6040516104279493929190612c0e565b60405180910390f35b34801561043c57600080fd5b50610445611659565b6040516104529190612ec8565b60405180910390f35b34801561046757600080fd5b50610482600480360361047d919081019061262c565b61165f565b005b34801561049057600080fd5b506104ab60048036036104a69190810190612603565b6118c9565b6040516104bd96959493929190612dba565b60405180910390f35b3480156104d257600080fd5b506104ed60048036036104e89190810190612603565b6119d5565b6040516104fa9190612bd8565b60405180910390f35b34801561050f57600080fd5b5061052a60048036036105259190810190612509565b611b0f565b005b34801561053857600080fd5b50610553600480360361054e919081019061259c565b611e30565b005b34801561056157600080fd5b5061057c60048036036105779190810190612603565b611f0a565b60405161058c9493929190612c0e565b60405180910390f35b3480156105a157600080fd5b506105aa611fdf565b6040516105b79190612bf3565b60405180910390f35b3480156105cc57600080fd5b506105d5611ff2565b005b3480156105e357600080fd5b506105fe60048036036105f99190810190612603565b612082565b60405161060e9493929190612e22565b60405180910390f35b600d60008154809291906001019190505550608060405190810160405280828152602001600d548152602001600081526020016001151581525060036000600d5481526020019081526020016000206000820151816000019080519060200190610682929190612175565b50602082015181600101556040820151816002015560608201518160030160006101000a81548160ff021916908315150217905550905050600d546005826040518082805190602001908083835b6020831015156106f557805182526020820191506020810190506020830392506106d0565b6001836020036101000a03801982511681845116808217855250505050505090500191505090815260200160405180910390208190555050565b60066020528060005260406000206000915090505481565b600060205280600052604060002060009150905080600001604080519081016040529081600082018054600181600116156101000203166002900480601f0160208091040260200160405190810160405280929190818152602001828054600181600116156101000203166002900480156108035780601f106107d857610100808354040283529160200191610803565b820191906000526020600020905b8154815290600101906020018083116107e657829003601f168201915b50505050508152602001600182015481525050908060020154908060030154908060040154908060050160009054906101000a900460ff16905085565b6000600281111561084d57fe5b600960009054906101000a900460ff16600281111561086857fe5b1415156108aa576040517f08c379a00000000000000000000000000000000000000000000000000000000081526004016108a190612d7a565b60405180910390fd5b60006005846040518082805190602001908083835b6020831015156108e457805182526020820191506020810190506020830392506108bf565b6001836020036101000a038019825116818451168082178552505050505050905001915050908152602001604051809103902054905060008111801561092c5750600d548111155b151561096d576040517f08c379a000000000000000000000000000000000000000000000000000000000815260040161096490612c7a565b60405180910390fd5b6109756121f5565b6040805190810160405280858152602001848152509050600c6000815480929190600101919050555060a06040519081016040528082815260200160008152602001838152602001600c54815260200160011515815250600080600c5481526020019081526020016000206000820151816000016000820151816000019080519060200190610a05929190612175565b5060208201518160010155505060208201518160020155604082015181600301556060820151816004015560808201518160050160006101000a81548160ff0219169083151502179055509050505050505050565b6003602052806000526040600020600091509050806000018054600181600116156101000203166002900480601f016020809104026020016040519081016040528092919081815260200182805460018160011615610100020316600290048015610b065780601f10610adb57610100808354040283529160200191610b06565b820191906000526020600020905b815481529060010190602001808311610ae957829003601f168201915b5050505050908060010154908060020154908060030160009054906101000a900460ff16905084565b600060016002811115610b3e57fe5b600960009054906101000a900460ff166002811115610b5957fe5b141515610b9b576040517f08c379a0000000000000000000000000000000000000000000000000000000008152600401610b9290612d7a565b60405180910390fd5b6000600660003373ffffffffffffffffffffffffffffffffffffffff1673ffffffffffffffffffffffffffffffffffffffff16815260200190815260200160002054118015610c2b5750600a54600660003373ffffffffffffffffffffffffffffffffffffffff1673ffffffffffffffffffffffffffffffffffffffff1681526020019081526020016000205411155b1515610c6c576040517f08c379a0000000000000000000000000000000000000000000000000000000008152600401610c6390612c9a565b60405180910390fd5b82600660003373ffffffffffffffffffffffffffffffffffffffff1673ffffffffffffffffffffffffffffffffffffffff16815260200190815260200160002054141515610cef576040517f08c379a0000000000000000000000000000000000000000000000000000000008152600401610ce690612cda565b60405180910390fd5b600115156002600084815260200190815260200160002060060160009054906101000a900460ff161515141515610d5b576040517f08c379a0000000000000000000000000000000000000000000000000000000008152600401610d5290612cfa565b60405180910390fd5b826002600084815260200190815260200160002060050154141515610db5576040517f08c379a0000000000000000000000000000000000000000000000000000000008152600401610dac90612d5a565b60405180910390fd5b6001905092915050565b600760205281600052604060002081815481101515610dda57fe5b906000526020600020906004020160009150915050806000018054600181600116156101000203166002900480601f016020809104026020016040519081016040528092919081815260200182805460018160011615610100020316600290048015610e875780601f10610e5c57610100808354040283529160200191610e87565b820191906000526020600020905b815481529060010190602001808311610e6a57829003601f168201915b5050505050908060010154908060020154908060030160009054906101000a900460ff16905084565b600e5481565b600d5481565b60006002811115610ec957fe5b600960009054906101000a900460ff166002811115610ee457fe5b141515610f26576040517f08c379a0000000000000000000000000000000000000000000000000000000008152600401610f1d90612d7a565b60405180910390fd5b6001600960006101000a81548160ff02191690836002811115610f4557fe5b0217905550565b600280811115610f5857fe5b600960009054906101000a900460ff166002811115610f7357fe5b141515610fb5576040517f08c379a0000000000000000000000000000000000000000000000000000000008152600401610fac90612d7a565b60405180910390fd5b600081118015610fc75750600d548111155b1515611008576040517f08c379a0000000000000000000000000000000000000000000000000000000008152600401610fff90612c7a565b60405180910390fd5b6000600f600083815260200190815260200160002080549050905060008090505b600182111561139f576000809050600080905060008090505b8385038110156110c957600f60008781526020019081526020016000208181548110151561106c57fe5b906000526020600020906006020160020154831115156110be57600f6000878152602001908152602001600020818154811015156110a657fe5b90600052602060002090600602016002015492508091505b806001019050611042565b506110d261220f565b600f6000878152602001908152602001600020848154811015156110f257fe5b906000526020600020906006020160a0604051908101604052908160008201604080519081016040529081600082018054600181600116156101000203166002900480601f0160208091040260200160405190810160405280929190818152602001828054600181600116156101000203166002900480156111b55780601f1061118a576101008083540402835291602001916111b5565b820191906000526020600020905b81548152906001019060200180831161119857829003601f168201915b5050505050815260200160018201548152505081526020016002820154815260200160038201548152602001600482015481526020016005820160009054906101000a900460ff1615151515815250509050600f60008781526020019081526020016000208281548110151561122757fe5b9060005260206000209060060201600f60008881526020019081526020016000208581548110151561125557fe5b9060005260206000209060060201600082018160000160008201816000019080546001816001161561010002031660029004611292929190612247565b506001820154816001015550506002820154816002015560038201548160030155600482015481600401556005820160009054906101000a900460ff168160050160006101000a81548160ff02191690831515021790555090505080600f60008881526020019081526020016000208381548110151561130e57fe5b90600052602060002090600602016000820151816000016000820151816000019080519060200190611341929190612175565b5060208201518160010155505060208201518160020155604082015181600301556060820151816004015560808201518160050160006101000a81548160ff0219169083151502179055509050508380600101945050505050611029565b7f1a746b81de544e7dad93cf3c76d7a7ca40c4d3d43914e0174a04bbbdd46890c5600f60008581526020019081526020016000206040516113e09190612bb6565b60405180910390a1505050565b600a60008154809291906001019190505550608060405190810160405280838152602001600a5481526020018281526020016001151581525060046000600a5481526020019081526020016000206000820151816000019080519060200190611457929190612175565b50602082015181600101556040820151816002015560608201518160030160006101000a81548160ff02191690831515021790555090505060036000828152602001908152602001600020600201600081548092919060010191905055506007600082815260200190815260200160002060046000600a548152602001908152602001600020908060018154018082558091505090600182039060005260206000209060040201600090919290919091506000820181600001908054600181600116156101000203166002900461152f929190612247565b5060018201548160010155600282015481600201556003820160009054906101000a900460ff168160030160006101000a81548160ff0219169083151502179055505050505050565b600a5481565b600b5481565b6008602052806000526040600020600091509050806000018054600181600116156101000203166002900480601f0160208091040260200160405190810160405280929190818152602001828054600181600116156101000203166002900480156116305780601f1061160557610100808354040283529160200191611630565b820191906000526020600020905b81548152906001019060200180831161161357829003601f168201915b5050505050908060010154908060020154908060030160009054906101000a900460ff16905084565b600c5481565b6001600281111561166c57fe5b600960009054906101000a900460ff16600281111561168757fe5b1415156116c9576040517f08c379a00000000000000000000000000000000000000000000000000000000081526004016116c090612d7a565b60405180910390fd5b6000600660003373ffffffffffffffffffffffffffffffffffffffff1673ffffffffffffffffffffffffffffffffffffffff168152602001908152602001600020541180156117595750600a54600660003373ffffffffffffffffffffffffffffffffffffffff1673ffffffffffffffffffffffffffffffffffffffff1681526020019081526020016000205411155b151561179a576040517f08c379a000000000000000000000000000000000000000000000000000000000815260040161179190612c9a565b60405180910390fd5b600115156002600083815260200190815260200160002060060160009054906101000a900460ff161515141515611806576040517f08c379a00000000000000000000000000000000000000000000000000000000081526004016117fd90612c5a565b60405180910390fd5b600015156002600083815260200190815260200160002060020160009054906101000a900460ff161515141515611872576040517f08c379a000000000000000000000000000000000000000000000000000000000815260040161186990612cba565b60405180910390fd5b60016000808481526020019081526020016000206002016000828254019250508190555060016002600083815260200190815260200160002060020160006101000a81548160ff0219169083151502179055505050565b600260205280600052604060002060009150905080600001604080519081016040529081600082018054600181600116156101000203166002900480601f0160208091040260200160405190810160405280929190818152602001828054600181600116156101000203166002900480156119855780601f1061195a57610100808354040283529160200191611985565b820191906000526020600020905b81548152906001019060200180831161196857829003601f168201915b50505050508152602001600182015481525050908060020160009054906101000a900460ff16908060030154908060040154908060050154908060060160009054906101000a900460ff16905086565b60008060028111156119e357fe5b600960009054906101000a900460ff1660028111156119fe57fe5b141515611a40576040517f08c379a0000000000000000000000000000000000000000000000000000000008152600401611a3790612d7a565b60405180910390fd5b600115156001600084815260200190815260200160002060040160009054906101000a900460ff161515141515611aac576040517f08c379a0000000000000000000000000000000000000000000000000000000008152600401611aa390612d9a565b60405180910390fd5b6001600083815260200190815260200160002060030154600660003373ffffffffffffffffffffffffffffffffffffffff1673ffffffffffffffffffffffffffffffffffffffff1681526020019081526020016000208190555060019050919050565b60006005856040518082805190602001908083835b602083101515611b495780518252602082019150602081019050602083039250611b24565b6001836020036101000a038019825116818451168082178552505050505050905001915050908152602001604051809103902054905060006002811115611b8c57fe5b600960009054906101000a900460ff166002811115611ba757fe5b141515611be9576040517f08c379a0000000000000000000000000000000000000000000000000000000008152600401611be090612d7a565b60405180910390fd5b600081118015611bfb5750600d548111155b1515611c3c576040517f08c379a0000000000000000000000000000000000000000000000000000000008152600401611c3390612c7a565b60405180910390fd5b600084118015611c62575060036000828152602001908152602001600020600201548411155b1515611ca3576040517f08c379a0000000000000000000000000000000000000000000000000000000008152600401611c9a90612d1a565b60405180910390fd5b600015156002600084815260200190815260200160002060060160009054906101000a900460ff161515141515611d0f576040517f08c379a0000000000000000000000000000000000000000000000000000000008152600401611d0690612d3a565b60405180910390fd5b611d176121f5565b6040805190810160405280858152602001848152509050600b60008154809291906001019190505550611d486122ce565b60c060405190810160405280838152602001600015158152602001848152602001600b54815260200187815260200160011515815250905080600260008681526020019081526020016000206000820151816000016000820151816000019080519060200190611db9929190612175565b5060208201518160010155505060208201518160020160006101000a81548160ff02191690831515021790555060408201518160030155606082015181600401556080820151816005015560a08201518160060160006101000a81548160ff02191690831515021790555090505050505050505050565b611e386121f5565b6040805190810160405280858152602001848152509050600e60008154809291906001019190505550608060405190810160405280828152602001600e54815260200183815260200160011515815250600160008581526020019081526020016000206000820151816000016000820151816000019080519060200190611ec0929190612175565b50602082015181600101555050602082015181600201556040820151816003015560608201518160040160006101000a81548160ff02191690831515021790555090505050505050565b6004602052806000526040600020600091509050806000018054600181600116156101000203166002900480601f016020809104026020016040519081016040528092919081815260200182805460018160011615610100020316600290048015611fb65780601f10611f8b57610100808354040283529160200191611fb6565b820191906000526020600020905b815481529060010190602001808311611f9957829003601f168201915b5050505050908060010154908060020154908060030160009054906101000a900460ff16905084565b600960009054906101000a900460ff1681565b60016002811115611fff57fe5b600960009054906101000a900460ff16600281111561201a57fe5b14151561205c576040517f08c379a000000000000000000000000000000000000000000000000000000000815260040161205390612d7a565b60405180910390fd5b6002600960006101000a81548160ff0219169083600281111561207b57fe5b0217905550565b600160205280600052604060002060009150905080600001604080519081016040529081600082018054600181600116156101000203166002900480601f01602080910402602001604051908101604052809291908181526020018280546001816001161561010002031660029004801561213e5780601f106121135761010080835404028352916020019161213e565b820191906000526020600020905b81548152906001019060200180831161212157829003601f168201915b50505050508152602001600182015481525050908060020154908060030154908060040160009054906101000a900460ff16905084565b828054600181600116156101000203166002900490600052602060002090601f016020900481019282601f106121b657805160ff19168380011785556121e4565b828001600101855582156121e4579182015b828111156121e35782518255916020019190600101906121c8565b5b5090506121f1919061230f565b5090565b604080519081016040528060608152602001600081525090565b60c060405190810160405280612223612334565b81526020016000815260200160008152602001600081526020016000151581525090565b828054600181600116156101000203166002900490600052602060002090601f016020900481019282601f1061228057805485556122bd565b828001600101855582156122bd57600052602060002091601f016020900482015b828111156122bc5782548255916001019190600101906122a1565b5b5090506122ca919061230f565b5090565b60e0604051908101604052806122e2612334565b81526020016000151581526020016000815260200160008152602001600081526020016000151581525090565b61233191905b8082111561232d576000816000905550600101612315565b5090565b90565b604080519081016040528060608152602001600081525090565b600061235a8235612fcf565b905092915050565b600082601f830112151561237557600080fd5b813561238861238382612f10565b612ee3565b915080825260208301602083018583830111156123a457600080fd5b6123af838284612ffd565b50505092915050565b60006123c48235612fe1565b905092915050565b6000602082840312156123de57600080fd5b60006123ec8482850161234e565b91505092915050565b60006020828403121561240757600080fd5b600082013567ffffffffffffffff81111561242157600080fd5b61242d84828501612362565b91505092915050565b60008060006060848603121561244b57600080fd5b600084013567ffffffffffffffff81111561246557600080fd5b61247186828701612362565b935050602084013567ffffffffffffffff81111561248e57600080fd5b61249a86828701612362565b92505060406124ab868287016123b8565b9150509250925092565b600080604083850312156124c857600080fd5b600083013567ffffffffffffffff8111156124e257600080fd5b6124ee85828601612362565b92505060206124ff858286016123b8565b9150509250929050565b6000806000806080858703121561251f57600080fd5b600085013567ffffffffffffffff81111561253957600080fd5b61254587828801612362565b9450506020612556878288016123b8565b935050604085013567ffffffffffffffff81111561257357600080fd5b61257f87828801612362565b9250506060612590878288016123b8565b91505092959194509250565b6000806000606084860312156125b157600080fd5b600084013567ffffffffffffffff8111156125cb57600080fd5b6125d786828701612362565b93505060206125e8868287016123b8565b92505060406125f9868287016123b8565b9150509250925092565b60006020828403121561261557600080fd5b6000612623848285016123b8565b91505092915050565b6000806040838503121561263f57600080fd5b600061264d858286016123b8565b925050602061265e858286016123b8565b9150509250929050565b600061267382612f60565b8084526020840193508360208202850161268c85612f3c565b60005b848110156126c45783830388526126a68383612a7e565b92506126b182612f76565b915060208801975060018101905061268f565b508196508694505050505092915050565b6126de81612f83565b82525050565b6126ed81612feb565b82525050565b60006126fe82612f6b565b80845261271281602086016020860161300c565b61271b8161303f565b602085010191505092915050565b6000815460018116600081146127465760018114612766576127a7565b607f600283041680865260ff1983166020870152604086019350506127a7565b6002820480865260208601955061277c85612f4e565b60005b8281101561279e5781548189015260018201915060208101905061277f565b80880195505050505b505092915050565b6000601382527f766f746572206e6f7420726567697374657264000000000000000000000000006020830152604082019050919050565b6000601482527f496e76616c696420436f6e7374697475656e63790000000000000000000000006020830152604082019050919050565b6000600d82527f496e76616c696420626f6f7468000000000000000000000000000000000000006020830152604082019050919050565b6000600d82527f416c726561647920766f746564000000000000000000000000000000000000006020830152604082019050919050565b6000603882527f416374696f6e2073686f756c6420626520646f6e65206174206469666665726560208301527f6e7420436f6e7374697475656e6379206f7220626f6f746800000000000000006040830152606082019050919050565b6000602382527f566f746572206e6f7420616464656420746f2074686520766f74657273206c6960208301527f73742100000000000000000000000000000000000000000000000000000000006040830152606082019050919050565b6000600d82527f496e76616c696420426f6f7468000000000000000000000000000000000000006020830152604082019050919050565b6000601f82527f596f75206861766520616c7265616479206265656e20726567697374657264006020830152604082019050919050565b6000602482527f566f74657220646f6573206e6f742062656c6f6e6720746f207468697320626f60208301527f6f746820000000000000000000000000000000000000000000000000000000006040830152606082019050919050565b6000600d82527f496e76616c6964205374617465000000000000000000000000000000000000006020830152604082019050919050565b6000600f82527f496e76616c6964204f66666963657200000000000000000000000000000000006020830152604082019050919050565b600060a0830160008084018583036000870152612a9b8382612b5e565b92505060028401549050612aae81613050565b612abb6020870182612ba7565b5060038401549050612acc81613050565b612ad96040870182612ba7565b5060048401549050612aea81613050565b612af76060870182612ba7565b5060058401549050612b0881613050565b612b1560808701826126d5565b50819250505092915050565b60006040830160008301518482036000860152612b3e82826126f3565b9150506020830151612b536020860182612ba7565b508091505092915050565b60006040830160008084018583036000870152612b7b8382612729565b92505060018401549050612b8e81613050565b612b9b6020870182612ba7565b50819250505092915050565b612bb081612fc5565b82525050565b60006020820190508181036000830152612bd08184612668565b905092915050565b6000602082019050612bed60008301846126d5565b92915050565b6000602082019050612c0860008301846126e4565b92915050565b60006080820190508181036000830152612c2881876126f3565b9050612c376020830186612ba7565b612c446040830185612ba7565b612c5160608301846126d5565b95945050505050565b60006020820190508181036000830152612c73816127af565b9050919050565b60006020820190508181036000830152612c93816127e6565b9050919050565b60006020820190508181036000830152612cb38161281d565b9050919050565b60006020820190508181036000830152612cd381612854565b9050919050565b60006020820190508181036000830152612cf38161288b565b9050919050565b60006020820190508181036000830152612d13816128e8565b9050919050565b60006020820190508181036000830152612d3381612945565b9050919050565b60006020820190508181036000830152612d538161297c565b9050919050565b60006020820190508181036000830152612d73816129b3565b9050919050565b60006020820190508181036000830152612d9381612a10565b9050919050565b60006020820190508181036000830152612db381612a47565b9050919050565b600060c0820190508181036000830152612dd48189612b21565b9050612de360208301886126d5565b612df06040830187612ba7565b612dfd6060830186612ba7565b612e0a6080830185612ba7565b612e1760a08301846126d5565b979650505050505050565b60006080820190508181036000830152612e3c8187612b21565b9050612e4b6020830186612ba7565b612e586040830185612ba7565b612e6560608301846126d5565b95945050505050565b600060a0820190508181036000830152612e888188612b21565b9050612e976020830187612ba7565b612ea46040830186612ba7565b612eb16060830185612ba7565b612ebe60808301846126d5565b9695505050505050565b6000602082019050612edd6000830184612ba7565b92915050565b6000604051905081810181811067ffffffffffffffff82111715612f0657600080fd5b8060405250919050565b600067ffffffffffffffff821115612f2757600080fd5b601f19601f8301169050602081019050919050565b60008160005260206000209050919050565b60008160005260206000209050919050565b600081549050919050565b600081519050919050565b6000600182019050919050565b60008115159050919050565b6000600382101515612f9d57fe5b819050919050565b600073ffffffffffffffffffffffffffffffffffffffff82169050919050565b6000819050919050565b6000612fda82612fa5565b9050919050565b6000819050919050565b6000612ff682612f8f565b9050919050565b82818337600083830152505050565b60005b8381101561302a57808201518184015260208101905061300f565b83811115613039576000848401525b50505050565b6000601f19601f8301169050919050565b600060018204905091905056fea265627a7a72305820a6d0afcfca0bc7b8769b453608eeb6e50614e9d1595d2a2a74ad02ce221a49586c6578706572696d656e74616cf50037",
  "source": "pragma solidity ^0.5.0;\r\npragma experimental ABIEncoderV2;\r\n\r\ncontract Voting{\r\n    // Candidate\r\n    struct Person{\r\n        string name;\r\n        uint aadharId;\r\n    }\r\n\r\n    struct Candidate{\r\n        Person person;\r\n        uint voteCount;\r\n        uint constituencyId;\r\n        uint id;\r\n        bool doesExist;\r\n    }\r\n\r\n    struct Voter{\r\n        Person person;\r\n        bool isVoted;\r\n        uint constituencyId;\r\n        uint id;\r\n        uint boothId;\r\n        bool doesExist;\r\n    }\r\n\r\n    //Booth\r\n    struct Booth{\r\n        string boothAddress;\r\n        uint id;\r\n        uint constituencyId;\r\n        bool doesExist;\r\n    }\r\n\r\n    // Constituency\r\n    struct Constituency{\r\n        string name;\r\n        uint id;\r\n        uint boothCount;\r\n        bool doesExist;\r\n    }\r\n\r\n    struct Officer{\r\n        Person person;\r\n        uint id;\r\n        uint boothId;\r\n        bool doesExist;\r\n    }\r\n\r\n\r\n    mapping(uint => Candidate) public candidates;\r\n    mapping(uint => Officer) public officersList; // aadhar\r\n    mapping(uint => Voter)  public voters; //aadhar\r\n    mapping(uint => Constituency) public constituencyList;\r\n    mapping(uint => Booth) public boothList;\r\n    mapping(string => uint)  constituencyNameToId;\r\n    mapping(address => uint) public machineToBooth;\r\n    mapping(uint => Booth[]) public constituencyToBooth;\r\n    mapping(uint => Constituency) public pinToConstituency;\r\n\r\n    enum StateType { PreVoting, Voting, Result}\r\n\r\n    //List of properties\r\n    StateType public  State;\r\n    uint public boothCount;\r\n    uint public votersCount;\r\n    uint public candidateCount;\r\n    uint public constituencyCount;\r\n    uint public officerCount;\r\n\r\n    event voteCast(address sender);\r\n\r\n    constructor() public\r\n    {\r\n        addConstituency(\"Guwahati\");\r\n        addBooth(\"GS-Road\",1);\r\n        addOfficer(\"Rahul Kumar Gupta\",910611041461,1);\r\n        State = StateType.PreVoting;\r\n        pinToConstituency[301001] = constituencyList[1];\r\n        pinToConstituency[456789] = constituencyList[1];\r\n        pinToConstituency[827004] = constituencyList[1];\r\n        pinToConstituency[307027] = constituencyList[1];\r\n    }\r\n\r\n    function addBooth(string memory boothAddress,uint constituencyId)public {\r\n        boothCount++;\r\n        boothList[boothCount] = Booth(boothAddress,boothCount,constituencyId,true);\r\n        constituencyList[constituencyId].boothCount++;\r\n        constituencyToBooth[constituencyId].push(boothList[boothCount]);\r\n    }\r\n\r\n    function addConstituency(string memory name) public {\r\n        constituencyCount++;\r\n        constituencyList[constituencyCount] = Constituency(name,constituencyCount,0,true);\r\n        constituencyNameToId[name] = constituencyCount;\r\n    //    for(uint i = 0;i < boothId.length;++i){\r\n    //        constituencyToBooth[constituencyCount].push(boothId[i]);\r\n    //    }\r\n    }\r\n\r\n    function addOfficer(string memory name,uint aadharId,uint boothId) public{\r\n        Person memory person = Person(name,aadharId);\r\n        officerCount++;\r\n        officersList[aadharId] = Officer(person,officerCount,boothId,true);\r\n    }\r\n\r\n    function addCandidate(string memory constituencyName,string memory name,uint aadharId) public {\r\n        require(State==StateType.PreVoting,\"Invalid State\");\r\n        // emit voteCast(msg.sender);\r\n        // verify candidate\r\n        //require(officersList[msg.sender].doesExist == true,\"Officer Not Authorized\");\r\n        uint constituencyId = constituencyNameToId[constituencyName];\r\n        require(constituencyId > 0 && constituencyId <= constituencyCount,\"Invalid Constituency\");\r\n        // check aadhar.\r\n        Person memory person = Person(name,aadharId);\r\n        candidateCount++;\r\n        candidates[candidateCount] = Candidate(person,0,constituencyId,candidateCount,true);\r\n    }\r\n\r\n    // // update candidate\r\n    // function updateCandidate(uint id) public {\r\n\r\n    // }\r\n\r\n    function addVoter(string memory constituencyName,uint boothId,string memory name,uint aadharId) public {\r\n        uint constituencyId = constituencyNameToId[constituencyName];\r\n        require(State==StateType.PreVoting,\"Invalid State\");\r\n        require(constituencyId > 0 && constituencyId <= constituencyCount,\"Invalid Constituency\");\r\n        require(boothId > 0 && boothId <= constituencyList[constituencyId].boothCount, \"Invalid Booth\");\r\n        require(voters[aadharId].doesExist == false,\"You have already been registerd\");\r\n        // verify aadhar.\r\n        // verify voter age checking\r\n        Person memory person = Person(name,aadharId);\r\n        votersCount++;\r\n        //error in below line,, what is id in voter\r\n        Voter memory voter = Voter(person,false,constituencyId,votersCount,boothId,true);\r\n        //changed aadharid from voter.id,,coz of problem while verfying user\r\n        voters[aadharId] = voter;\r\n    }\r\n    // Fuction to get voter details.\r\n\r\n    // register msg.sender\r\n    function StartVoting() public{\r\n        require(State==StateType.PreVoting,\"Invalid State\");\r\n        State = StateType.Voting;\r\n    }\r\n\r\n    function vote(uint candidateId,uint aadharId)public {\r\n        require(State==StateType.Voting,\"Invalid State\");\r\n        require(machineToBooth[msg.sender] > 0 && machineToBooth[msg.sender] <= boothCount,\"Invalid booth\");\r\n        require(voters[aadharId].doesExist == true,\"voter not registerd\");\r\n        require(voters[aadharId].isVoted == false,\"Already voted\");\r\n        candidates[candidateId].voteCount += 1;\r\n        voters[aadharId].isVoted = true;\r\n        // emit ()\r\n    }\r\n\r\n    function verifyToVote(uint boothId, uint aadharId) public view returns (bool)  {\r\n        require(State==StateType.Voting,\"Invalid State\");\r\n        require(machineToBooth[msg.sender] > 0 && machineToBooth[msg.sender] <= boothCount,\"Invalid booth\");\r\n        require(machineToBooth[msg.sender] == boothId, \"Action should be done at different Constituency or booth\");\r\n        require(voters[aadharId].doesExist == true,\"Voter not added to the voters list!\");\r\n        require(voters[aadharId].boothId == boothId, \"Voter does not belong to this booth \");\r\n        return true;\r\n    }\r\n\r\n    function verifyOfficer(uint aadharId) public returns (bool){\r\n        require(State==StateType.PreVoting,\"Invalid State\");\r\n        require(officersList[aadharId].doesExist == true,\"Invalid Officer\");\r\n        machineToBooth[msg.sender] = officersList[aadharId].boothId;\r\n        return true;\r\n    }\r\n\r\n    function finishVoting() public{\r\n        require(State==StateType.Voting,\"Invalid State\");\r\n        State = StateType.Result;\r\n    }\r\n\r\n\r\n\r\n        // mapping (uint => Candidate[]) result;\r\n        mapping (uint => Candidate[]) constituencyToCandidate;\r\n        // Candidate[] result;\r\n\r\n    event Result(\r\n        Candidate[] result\r\n    );\r\n\r\n    function getResults(uint constituencyId) public {\r\n        require(State == StateType.Result,\"Invalid State\");\r\n        require(constituencyId > 0 && constituencyId <= constituencyCount,\"Invalid Constituency\");\r\n            uint size = constituencyToCandidate[constituencyId].length;\r\n            uint count = 0 ;\r\n            while(size > 1 ){\r\n                uint maxVotes=0;\r\n                uint maxId = 0;\r\n                for(uint j=0;j<size-count;++j){\r\n                    if(maxVotes <= constituencyToCandidate[constituencyId][j].voteCount){\r\n                        maxVotes = constituencyToCandidate[constituencyId][j].voteCount;\r\n                        maxId = j;\r\n                    }\r\n                }\r\n                Candidate memory temp = constituencyToCandidate[constituencyId][count];\r\n                constituencyToCandidate[constituencyId][count] = constituencyToCandidate[constituencyId][maxId];\r\n                constituencyToCandidate[constituencyId][maxId] = temp;\r\n                count++;\r\n            }\r\n        \r\n        emit Result(constituencyToCandidate[constituencyId]);\r\n    }\r\n}\r\n\r\n\r\n\r\n// contract Election {\r\n//     // Model a Candidate\r\n//     struct Candidate {\r\n//         uint id;\r\n//         string name;\r\n//         uint voteCount;\r\n//     }\r\n\r\n//     // Store accounts that have voted\r\n//     mapping(address => bool) public voters;\r\n//     // Store Candidates\r\n//     // Fetch Candidate\r\n//     mapping(uint => Candidate) public candidates;\r\n//     // Store Candidates Count\r\n//     uint public candidatesCount;\r\n\r\n//     // voted event\r\n//     event votedEvent (\r\n//         uint indexed _candidateId\r\n//     );\r\n\r\n//     constructor() public {\r\n//         addCandidate(\"Candidate 1\");\r\n//         addCandidate(\"Candidate 2\");\r\n//     }\r\n\r\n//     function addCandidate (string memory _name) private {\r\n//         candidatesCount ++;\r\n//         candidates[candidatesCount] = Candidate(candidatesCount, _name, 0);\r\n//     }\r\n\r\n//     function vote (uint _candidateId) public {\r\n//         // require that they haven't voted before\r\n//         require(!voters[msg.sender],\"You have already voted!\");\r\n\r\n//         // require a valid candidate\r\n//         require(_candidateId > 0 && _candidateId <= candidatesCount,\"Candidate is not valid!\");\r\n\r\n//         // record that voter has voted\r\n//         voters[msg.sender] = true;\r\n\r\n//         // update candidate vote Count\r\n//         candidates[_candidateId].voteCount ++;\r\n\r\n//         // trigger voted event\r\n//         emit votedEvent(_candidateId);\r\n//     }\r\n// }\r\n\r\n\r\n// contract Voting {\r\n//     // an event that is called whenever a Candidate is added so the frontend could\r\n//     // appropriately display the candidate with the right element id (it is used\r\n//     // to vote for the candidate, since it is one of arguments for the function \"vote\")\r\n//     event AddedCandidate(uint candidateID);\r\n\r\n//     // describes a Voter, which has an id and the ID of the candidate they voted for\r\n//     address owner;\r\n//     function Voting()public {\r\n//         owner=msg.sender;\r\n//     }\r\n//     modifier onlyOwner {\r\n//         require(msg.sender == owner);\r\n//         _;\r\n//     }\r\n//     struct Voter {\r\n//         bytes32 uid; // bytes32 type are basically strings\r\n//         uint candidateIDVote;\r\n//     }\r\n//     // describes a Candidate\r\n//     struct Candidate {\r\n//         bytes32 name;\r\n//         bytes32 party;\r\n//         // \"bool doesExist\" is to check if this Struct exists\r\n//         // This is so we can keep track of the candidates\r\n//         bool doesExist;\r\n//     }\r\n\r\n//     // These state variables are used keep track of the number of Candidates/Voters\r\n//     // and used to as a way to index them    \r\n//     uint numCandidates; // declares a state variable - number Of Candidates\r\n//     uint numVoters;\r\n\r\n\r\n//     // Think of these as a hash table, with the key as a uint and value of\r\n//     // the struct Candidate/Voter. These mappings will be used in the majority\r\n//     // of our transactions/calls\r\n//     // These mappings will hold all the candidates and Voters respectively\r\n//     mapping (uint => Candidate) candidates;\r\n//     mapping (uint => Voter) voters;\r\n\r\n//     /* * * * * * * * * * * * * * * * * * * * * * * * * * * * * * * *\r\n//      *  These functions perform transactions, editing the mappings *\r\n//      * * * * * * * * * * * * * * * * * * * * * * * * * * * * * * * */\r\n\r\n//     function addCandidate(bytes32 name, bytes32 party) onlyOwner public {\r\n//         // candidateID is the return variable\r\n//         uint candidateID = numCandidates++;\r\n//         // Create new Candidate Struct with name and saves it to storage.\r\n//         candidates[candidateID] = Candidate(name,party,true);\r\n//         AddedCandidate(candidateID);\r\n//     }\r\n\r\n//     function vote(bytes32 uid, uint candidateID) public {\r\n//         // checks if the struct exists for that candidate\r\n//         if (candidates[candidateID].doesExist == true) {\r\n//             uint voterID = numVoters++; //voterID is the return variable\r\n//             voters[voterID] = Voter(uid,candidateID);\r\n//         }\r\n//     }\r\n\r\n//     /* * * * * * * * * * * * * * * * * * * * * * * * * *\r\n//      *  Getter Functions, marked by the key word \"view\" *\r\n//      * * * * * * * * * * * * * * * * * * * * * * * * * */\r\n\r\n\r\n//     // finds the total amount of votes for a specific candidate by looping\r\n//     // through voters\r\n//     function totalVotes(uint candidateID) view public returns (uint) {\r\n//         uint numOfVotes = 0; // we will return this\r\n//         for (uint i = 0; i < numVoters; i++) {\r\n//             // if the voter votes for this specific candidate, we increment the number\r\n//             if (voters[i].candidateIDVote == candidateID) {\r\n//                 numOfVotes++;\r\n//             }\r\n//         }\r\n//         return numOfVotes;\r\n//     }\r\n\r\n//     function getNumOfCandidates() public view returns(uint) {\r\n//         return numCandidates;\r\n//     }\r\n\r\n//     function getNumOfVoters() public view returns(uint) {\r\n//         return numVoters;\r\n//     }\r\n//     // returns candidate information, including its ID, name, and party\r\n//     function getCandidate(uint candidateID) public view returns (uint,bytes32, bytes32) {\r\n//         return (candidateID,candidates[candidateID].name,candidates[candidateID].party);\r\n//     }\r\n// }",
  "sourcePath": "c:/Users/Ashish Ranjan/Desktop/blockchain-electronic-voting-master/contracts/Voting.sol",
  "compiler": {
    "name": "solc",
    "version": "0.5.0+commit.1d4f565a.Emscripten.clang"
  },
  "schemaVersion": "3.0.11",
  "updatedAt": "2019-08-19T19:05:53.621Z",
  "devdoc": {
    "methods": {}
  },
  "userdoc": {
    "methods": {}
  }
}