{
  "contractName": "Voting",
  "abi": [
    {
      "constant": true,
      "inputs": [
        {
          "name": "",
          "type": "address"
        }
      ],
      "name": "machineToBooth",
      "outputs": [
        {
          "name": "",
          "type": "uint256"
        }
      ],
      "payable": false,
      "stateMutability": "view",
      "type": "function"
    },
    {
      "constant": true,
      "inputs": [
        {
          "name": "",
          "type": "uint256"
        }
      ],
      "name": "candidates",
      "outputs": [
        {
          "name": "name",
          "type": "string"
        },
        {
          "name": "aadharId",
          "type": "uint256"
        },
        {
          "name": "voteCount",
          "type": "uint256"
        },
        {
          "name": "constituencyId",
          "type": "uint256"
        },
        {
          "name": "id",
          "type": "uint256"
        },
        {
          "name": "doesExist",
          "type": "bool"
        }
      ],
      "payable": false,
      "stateMutability": "view",
      "type": "function"
    },
    {
      "constant": true,
      "inputs": [
        {
          "name": "",
          "type": "uint256"
        }
      ],
      "name": "constituencyList",
      "outputs": [
        {
          "name": "name",
          "type": "string"
        },
        {
          "name": "id",
          "type": "uint256"
        },
        {
          "name": "boothCount",
          "type": "uint256"
        },
        {
          "name": "doesExist",
          "type": "bool"
        },
        {
          "name": "candidateCount",
          "type": "uint256"
        }
      ],
      "payable": false,
      "stateMutability": "view",
      "type": "function"
    },
    {
      "constant": true,
      "inputs": [
        {
          "name": "",
          "type": "uint256"
        },
        {
          "name": "",
          "type": "uint256"
        }
      ],
      "name": "constituencyToBooth",
      "outputs": [
        {
          "name": "boothAddress",
          "type": "string"
        },
        {
          "name": "id",
          "type": "uint256"
        },
        {
          "name": "constituencyId",
          "type": "uint256"
        },
        {
          "name": "doesExist",
          "type": "bool"
        }
      ],
      "payable": false,
      "stateMutability": "view",
      "type": "function"
    },
    {
      "constant": true,
      "inputs": [],
      "name": "officerCount",
      "outputs": [
        {
          "name": "",
          "type": "uint256"
        }
      ],
      "payable": false,
      "stateMutability": "view",
      "type": "function"
    },
    {
      "constant": true,
      "inputs": [],
      "name": "constituencyCount",
      "outputs": [
        {
          "name": "",
          "type": "uint256"
        }
      ],
      "payable": false,
      "stateMutability": "view",
      "type": "function"
    },
    {
      "constant": true,
      "inputs": [],
      "name": "boothCount",
      "outputs": [
        {
          "name": "",
          "type": "uint256"
        }
      ],
      "payable": false,
      "stateMutability": "view",
      "type": "function"
    },
    {
      "constant": true,
      "inputs": [],
      "name": "votersCount",
      "outputs": [
        {
          "name": "",
          "type": "uint256"
        }
      ],
      "payable": false,
      "stateMutability": "view",
      "type": "function"
    },
    {
      "constant": true,
      "inputs": [
        {
          "name": "",
          "type": "uint256"
        }
      ],
      "name": "pinToConstituency",
      "outputs": [
        {
          "name": "name",
          "type": "string"
        },
        {
          "name": "id",
          "type": "uint256"
        },
        {
          "name": "boothCount",
          "type": "uint256"
        },
        {
          "name": "doesExist",
          "type": "bool"
        },
        {
          "name": "candidateCount",
          "type": "uint256"
        }
      ],
      "payable": false,
      "stateMutability": "view",
      "type": "function"
    },
    {
      "constant": true,
      "inputs": [],
      "name": "candidateCount",
      "outputs": [
        {
          "name": "",
          "type": "uint256"
        }
      ],
      "payable": false,
      "stateMutability": "view",
      "type": "function"
    },
    {
      "constant": true,
      "inputs": [
        {
          "name": "",
          "type": "uint256"
        }
      ],
      "name": "voters",
      "outputs": [
        {
          "components": [
            {
              "name": "name",
              "type": "string"
            },
            {
              "name": "aadharId",
              "type": "uint256"
            }
          ],
          "name": "person",
          "type": "tuple"
        },
        {
          "name": "isVoted",
          "type": "bool"
        },
        {
          "name": "constituencyId",
          "type": "uint256"
        },
        {
          "name": "id",
          "type": "uint256"
        },
        {
          "name": "boothId",
          "type": "uint256"
        },
        {
          "name": "doesExist",
          "type": "bool"
        }
      ],
      "payable": false,
      "stateMutability": "view",
      "type": "function"
    },
    {
      "constant": true,
      "inputs": [
        {
          "name": "",
          "type": "uint256"
        }
      ],
      "name": "boothList",
      "outputs": [
        {
          "name": "boothAddress",
          "type": "string"
        },
        {
          "name": "id",
          "type": "uint256"
        },
        {
          "name": "constituencyId",
          "type": "uint256"
        },
        {
          "name": "doesExist",
          "type": "bool"
        }
      ],
      "payable": false,
      "stateMutability": "view",
      "type": "function"
    },
    {
      "constant": true,
      "inputs": [],
      "name": "State",
      "outputs": [
        {
          "name": "",
          "type": "uint8"
        }
      ],
      "payable": false,
      "stateMutability": "view",
      "type": "function"
    },
    {
      "constant": true,
      "inputs": [
        {
          "name": "",
          "type": "uint256"
        }
      ],
      "name": "officersList",
      "outputs": [
        {
          "name": "name",
          "type": "string"
        },
        {
          "name": "aadharId",
          "type": "uint256"
        },
        {
          "name": "id",
          "type": "uint256"
        },
        {
          "name": "boothId",
          "type": "uint256"
        },
        {
          "name": "doesExist",
          "type": "bool"
        }
      ],
      "payable": false,
      "stateMutability": "view",
      "type": "function"
    },
    {
      "inputs": [],
      "payable": false,
      "stateMutability": "nonpayable",
      "type": "constructor"
    },
    {
      "anonymous": false,
      "inputs": [
        {
          "indexed": false,
          "name": "sender",
          "type": "address"
        }
      ],
      "name": "voteCast",
      "type": "event"
    },
    {
      "anonymous": false,
      "inputs": [
        {
          "components": [
            {
              "name": "name",
              "type": "string"
            },
            {
              "name": "aadharId",
              "type": "uint256"
            },
            {
              "name": "voteCount",
              "type": "uint256"
            },
            {
              "name": "constituencyId",
              "type": "uint256"
            },
            {
              "name": "id",
              "type": "uint256"
            },
            {
              "name": "doesExist",
              "type": "bool"
            }
          ],
          "indexed": false,
          "name": "result",
          "type": "tuple[]"
        }
      ],
      "name": "Result",
      "type": "event"
    },
    {
      "constant": false,
      "inputs": [
        {
          "name": "boothAddress",
          "type": "string"
        },
        {
          "name": "constituencyId",
          "type": "uint256"
        }
      ],
      "name": "addBooth",
      "outputs": [],
      "payable": false,
      "stateMutability": "nonpayable",
      "type": "function"
    },
    {
      "constant": false,
      "inputs": [
        {
          "name": "name",
          "type": "string"
        }
      ],
      "name": "addConstituency",
      "outputs": [],
      "payable": false,
      "stateMutability": "nonpayable",
      "type": "function"
    },
    {
      "constant": false,
      "inputs": [
        {
          "name": "name",
          "type": "string"
        },
        {
          "name": "aadharId",
          "type": "uint256"
        },
        {
          "name": "boothId",
          "type": "uint256"
        }
      ],
      "name": "addOfficer",
      "outputs": [],
      "payable": false,
      "stateMutability": "nonpayable",
      "type": "function"
    },
    {
      "constant": false,
      "inputs": [
        {
          "name": "constituencyName",
          "type": "string"
        },
        {
          "name": "name",
          "type": "string"
        },
        {
          "name": "aadharId",
          "type": "uint256"
        }
      ],
      "name": "addCandidate",
      "outputs": [],
      "payable": false,
      "stateMutability": "nonpayable",
      "type": "function"
    },
    {
      "constant": false,
      "inputs": [
        {
          "name": "constituencyName",
          "type": "string"
        },
        {
          "name": "boothId",
          "type": "uint256"
        },
        {
          "name": "name",
          "type": "string"
        },
        {
          "name": "aadharId",
          "type": "uint256"
        }
      ],
      "name": "addVoter",
      "outputs": [],
      "payable": false,
      "stateMutability": "nonpayable",
      "type": "function"
    },
    {
      "constant": false,
      "inputs": [],
      "name": "StartVoting",
      "outputs": [],
      "payable": false,
      "stateMutability": "nonpayable",
      "type": "function"
    },
    {
      "constant": false,
      "inputs": [
        {
          "name": "candidateId",
          "type": "uint256"
        },
        {
          "name": "aadharId",
          "type": "uint256"
        }
      ],
      "name": "vote",
      "outputs": [],
      "payable": false,
      "stateMutability": "nonpayable",
      "type": "function"
    },
    {
      "constant": true,
      "inputs": [
        {
          "name": "boothId",
          "type": "uint256"
        },
        {
          "name": "aadharId",
          "type": "uint256"
        }
      ],
      "name": "verifyToVote",
      "outputs": [
        {
          "name": "",
          "type": "bool"
        }
      ],
      "payable": false,
      "stateMutability": "view",
      "type": "function"
    },
    {
      "constant": false,
      "inputs": [
        {
          "name": "aadharId",
          "type": "uint256"
        }
      ],
      "name": "verifyOfficer",
      "outputs": [
        {
          "name": "",
          "type": "bool"
        }
      ],
      "payable": false,
      "stateMutability": "nonpayable",
      "type": "function"
    },
    {
      "constant": false,
      "inputs": [],
      "name": "finishVoting",
      "outputs": [],
      "payable": false,
      "stateMutability": "nonpayable",
      "type": "function"
    },
    {
      "constant": false,
      "inputs": [
        {
          "name": "constituencyId",
          "type": "uint256"
        }
      ],
      "name": "getResults",
      "outputs": [],
      "payable": false,
      "stateMutability": "nonpayable",
      "type": "function"
    }
  ],
  "bytecode": "0x60806040523480156200001157600080fd5b50620000616040805190810160405280600881526020017f4775776168617469000000000000000000000000000000000000000000000000815250620003bc640100000000026401000000009004565b620000b26040805190810160405280600781526020017f47532d526f6164000000000000000000000000000000000000000000000000008152506001620004e9640100000000026401000000009004565b620001096040805190810160405280601181526020017f526168756c204b756d617220477570746100000000000000000000000000000081525064d404a5ccb5600162000678640100000000026401000000009004565b6000600a60006101000a81548160ff021916908360028111156200012957fe5b0217905550600360006001815260200190815260200160002060086000620497c9815260200190815260200160002060008201816000019080546001816001161561010002031660029004620001819291906200072f565b5060018201548160010155600282015481600201556003820160009054906101000a900460ff168160030160006101000a81548160ff021916908315150217905550600482015481600401559050506003600060018152602001908152602001600020600860006206f855815260200190815260200160002060008201816000019080546001816001161561010002031660029004620002239291906200072f565b5060018201548160010155600282015481600201556003820160009054906101000a900460ff168160030160006101000a81548160ff02191690831515021790555060048201548160040155905050600360006001815260200190815260200160002060086000620c9e7c815260200190815260200160002060008201816000019080546001816001161561010002031660029004620002c59291906200072f565b5060018201548160010155600282015481600201556003820160009054906101000a900460ff168160030160006101000a81548160ff021916908315150217905550600482015481600401559050506003600060018152602001908152602001600020600860006204af53815260200190815260200160002060008201816000019080546001816001161561010002031660029004620003679291906200072f565b5060018201548160010155600282015481600201556003820160009054906101000a900460ff168160030160006101000a81548160ff021916908315150217905550600482015481600401559050506200086c565b600e6000815480929190600101919050555060a060405190810160405280828152602001600e54815260200160008152602001600115158152602001600081525060036000600e548152602001908152602001600020600082015181600001908051906020019062000430929190620007bd565b50602082015181600101556040820151816002015560608201518160030160006101000a81548160ff02191690831515021790555060808201518160040155905050600e546005826040518082805190602001908083835b602083101515620004af578051825260208201915060208101905060208303925062000488565b6001836020036101000a03801982511681845116808217855250505050505090500191505090815260200160405180910390208190555050565b600b60008154809291906001019190505550608060405190810160405280838152602001600b5481526020018281526020016001151581525060046000600b548152602001908152602001600020600082015181600001908051906020019062000555929190620007bd565b50602082015181600101556040820151816002015560608201518160030160006101000a81548160ff02191690831515021790555090505060036000828152602001908152602001600020600201600081548092919060010191905055506007600082815260200190815260200160002060046000600b54815260200190815260200160002090806001815401808255809150509060018203906000526020600020906004020160009091929091909150600082018160000190805460018160011615610100020316600290046200062f9291906200072f565b5060018201548160010155600282015481600201556003820160009054906101000a900460ff168160030160006101000a81548160ff0219169083151502179055505050505050565b600f6000815480929190600101919050555060a060405190810160405280848152602001838152602001600f54815260200182815260200160011515815250600160008481526020019081526020016000206000820151816000019080519060200190620006e8929190620007bd565b5060208201518160010155604082015181600201556060820151816003015560808201518160040160006101000a81548160ff021916908315150217905550905050505050565b828054600181600116156101000203166002900490600052602060002090601f016020900481019282601f106200076a5780548555620007aa565b82800160010185558215620007aa57600052602060002091601f016020900482015b82811115620007a95782548255916001019190600101906200078c565b5b509050620007b9919062000844565b5090565b828054600181600116156101000203166002900490600052602060002090601f016020900481019282601f106200080057805160ff191683800117855562000831565b8280016001018555821562000831579182015b828111156200083057825182559160200191906001019062000813565b5b50905062000840919062000844565b5090565b6200086991905b80821115620008655760008160009055506001016200084b565b5090565b90565b613159806200087c6000396000f3fe608060405260043610610149576000357c0100000000000000000000000000000000000000000000000000000000900463ffffffff16806305a395a51461014e57806315040715146101775780633477ee2e146101b45780633ca09fdf146101f65780633fac35531461021f5780634284eb57146102605780635499e14a1461029d57806361c0ca4b146102dd5780636c33f1a8146103085780637a99c0a61461033357806381a60c0d1461034a578063921326091461037357806394909c551461039c57806398c07938146103c75780639e420f05146103f2578063a9a981a314610433578063b384abef1461045e578063da58c7d914610487578063e1e9c3f6146104c9578063e3223cc814610506578063e938080d1461052f578063f0bb639314610558578063f1b6dccd14610598578063f9094303146105c3578063fc07e297146105da575b600080fd5b34801561015a57600080fd5b506101756004803603610170919081019061246c565b61061b565b005b34801561018357600080fd5b5061019e60048036036101999190810190612443565b610744565b6040516101ab9190612f8a565b60405180910390f35b3480156101c057600080fd5b506101db60048036036101d6919081019061267a565b61075c565b6040516101ed96959493929190612d5a565b60405180910390f35b34801561020257600080fd5b5061021d600480360361021891908101906124ad565b61083d565b005b34801561022b57600080fd5b506102466004803603610241919081019061267a565b610b2a565b604051610257959493929190612ca6565b60405180910390f35b34801561026c57600080fd5b50610287600480360361028291908101906126a3565b610c05565b6040516102949190612c24565b60405180910390f35b3480156102a957600080fd5b506102c460048036036102bf91908101906126a3565b610e95565b6040516102d49493929190612c5a565b60405180910390f35b3480156102e957600080fd5b506102f2610f86565b6040516102ff9190612f8a565b60405180910390f35b34801561031457600080fd5b5061031d610f8c565b60405161032a9190612f8a565b60405180910390f35b34801561033f57600080fd5b50610348610f92565b005b34801561035657600080fd5b50610371600480360361036c919081019061267a565b611022565b005b34801561037f57600080fd5b5061039a6004803603610395919081019061252c565b61149a565b005b3480156103a857600080fd5b506103b1611625565b6040516103be9190612f8a565b60405180910390f35b3480156103d357600080fd5b506103dc61162b565b6040516103e99190612f8a565b60405180910390f35b3480156103fe57600080fd5b506104196004803603610414919081019061267a565b611631565b60405161042a959493929190612ca6565b60405180910390f35b34801561043f57600080fd5b5061044861170c565b6040516104559190612f8a565b60405180910390f35b34801561046a57600080fd5b50610485600480360361048091908101906126a3565b611712565b005b34801561049357600080fd5b506104ae60048036036104a9919081019061267a565b61197c565b6040516104c096959493929190612f22565b60405180910390f35b3480156104d557600080fd5b506104f060048036036104eb919081019061267a565b611a88565b6040516104fd9190612c24565b60405180910390f35b34801561051257600080fd5b5061052d60048036036105289190810190612580565b611bc2565b005b34801561053b57600080fd5b5061055660048036036105519190810190612613565b611ee3565b005b34801561056457600080fd5b5061057f600480360361057a919081019061267a565b611f98565b60405161058f9493929190612c5a565b60405180910390f35b3480156105a457600080fd5b506105ad61206d565b6040516105ba9190612c3f565b60405180910390f35b3480156105cf57600080fd5b506105d8612080565b005b3480156105e657600080fd5b5061060160048036036105fc919081019061267a565b612110565b604051610612959493929190612d00565b60405180910390f35b600e6000815480929190600101919050555060a060405190810160405280828152602001600e54815260200160008152602001600115158152602001600081525060036000600e548152602001908152602001600020600082015181600001908051906020019061068d9291906121eb565b50602082015181600101556040820151816002015560608201518160030160006101000a81548160ff02191690831515021790555060808201518160040155905050600e546005826040518082805190602001908083835b60208310151561070a57805182526020820191506020810190506020830392506106e5565b6001836020036101000a03801982511681845116808217855250505050505090500191505090815260200160405180910390208190555050565b60066020528060005260406000206000915090505481565b6000602052806000526040600020600091509050806000018054600181600116156101000203166002900480601f0160208091040260200160405190810160405280929190818152602001828054600181600116156101000203166002900480156108085780601f106107dd57610100808354040283529160200191610808565b820191906000526020600020905b8154815290600101906020018083116107eb57829003601f168201915b5050505050908060010154908060020154908060030154908060040154908060050160009054906101000a900460ff16905086565b6000600281111561084a57fe5b600a60009054906101000a900460ff16600281111561086557fe5b1415156108a7576040517f08c379a000000000000000000000000000000000000000000000000000000000815260040161089e90612ee2565b60405180910390fd5b60006005846040518082805190602001908083835b6020831015156108e157805182526020820191506020810190506020830392506108bc565b6001836020036101000a03801982511681845116808217855250505050505090500191505090815260200160405180910390205490506000811180156109295750600e548111155b151561096a576040517f08c379a000000000000000000000000000000000000000000000000000000000815260040161096190612de2565b60405180910390fd5b600d6000815480929190600101919050555060c06040519081016040528084815260200183815260200160008152602001828152602001600d54815260200160011515815250600080600d54815260200190815260200160002060008201518160000190805190602001906109e09291906121eb565b506020820151816001015560408201518160020155606082015181600301556080820151816004015560a08201518160050160006101000a81548160ff02191690831515021790555090505060096000828152602001908152602001600020600080600d5481526020019081526020016000209080600181540180825580915050906001820390600052602060002090600602016000909192909190915060008201816000019080546001816001161561010002031660029004610aa592919061226b565b50600182015481600101556002820154816002015560038201548160030155600482015481600401556005820160009054906101000a900460ff168160050160006101000a81548160ff021916908315150217905550505050600360008281526020019081526020016000206004016000815480929190600101919050555050505050565b6003602052806000526040600020600091509050806000018054600181600116156101000203166002900480601f016020809104026020016040519081016040528092919081815260200182805460018160011615610100020316600290048015610bd65780601f10610bab57610100808354040283529160200191610bd6565b820191906000526020600020905b815481529060010190602001808311610bb957829003601f168201915b5050505050908060010154908060020154908060030160009054906101000a900460ff16908060040154905085565b600060016002811115610c1457fe5b600a60009054906101000a900460ff166002811115610c2f57fe5b141515610c71576040517f08c379a0000000000000000000000000000000000000000000000000000000008152600401610c6890612ee2565b60405180910390fd5b6000600660003373ffffffffffffffffffffffffffffffffffffffff1673ffffffffffffffffffffffffffffffffffffffff16815260200190815260200160002054118015610d015750600b54600660003373ffffffffffffffffffffffffffffffffffffffff1673ffffffffffffffffffffffffffffffffffffffff1681526020019081526020016000205411155b1515610d42576040517f08c379a0000000000000000000000000000000000000000000000000000000008152600401610d3990612e02565b60405180910390fd5b82600660003373ffffffffffffffffffffffffffffffffffffffff1673ffffffffffffffffffffffffffffffffffffffff16815260200190815260200160002054141515610dc5576040517f08c379a0000000000000000000000000000000000000000000000000000000008152600401610dbc90612e42565b60405180910390fd5b600115156002600084815260200190815260200160002060060160009054906101000a900460ff161515141515610e31576040517f08c379a0000000000000000000000000000000000000000000000000000000008152600401610e2890612e62565b60405180910390fd5b826002600084815260200190815260200160002060050154141515610e8b576040517f08c379a0000000000000000000000000000000000000000000000000000000008152600401610e8290612ec2565b60405180910390fd5b6001905092915050565b600760205281600052604060002081815481101515610eb057fe5b906000526020600020906004020160009150915050806000018054600181600116156101000203166002900480601f016020809104026020016040519081016040528092919081815260200182805460018160011615610100020316600290048015610f5d5780601f10610f3257610100808354040283529160200191610f5d565b820191906000526020600020905b815481529060010190602001808311610f4057829003601f168201915b5050505050908060010154908060020154908060030160009054906101000a900460ff16905084565b600f5481565b600e5481565b60006002811115610f9f57fe5b600a60009054906101000a900460ff166002811115610fba57fe5b141515610ffc576040517f08c379a0000000000000000000000000000000000000000000000000000000008152600401610ff390612ee2565b60405180910390fd5b6001600a60006101000a81548160ff0219169083600281111561101b57fe5b0217905550565b60028081111561102e57fe5b600a60009054906101000a900460ff16600281111561104957fe5b14151561108b576040517f08c379a000000000000000000000000000000000000000000000000000000000815260040161108290612ee2565b60405180910390fd5b60008111801561109d5750600e548111155b15156110de576040517f08c379a00000000000000000000000000000000000000000000000000000000081526004016110d590612de2565b60405180910390fd5b60006009600083815260200190815260200160002080549050905060008090505b600182111561144c576000809050600080905060008090505b83850381101561119f57600960008781526020019081526020016000208181548110151561114257fe5b9060005260206000209060060201600201548311151561119457600960008781526020019081526020016000208181548110151561117c57fe5b90600052602060002090600602016002015492508091505b806001019050611118565b506111a86122f2565b60096000878152602001908152602001600020848154811015156111c857fe5b906000526020600020906006020160c06040519081016040529081600082018054600181600116156101000203166002900480601f01602080910402602001604051908101604052809291908181526020018280546001816001161561010002031660029004801561127b5780601f106112505761010080835404028352916020019161127b565b820191906000526020600020905b81548152906001019060200180831161125e57829003601f168201915b50505050508152602001600182015481526020016002820154815260200160038201548152602001600482015481526020016005820160009054906101000a900460ff161515151581525050905060096000878152602001908152602001600020828154811015156112e957fe5b9060005260206000209060060201600960008881526020019081526020016000208581548110151561131757fe5b90600052602060002090600602016000820181600001908054600181600116156101000203166002900461134c92919061226b565b50600182015481600101556002820154816002015560038201548160030155600482015481600401556005820160009054906101000a900460ff168160050160006101000a81548160ff0219169083151502179055509050508060096000888152602001908152602001600020838154811015156113c657fe5b906000526020600020906006020160008201518160000190805190602001906113f09291906121eb565b506020820151816001015560408201518160020155606082015181600301556080820151816004015560a08201518160050160006101000a81548160ff02191690831515021790555090505083806001019450505050506110ff565b7fea28c141031b96effed66a971c19aa47bfc50853d30cef8e25d78d4de4d9f8856009600085815260200190815260200160002060405161148d9190612c02565b60405180910390a1505050565b600b60008154809291906001019190505550608060405190810160405280838152602001600b5481526020018281526020016001151581525060046000600b54815260200190815260200160002060008201518160000190805190602001906115049291906121eb565b50602082015181600101556040820151816002015560608201518160030160006101000a81548160ff02191690831515021790555090505060036000828152602001908152602001600020600201600081548092919060010191905055506007600082815260200190815260200160002060046000600b54815260200190815260200160002090806001815401808255809150509060018203906000526020600020906004020160009091929091909150600082018160000190805460018160011615610100020316600290046115dc92919061226b565b5060018201548160010155600282015481600201556003820160009054906101000a900460ff168160030160006101000a81548160ff0219169083151502179055505050505050565b600b5481565b600c5481565b6008602052806000526040600020600091509050806000018054600181600116156101000203166002900480601f0160208091040260200160405190810160405280929190818152602001828054600181600116156101000203166002900480156116dd5780601f106116b2576101008083540402835291602001916116dd565b820191906000526020600020905b8154815290600101906020018083116116c057829003601f168201915b5050505050908060010154908060020154908060030160009054906101000a900460ff16908060040154905085565b600d5481565b6001600281111561171f57fe5b600a60009054906101000a900460ff16600281111561173a57fe5b14151561177c576040517f08c379a000000000000000000000000000000000000000000000000000000000815260040161177390612ee2565b60405180910390fd5b6000600660003373ffffffffffffffffffffffffffffffffffffffff1673ffffffffffffffffffffffffffffffffffffffff1681526020019081526020016000205411801561180c5750600b54600660003373ffffffffffffffffffffffffffffffffffffffff1673ffffffffffffffffffffffffffffffffffffffff1681526020019081526020016000205411155b151561184d576040517f08c379a000000000000000000000000000000000000000000000000000000000815260040161184490612e02565b60405180910390fd5b600115156002600083815260200190815260200160002060060160009054906101000a900460ff1615151415156118b9576040517f08c379a00000000000000000000000000000000000000000000000000000000081526004016118b090612dc2565b60405180910390fd5b600015156002600083815260200190815260200160002060020160009054906101000a900460ff161515141515611925576040517f08c379a000000000000000000000000000000000000000000000000000000000815260040161191c90612e22565b60405180910390fd5b60016000808481526020019081526020016000206002016000828254019250508190555060016002600083815260200190815260200160002060020160006101000a81548160ff0219169083151502179055505050565b600260205280600052604060002060009150905080600001604080519081016040529081600082018054600181600116156101000203166002900480601f016020809104026020016040519081016040528092919081815260200182805460018160011615610100020316600290048015611a385780601f10611a0d57610100808354040283529160200191611a38565b820191906000526020600020905b815481529060010190602001808311611a1b57829003601f168201915b50505050508152602001600182015481525050908060020160009054906101000a900460ff16908060030154908060040154908060050154908060060160009054906101000a900460ff16905086565b6000806002811115611a9657fe5b600a60009054906101000a900460ff166002811115611ab157fe5b141515611af3576040517f08c379a0000000000000000000000000000000000000000000000000000000008152600401611aea90612ee2565b60405180910390fd5b600115156001600084815260200190815260200160002060040160009054906101000a900460ff161515141515611b5f576040517f08c379a0000000000000000000000000000000000000000000000000000000008152600401611b5690612f02565b60405180910390fd5b6001600083815260200190815260200160002060030154600660003373ffffffffffffffffffffffffffffffffffffffff1673ffffffffffffffffffffffffffffffffffffffff1681526020019081526020016000208190555060019050919050565b60006005856040518082805190602001908083835b602083101515611bfc5780518252602082019150602081019050602083039250611bd7565b6001836020036101000a038019825116818451168082178552505050505050905001915050908152602001604051809103902054905060006002811115611c3f57fe5b600a60009054906101000a900460ff166002811115611c5a57fe5b141515611c9c576040517f08c379a0000000000000000000000000000000000000000000000000000000008152600401611c9390612ee2565b60405180910390fd5b600081118015611cae5750600e548111155b1515611cef576040517f08c379a0000000000000000000000000000000000000000000000000000000008152600401611ce690612de2565b60405180910390fd5b600084118015611d15575060036000828152602001908152602001600020600201548411155b1515611d56576040517f08c379a0000000000000000000000000000000000000000000000000000000008152600401611d4d90612e82565b60405180910390fd5b600015156002600084815260200190815260200160002060060160009054906101000a900460ff161515141515611dc2576040517f08c379a0000000000000000000000000000000000000000000000000000000008152600401611db990612ea2565b60405180910390fd5b611dca61232b565b6040805190810160405280858152602001848152509050600c60008154809291906001019190505550611dfb612345565b60c060405190810160405280838152602001600015158152602001848152602001600c54815260200187815260200160011515815250905080600260008681526020019081526020016000206000820151816000016000820151816000019080519060200190611e6c9291906121eb565b5060208201518160010155505060208201518160020160006101000a81548160ff02191690831515021790555060408201518160030155606082015181600401556080820151816005015560a08201518160060160006101000a81548160ff02191690831515021790555090505050505050505050565b600f6000815480929190600101919050555060a060405190810160405280848152602001838152602001600f54815260200182815260200160011515815250600160008481526020019081526020016000206000820151816000019080519060200190611f519291906121eb565b5060208201518160010155604082015181600201556060820151816003015560808201518160040160006101000a81548160ff021916908315150217905550905050505050565b6004602052806000526040600020600091509050806000018054600181600116156101000203166002900480601f0160208091040260200160405190810160405280929190818152602001828054600181600116156101000203166002900480156120445780601f1061201957610100808354040283529160200191612044565b820191906000526020600020905b81548152906001019060200180831161202757829003601f168201915b5050505050908060010154908060020154908060030160009054906101000a900460ff16905084565b600a60009054906101000a900460ff1681565b6001600281111561208d57fe5b600a60009054906101000a900460ff1660028111156120a857fe5b1415156120ea576040517f08c379a00000000000000000000000000000000000000000000000000000000081526004016120e190612ee2565b60405180910390fd5b6002600a60006101000a81548160ff0219169083600281111561210957fe5b0217905550565b6001602052806000526040600020600091509050806000018054600181600116156101000203166002900480601f0160208091040260200160405190810160405280929190818152602001828054600181600116156101000203166002900480156121bc5780601f10612191576101008083540402835291602001916121bc565b820191906000526020600020905b81548152906001019060200180831161219f57829003601f168201915b5050505050908060010154908060020154908060030154908060040160009054906101000a900460ff16905085565b828054600181600116156101000203166002900490600052602060002090601f016020900481019282601f1061222c57805160ff191683800117855561225a565b8280016001018555821561225a579182015b8281111561225957825182559160200191906001019061223e565b5b5090506122679190612386565b5090565b828054600181600116156101000203166002900490600052602060002090601f016020900481019282601f106122a457805485556122e1565b828001600101855582156122e157600052602060002091601f016020900482015b828111156122e05782548255916001019190600101906122c5565b5b5090506122ee9190612386565b5090565b60c06040519081016040528060608152602001600081526020016000815260200160008152602001600081526020016000151581525090565b604080519081016040528060608152602001600081525090565b60e0604051908101604052806123596123ab565b81526020016000151581526020016000815260200160008152602001600081526020016000151581525090565b6123a891905b808211156123a457600081600090555060010161238c565b5090565b90565b604080519081016040528060608152602001600081525090565b60006123d18235613091565b905092915050565b600082601f83011215156123ec57600080fd5b81356123ff6123fa82612fd2565b612fa5565b9150808252602083016020830185838301111561241b57600080fd5b6124268382846130bf565b50505092915050565b600061243b82356130a3565b905092915050565b60006020828403121561245557600080fd5b6000612463848285016123c5565b91505092915050565b60006020828403121561247e57600080fd5b600082013567ffffffffffffffff81111561249857600080fd5b6124a4848285016123d9565b91505092915050565b6000806000606084860312156124c257600080fd5b600084013567ffffffffffffffff8111156124dc57600080fd5b6124e8868287016123d9565b935050602084013567ffffffffffffffff81111561250557600080fd5b612511868287016123d9565b92505060406125228682870161242f565b9150509250925092565b6000806040838503121561253f57600080fd5b600083013567ffffffffffffffff81111561255957600080fd5b612565858286016123d9565b92505060206125768582860161242f565b9150509250929050565b6000806000806080858703121561259657600080fd5b600085013567ffffffffffffffff8111156125b057600080fd5b6125bc878288016123d9565b94505060206125cd8782880161242f565b935050604085013567ffffffffffffffff8111156125ea57600080fd5b6125f6878288016123d9565b92505060606126078782880161242f565b91505092959194509250565b60008060006060848603121561262857600080fd5b600084013567ffffffffffffffff81111561264257600080fd5b61264e868287016123d9565b935050602061265f8682870161242f565b92505060406126708682870161242f565b9150509250925092565b60006020828403121561268c57600080fd5b600061269a8482850161242f565b91505092915050565b600080604083850312156126b657600080fd5b60006126c48582860161242f565b92505060206126d58582860161242f565b9150509250929050565b60006126ea82613022565b8084526020840193508360208202850161270385612ffe565b60005b8481101561273b57838303885261271d8383612af5565b925061272882613038565b9150602088019750600181019050612706565b508196508694505050505092915050565b61275581613045565b82525050565b612764816130ad565b82525050565b60006127758261302d565b8084526127898160208601602086016130ce565b61279281613101565b602085010191505092915050565b6000815460018116600081146127bd57600181146127dd5761281e565b607f600283041680865260ff19831660208701526040860193505061281e565b600282048086526020860195506127f385613010565b60005b82811015612815578154818901526001820191506020810190506127f6565b80880195505050505b505092915050565b6000601382527f766f746572206e6f7420726567697374657264000000000000000000000000006020830152604082019050919050565b6000601482527f496e76616c696420436f6e7374697475656e63790000000000000000000000006020830152604082019050919050565b6000600d82527f496e76616c696420626f6f7468000000000000000000000000000000000000006020830152604082019050919050565b6000600d82527f416c726561647920766f746564000000000000000000000000000000000000006020830152604082019050919050565b6000603882527f416374696f6e2073686f756c6420626520646f6e65206174206469666665726560208301527f6e7420436f6e7374697475656e6379206f7220626f6f746800000000000000006040830152606082019050919050565b6000602382527f566f746572206e6f7420616464656420746f2074686520766f74657273206c6960208301527f73742100000000000000000000000000000000000000000000000000000000006040830152606082019050919050565b6000600d82527f496e76616c696420426f6f7468000000000000000000000000000000000000006020830152604082019050919050565b6000601f82527f596f75206861766520616c7265616479206265656e20726567697374657264006020830152604082019050919050565b6000602482527f566f74657220646f6573206e6f742062656c6f6e6720746f207468697320626f60208301527f6f746820000000000000000000000000000000000000000000000000000000006040830152606082019050919050565b6000600d82527f496e76616c6964205374617465000000000000000000000000000000000000006020830152604082019050919050565b6000600f82527f496e76616c6964204f66666963657200000000000000000000000000000000006020830152604082019050919050565b600060c0830160008084018583036000870152612b1283826127a0565b92505060018401549050612b2581613112565b612b326020870182612bf3565b5060028401549050612b4381613112565b612b506040870182612bf3565b5060038401549050612b6181613112565b612b6e6060870182612bf3565b5060048401549050612b7f81613112565b612b8c6080870182612bf3565b5060058401549050612b9d81613112565b612baa60a087018261274c565b50819250505092915050565b60006040830160008301518482036000860152612bd3828261276a565b9150506020830151612be86020860182612bf3565b508091505092915050565b612bfc81613087565b82525050565b60006020820190508181036000830152612c1c81846126df565b905092915050565b6000602082019050612c39600083018461274c565b92915050565b6000602082019050612c54600083018461275b565b92915050565b60006080820190508181036000830152612c74818761276a565b9050612c836020830186612bf3565b612c906040830185612bf3565b612c9d606083018461274c565b95945050505050565b600060a0820190508181036000830152612cc0818861276a565b9050612ccf6020830187612bf3565b612cdc6040830186612bf3565b612ce9606083018561274c565b612cf66080830184612bf3565b9695505050505050565b600060a0820190508181036000830152612d1a818861276a565b9050612d296020830187612bf3565b612d366040830186612bf3565b612d436060830185612bf3565b612d50608083018461274c565b9695505050505050565b600060c0820190508181036000830152612d74818961276a565b9050612d836020830188612bf3565b612d906040830187612bf3565b612d9d6060830186612bf3565b612daa6080830185612bf3565b612db760a083018461274c565b979650505050505050565b60006020820190508181036000830152612ddb81612826565b9050919050565b60006020820190508181036000830152612dfb8161285d565b9050919050565b60006020820190508181036000830152612e1b81612894565b9050919050565b60006020820190508181036000830152612e3b816128cb565b9050919050565b60006020820190508181036000830152612e5b81612902565b9050919050565b60006020820190508181036000830152612e7b8161295f565b9050919050565b60006020820190508181036000830152612e9b816129bc565b9050919050565b60006020820190508181036000830152612ebb816129f3565b9050919050565b60006020820190508181036000830152612edb81612a2a565b9050919050565b60006020820190508181036000830152612efb81612a87565b9050919050565b60006020820190508181036000830152612f1b81612abe565b9050919050565b600060c0820190508181036000830152612f3c8189612bb6565b9050612f4b602083018861274c565b612f586040830187612bf3565b612f656060830186612bf3565b612f726080830185612bf3565b612f7f60a083018461274c565b979650505050505050565b6000602082019050612f9f6000830184612bf3565b92915050565b6000604051905081810181811067ffffffffffffffff82111715612fc857600080fd5b8060405250919050565b600067ffffffffffffffff821115612fe957600080fd5b601f19601f8301169050602081019050919050565b60008160005260206000209050919050565b60008160005260206000209050919050565b600081549050919050565b600081519050919050565b6000600182019050919050565b60008115159050919050565b600060038210151561305f57fe5b819050919050565b600073ffffffffffffffffffffffffffffffffffffffff82169050919050565b6000819050919050565b600061309c82613067565b9050919050565b6000819050919050565b60006130b882613051565b9050919050565b82818337600083830152505050565b60005b838110156130ec5780820151818401526020810190506130d1565b838111156130fb576000848401525b50505050565b6000601f19601f8301169050919050565b600060018204905091905056fea265627a7a72305820c3dd3b12bf0a01a8a86571da13489c5c3b4bfe31772a129bfcf6cc1d722fa0046c6578706572696d656e74616cf50037",
  "source": "pragma solidity ^0.5.0;\r\npragma experimental ABIEncoderV2;\r\n\r\ncontract Voting{\r\n    // Candidate\r\n    struct Person{\r\n        string name;\r\n        uint aadharId;\r\n    }\r\n\r\n    struct Candidate{\r\n        string name;\r\n        uint aadharId;\r\n        uint voteCount;\r\n        uint constituencyId;\r\n        uint id;\r\n        bool doesExist;\r\n    }\r\n\r\n    struct Voter{\r\n        Person person;\r\n        bool isVoted;\r\n        uint constituencyId;\r\n        uint id;\r\n        uint boothId;\r\n        bool doesExist;\r\n    }\r\n\r\n    //Booth\r\n    struct Booth{\r\n        string boothAddress;\r\n        uint id;\r\n        uint constituencyId;\r\n        bool doesExist;\r\n    }\r\n\r\n    // Constituency\r\n    struct Constituency{\r\n        string name;\r\n        uint id;\r\n        uint boothCount;\r\n        bool doesExist;\r\n        uint candidateCount;\r\n    }\r\n\r\n    struct Officer{\r\n        string name;\r\n        uint aadharId;\r\n        uint id;\r\n        uint boothId;\r\n        bool doesExist;\r\n    }\r\n\r\n\r\n    mapping(uint => Candidate) public candidates;\r\n    mapping(uint => Officer) public officersList; // aadhar\r\n    mapping(uint => Voter)  public voters; //aadhar\r\n    mapping(uint => Constituency) public constituencyList;\r\n    mapping(uint => Booth) public boothList;\r\n    mapping(string => uint)  constituencyNameToId;\r\n    mapping(address => uint) public machineToBooth;\r\n    mapping(uint => Booth[]) public constituencyToBooth;\r\n    mapping(uint => Constituency) public pinToConstituency;\r\n    mapping (uint => Candidate[]) constituencyToCandidate;\r\n    enum StateType { PreVoting, Voting, Result}\r\n\r\n    //List of properties\r\n    StateType public  State;\r\n    uint public boothCount;\r\n    uint public votersCount;\r\n    uint public candidateCount;\r\n    uint public constituencyCount;\r\n    uint public officerCount;\r\n\r\n    event voteCast(address sender);\r\n\r\n    constructor() public\r\n    {\r\n        addConstituency(\"Guwahati\");\r\n        addBooth(\"GS-Road\",1);\r\n        addOfficer(\"Rahul Kumar Gupta\",910611041461,1);\r\n        State = StateType.PreVoting;\r\n        pinToConstituency[301001] = constituencyList[1];\r\n        pinToConstituency[456789] = constituencyList[1];\r\n        pinToConstituency[827004] = constituencyList[1];\r\n        pinToConstituency[307027] = constituencyList[1];\r\n    }\r\n\r\n    function addBooth(string memory boothAddress,uint constituencyId)public {\r\n        boothCount++;\r\n        boothList[boothCount] = Booth(boothAddress,boothCount,constituencyId,true);\r\n        constituencyList[constituencyId].boothCount++;\r\n        constituencyToBooth[constituencyId].push(boothList[boothCount]);\r\n    }\r\n\r\n    function addConstituency(string memory name) public {\r\n        constituencyCount++;\r\n        constituencyList[constituencyCount] = Constituency(name,constituencyCount,0,true,0);\r\n        constituencyNameToId[name] = constituencyCount;\r\n    //    for(uint i = 0;i < boothId.length;++i){\r\n    //        constituencyToBooth[constituencyCount].push(boothId[i]);\r\n    //    }\r\n    }\r\n\r\n    function addOfficer(string memory name,uint aadharId,uint boothId) public{\r\n        officerCount++;\r\n        officersList[aadharId] = Officer(name,aadharId,officerCount,boothId,true);\r\n    }\r\n\r\n    function addCandidate(string memory constituencyName,string memory name,uint aadharId) public {\r\n        require(State==StateType.PreVoting,\"Invalid State\");\r\n        // emit voteCast(msg.sender);\r\n        // verify candidate\r\n        //require(officersList[msg.sender].doesExist == true,\"Officer Not Authorized\");\r\n        uint constituencyId = constituencyNameToId[constituencyName];\r\n        require(constituencyId > 0 && constituencyId <= constituencyCount,\"Invalid Constituency\");\r\n        // check aadhar.\r\n        // Person memory person = Person(name,aadharId);\r\n        candidateCount++;\r\n        candidates[candidateCount] = Candidate(name,aadharId,0,constituencyId,candidateCount,true);\r\n        constituencyToCandidate[constituencyId].push(candidates[candidateCount]);\r\n        constituencyList[constituencyId].candidateCount++;\r\n    }\r\n\r\n    // // update candidate\r\n    // function updateCandidate(uint id) public {\r\n\r\n    // }\r\n\r\n    function addVoter(string memory constituencyName,uint boothId,string memory name,uint aadharId) public {\r\n        uint constituencyId = constituencyNameToId[constituencyName];\r\n        require(State==StateType.PreVoting,\"Invalid State\");\r\n        require(constituencyId > 0 && constituencyId <= constituencyCount,\"Invalid Constituency\");\r\n        require(boothId > 0 && boothId <= constituencyList[constituencyId].boothCount, \"Invalid Booth\");\r\n        require(voters[aadharId].doesExist == false,\"You have already been registerd\");\r\n        // verify aadhar.\r\n        // verify voter age checking\r\n        Person memory person = Person(name,aadharId);\r\n        votersCount++;\r\n        //error in below line,, what is id in voter\r\n        Voter memory voter = Voter(person,false,constituencyId,votersCount,boothId,true);\r\n        //changed aadharid from voter.id,,coz of problem while verfying user\r\n        voters[aadharId] = voter;\r\n    }\r\n    // Fuction to get voter details.\r\n\r\n    // register msg.sender\r\n    function StartVoting() public{\r\n        require(State==StateType.PreVoting,\"Invalid State\");\r\n        State = StateType.Voting;\r\n    }\r\n\r\n    function vote(uint candidateId,uint aadharId)public {\r\n        require(State==StateType.Voting,\"Invalid State\");\r\n        require(machineToBooth[msg.sender] > 0 && machineToBooth[msg.sender] <= boothCount,\"Invalid booth\");\r\n        require(voters[aadharId].doesExist == true,\"voter not registerd\");\r\n        require(voters[aadharId].isVoted == false,\"Already voted\");\r\n        candidates[candidateId].voteCount += 1;\r\n        voters[aadharId].isVoted = true;\r\n        // emit ()\r\n    }\r\n\r\n    function verifyToVote(uint boothId, uint aadharId) public view returns (bool)  {\r\n        require(State==StateType.Voting,\"Invalid State\");\r\n        require(machineToBooth[msg.sender] > 0 && machineToBooth[msg.sender] <= boothCount,\"Invalid booth\");\r\n        require(machineToBooth[msg.sender] == boothId, \"Action should be done at different Constituency or booth\");\r\n        require(voters[aadharId].doesExist == true,\"Voter not added to the voters list!\");\r\n        require(voters[aadharId].boothId == boothId, \"Voter does not belong to this booth \");\r\n        return true;\r\n    }\r\n\r\n    function verifyOfficer(uint aadharId) public returns (bool){\r\n        require(State==StateType.PreVoting,\"Invalid State\");\r\n        require(officersList[aadharId].doesExist == true,\"Invalid Officer\");\r\n        machineToBooth[msg.sender] = officersList[aadharId].boothId;\r\n        return true;\r\n    }\r\n\r\n    function finishVoting() public{\r\n        require(State==StateType.Voting,\"Invalid State\");\r\n        State = StateType.Result;\r\n    }\r\n\r\n\r\n\r\n        // mapping (uint => Candidate[]) result;\r\n        // Candidate[] result;\r\n\r\n    event Result(\r\n        Candidate[] result\r\n    );\r\n\r\n    function getResults(uint constituencyId) public {\r\n        require(State == StateType.Result,\"Invalid State\");\r\n        require(constituencyId > 0 && constituencyId <= constituencyCount,\"Invalid Constituency\");\r\n            uint size = constituencyToCandidate[constituencyId].length;\r\n            uint count = 0 ;\r\n            while(size > 1 ){\r\n                uint maxVotes=0;\r\n                uint maxId = 0;\r\n                for(uint j=0;j<size-count;++j){\r\n                    if(maxVotes <= constituencyToCandidate[constituencyId][j].voteCount){\r\n                        maxVotes = constituencyToCandidate[constituencyId][j].voteCount;\r\n                        maxId = j;\r\n                    }\r\n                }\r\n                Candidate memory temp = constituencyToCandidate[constituencyId][count];\r\n                constituencyToCandidate[constituencyId][count] = constituencyToCandidate[constituencyId][maxId];\r\n                constituencyToCandidate[constituencyId][maxId] = temp;\r\n                count++;\r\n            }\r\n        \r\n        emit Result(constituencyToCandidate[constituencyId]);\r\n    }\r\n}\r\n\r\n\r\n\r\n// contract Election {\r\n//     // Model a Candidate\r\n//     struct Candidate {\r\n//         uint id;\r\n//         string name;\r\n//         uint voteCount;\r\n//     }\r\n\r\n//     // Store accounts that have voted\r\n//     mapping(address => bool) public voters;\r\n//     // Store Candidates\r\n//     // Fetch Candidate\r\n//     mapping(uint => Candidate) public candidates;\r\n//     // Store Candidates Count\r\n//     uint public candidatesCount;\r\n\r\n//     // voted event\r\n//     event votedEvent (\r\n//         uint indexed _candidateId\r\n//     );\r\n\r\n//     constructor() public {\r\n//         addCandidate(\"Candidate 1\");\r\n//         addCandidate(\"Candidate 2\");\r\n//     }\r\n\r\n//     function addCandidate (string memory _name) private {\r\n//         candidatesCount ++;\r\n//         candidates[candidatesCount] = Candidate(candidatesCount, _name, 0);\r\n//     }\r\n\r\n//     function vote (uint _candidateId) public {\r\n//         // require that they haven't voted before\r\n//         require(!voters[msg.sender],\"You have already voted!\");\r\n\r\n//         // require a valid candidate\r\n//         require(_candidateId > 0 && _candidateId <= candidatesCount,\"Candidate is not valid!\");\r\n\r\n//         // record that voter has voted\r\n//         voters[msg.sender] = true;\r\n\r\n//         // update candidate vote Count\r\n//         candidates[_candidateId].voteCount ++;\r\n\r\n//         // trigger voted event\r\n//         emit votedEvent(_candidateId);\r\n//     }\r\n// }\r\n\r\n\r\n// contract Voting {\r\n//     // an event that is called whenever a Candidate is added so the frontend could\r\n//     // appropriately display the candidate with the right element id (it is used\r\n//     // to vote for the candidate, since it is one of arguments for the function \"vote\")\r\n//     event AddedCandidate(uint candidateID);\r\n\r\n//     // describes a Voter, which has an id and the ID of the candidate they voted for\r\n//     address owner;\r\n//     function Voting()public {\r\n//         owner=msg.sender;\r\n//     }\r\n//     modifier onlyOwner {\r\n//         require(msg.sender == owner);\r\n//         _;\r\n//     }\r\n//     struct Voter {\r\n//         bytes32 uid; // bytes32 type are basically strings\r\n//         uint candidateIDVote;\r\n//     }\r\n//     // describes a Candidate\r\n//     struct Candidate {\r\n//         bytes32 name;\r\n//         bytes32 party;\r\n//         // \"bool doesExist\" is to check if this Struct exists\r\n//         // This is so we can keep track of the candidates\r\n//         bool doesExist;\r\n//     }\r\n\r\n//     // These state variables are used keep track of the number of Candidates/Voters\r\n//     // and used to as a way to index them    \r\n//     uint numCandidates; // declares a state variable - number Of Candidates\r\n//     uint numVoters;\r\n\r\n\r\n//     // Think of these as a hash table, with the key as a uint and value of\r\n//     // the struct Candidate/Voter. These mappings will be used in the majority\r\n//     // of our transactions/calls\r\n//     // These mappings will hold all the candidates and Voters respectively\r\n//     mapping (uint => Candidate) candidates;\r\n//     mapping (uint => Voter) voters;\r\n\r\n//     /* * * * * * * * * * * * * * * * * * * * * * * * * * * * * * * *\r\n//      *  These functions perform transactions, editing the mappings *\r\n//      * * * * * * * * * * * * * * * * * * * * * * * * * * * * * * * */\r\n\r\n//     function addCandidate(bytes32 name, bytes32 party) onlyOwner public {\r\n//         // candidateID is the return variable\r\n//         uint candidateID = numCandidates++;\r\n//         // Create new Candidate Struct with name and saves it to storage.\r\n//         candidates[candidateID] = Candidate(name,party,true);\r\n//         AddedCandidate(candidateID);\r\n//     }\r\n\r\n//     function vote(bytes32 uid, uint candidateID) public {\r\n//         // checks if the struct exists for that candidate\r\n//         if (candidates[candidateID].doesExist == true) {\r\n//             uint voterID = numVoters++; //voterID is the return variable\r\n//             voters[voterID] = Voter(uid,candidateID);\r\n//         }\r\n//     }\r\n\r\n//     /* * * * * * * * * * * * * * * * * * * * * * * * * *\r\n//      *  Getter Functions, marked by the key word \"view\" *\r\n//      * * * * * * * * * * * * * * * * * * * * * * * * * */\r\n\r\n\r\n//     // finds the total amount of votes for a specific candidate by looping\r\n//     // through voters\r\n//     function totalVotes(uint candidateID) view public returns (uint) {\r\n//         uint numOfVotes = 0; // we will return this\r\n//         for (uint i = 0; i < numVoters; i++) {\r\n//             // if the voter votes for this specific candidate, we increment the number\r\n//             if (voters[i].candidateIDVote == candidateID) {\r\n//                 numOfVotes++;\r\n//             }\r\n//         }\r\n//         return numOfVotes;\r\n//     }\r\n\r\n//     function getNumOfCandidates() public view returns(uint) {\r\n//         return numCandidates;\r\n//     }\r\n\r\n//     function getNumOfVoters() public view returns(uint) {\r\n//         return numVoters;\r\n//     }\r\n//     // returns candidate information, including its ID, name, and party\r\n//     function getCandidate(uint candidateID) public view returns (uint,bytes32, bytes32) {\r\n//         return (candidateID,candidates[candidateID].name,candidates[candidateID].party);\r\n//     }\r\n// }",
  "sourcePath": "c:/Users/Ashish Ranjan/Desktop/blockchain-electronic-voting-master/contracts/Voting.sol",
  "compiler": {
    "name": "solc",
    "version": "0.5.0+commit.1d4f565a.Emscripten.clang"
  },
  "schemaVersion": "3.0.11",
  "updatedAt": "2019-08-20T12:36:38.544Z",
  "devdoc": {
    "methods": {}
  },
  "userdoc": {
    "methods": {}
  }
}