{
  "contractName": "Voting",
  "abi": [
    {
      "constant": true,
      "inputs": [
        {
          "name": "",
          "type": "address"
        }
      ],
      "name": "machineToBooth",
      "outputs": [
        {
          "name": "",
          "type": "uint256"
        }
      ],
      "payable": false,
      "stateMutability": "view",
      "type": "function"
    },
    {
      "constant": true,
      "inputs": [
        {
          "name": "",
          "type": "uint256"
        }
      ],
      "name": "candidates",
      "outputs": [
        {
          "name": "name",
          "type": "string"
        },
        {
          "name": "aadharId",
          "type": "uint256"
        },
        {
          "name": "voteCount",
          "type": "uint256"
        },
        {
          "name": "constituencyId",
          "type": "uint256"
        },
        {
          "name": "id",
          "type": "uint256"
        },
        {
          "name": "doesExist",
          "type": "bool"
        }
      ],
      "payable": false,
      "stateMutability": "view",
      "type": "function"
    },
    {
      "constant": true,
      "inputs": [
        {
          "name": "",
          "type": "uint256"
        }
      ],
      "name": "constituencyList",
      "outputs": [
        {
          "name": "name",
          "type": "string"
        },
        {
          "name": "id",
          "type": "uint256"
        },
        {
          "name": "boothCount",
          "type": "uint256"
        },
        {
          "name": "doesExist",
          "type": "bool"
        },
        {
          "name": "candidateCount",
          "type": "uint256"
        }
      ],
      "payable": false,
      "stateMutability": "view",
      "type": "function"
    },
    {
      "constant": true,
      "inputs": [
        {
          "name": "",
          "type": "uint256"
        },
        {
          "name": "",
          "type": "uint256"
        }
      ],
      "name": "constituencyToBooth",
      "outputs": [
        {
          "name": "boothAddress",
          "type": "string"
        },
        {
          "name": "id",
          "type": "uint256"
        },
        {
          "name": "constituencyId",
          "type": "uint256"
        },
        {
          "name": "doesExist",
          "type": "bool"
        }
      ],
      "payable": false,
      "stateMutability": "view",
      "type": "function"
    },
    {
      "constant": true,
      "inputs": [],
      "name": "officerCount",
      "outputs": [
        {
          "name": "",
          "type": "uint256"
        }
      ],
      "payable": false,
      "stateMutability": "view",
      "type": "function"
    },
    {
      "constant": true,
      "inputs": [],
      "name": "constituencyCount",
      "outputs": [
        {
          "name": "",
          "type": "uint256"
        }
      ],
      "payable": false,
      "stateMutability": "view",
      "type": "function"
    },
    {
      "constant": true,
      "inputs": [],
      "name": "boothCount",
      "outputs": [
        {
          "name": "",
          "type": "uint256"
        }
      ],
      "payable": false,
      "stateMutability": "view",
      "type": "function"
    },
    {
      "constant": true,
      "inputs": [],
      "name": "votersCount",
      "outputs": [
        {
          "name": "",
          "type": "uint256"
        }
      ],
      "payable": false,
      "stateMutability": "view",
      "type": "function"
    },
    {
      "constant": true,
      "inputs": [
        {
          "name": "",
          "type": "uint256"
        }
      ],
      "name": "pinToConstituency",
      "outputs": [
        {
          "name": "name",
          "type": "string"
        },
        {
          "name": "id",
          "type": "uint256"
        },
        {
          "name": "boothCount",
          "type": "uint256"
        },
        {
          "name": "doesExist",
          "type": "bool"
        },
        {
          "name": "candidateCount",
          "type": "uint256"
        }
      ],
      "payable": false,
      "stateMutability": "view",
      "type": "function"
    },
    {
      "constant": true,
      "inputs": [],
      "name": "candidateCount",
      "outputs": [
        {
          "name": "",
          "type": "uint256"
        }
      ],
      "payable": false,
      "stateMutability": "view",
      "type": "function"
    },
    {
      "constant": true,
      "inputs": [
        {
          "name": "",
          "type": "uint256"
        }
      ],
      "name": "voters",
      "outputs": [
        {
          "components": [
            {
              "name": "name",
              "type": "string"
            },
            {
              "name": "aadharId",
              "type": "uint256"
            }
          ],
          "name": "person",
          "type": "tuple"
        },
        {
          "name": "isVoted",
          "type": "bool"
        },
        {
          "name": "constituencyId",
          "type": "uint256"
        },
        {
          "name": "id",
          "type": "uint256"
        },
        {
          "name": "boothId",
          "type": "uint256"
        },
        {
          "name": "doesExist",
          "type": "bool"
        }
      ],
      "payable": false,
      "stateMutability": "view",
      "type": "function"
    },
    {
      "constant": true,
      "inputs": [
        {
          "name": "",
          "type": "uint256"
        },
        {
          "name": "",
          "type": "uint256"
        }
      ],
      "name": "constituencyToCandidate",
      "outputs": [
        {
          "name": "",
          "type": "uint256"
        }
      ],
      "payable": false,
      "stateMutability": "view",
      "type": "function"
    },
    {
      "constant": true,
      "inputs": [
        {
          "name": "",
          "type": "uint256"
        }
      ],
      "name": "boothList",
      "outputs": [
        {
          "name": "boothAddress",
          "type": "string"
        },
        {
          "name": "id",
          "type": "uint256"
        },
        {
          "name": "constituencyId",
          "type": "uint256"
        },
        {
          "name": "doesExist",
          "type": "bool"
        }
      ],
      "payable": false,
      "stateMutability": "view",
      "type": "function"
    },
    {
      "constant": true,
      "inputs": [],
      "name": "State",
      "outputs": [
        {
          "name": "",
          "type": "uint8"
        }
      ],
      "payable": false,
      "stateMutability": "view",
      "type": "function"
    },
    {
      "constant": true,
      "inputs": [
        {
          "name": "",
          "type": "uint256"
        }
      ],
      "name": "officersList",
      "outputs": [
        {
          "name": "name",
          "type": "string"
        },
        {
          "name": "aadharId",
          "type": "uint256"
        },
        {
          "name": "id",
          "type": "uint256"
        },
        {
          "name": "boothId",
          "type": "uint256"
        },
        {
          "name": "doesExist",
          "type": "bool"
        }
      ],
      "payable": false,
      "stateMutability": "view",
      "type": "function"
    },
    {
      "inputs": [],
      "payable": false,
      "stateMutability": "nonpayable",
      "type": "constructor"
    },
    {
      "anonymous": false,
      "inputs": [
        {
          "indexed": false,
          "name": "sender",
          "type": "address"
        }
      ],
      "name": "voteCast",
      "type": "event"
    },
    {
      "anonymous": false,
      "inputs": [
        {
          "components": [
            {
              "name": "name",
              "type": "string"
            },
            {
              "name": "aadharId",
              "type": "uint256"
            },
            {
              "name": "voteCount",
              "type": "uint256"
            },
            {
              "name": "constituencyId",
              "type": "uint256"
            },
            {
              "name": "id",
              "type": "uint256"
            },
            {
              "name": "doesExist",
              "type": "bool"
            }
          ],
          "indexed": false,
          "name": "result",
          "type": "tuple[]"
        }
      ],
      "name": "Result",
      "type": "event"
    },
    {
      "constant": false,
      "inputs": [
        {
          "name": "stateNo",
          "type": "uint256"
        }
      ],
      "name": "changeState",
      "outputs": [],
      "payable": false,
      "stateMutability": "nonpayable",
      "type": "function"
    },
    {
      "constant": false,
      "inputs": [
        {
          "name": "boothAddress",
          "type": "string"
        },
        {
          "name": "constituencyId",
          "type": "uint256"
        }
      ],
      "name": "addBooth",
      "outputs": [],
      "payable": false,
      "stateMutability": "nonpayable",
      "type": "function"
    },
    {
      "constant": false,
      "inputs": [
        {
          "name": "name",
          "type": "string"
        }
      ],
      "name": "addConstituency",
      "outputs": [],
      "payable": false,
      "stateMutability": "nonpayable",
      "type": "function"
    },
    {
      "constant": false,
      "inputs": [
        {
          "name": "name",
          "type": "string"
        },
        {
          "name": "aadharId",
          "type": "uint256"
        },
        {
          "name": "boothId",
          "type": "uint256"
        }
      ],
      "name": "addOfficer",
      "outputs": [],
      "payable": false,
      "stateMutability": "nonpayable",
      "type": "function"
    },
    {
      "constant": false,
      "inputs": [
        {
          "name": "constituencyName",
          "type": "string"
        },
        {
          "name": "name",
          "type": "string"
        },
        {
          "name": "aadharId",
          "type": "uint256"
        }
      ],
      "name": "addCandidate",
      "outputs": [],
      "payable": false,
      "stateMutability": "nonpayable",
      "type": "function"
    },
    {
      "constant": false,
      "inputs": [
        {
          "name": "constituencyName",
          "type": "string"
        },
        {
          "name": "boothId",
          "type": "uint256"
        },
        {
          "name": "name",
          "type": "string"
        },
        {
          "name": "aadharId",
          "type": "uint256"
        }
      ],
      "name": "addVoter",
      "outputs": [],
      "payable": false,
      "stateMutability": "nonpayable",
      "type": "function"
    },
    {
      "constant": false,
      "inputs": [],
      "name": "StartVoting",
      "outputs": [],
      "payable": false,
      "stateMutability": "nonpayable",
      "type": "function"
    },
    {
      "constant": false,
      "inputs": [
        {
          "name": "candidateId",
          "type": "uint256"
        },
        {
          "name": "aadharId",
          "type": "uint256"
        }
      ],
      "name": "vote",
      "outputs": [],
      "payable": false,
      "stateMutability": "nonpayable",
      "type": "function"
    },
    {
      "constant": true,
      "inputs": [
        {
          "name": "boothId",
          "type": "uint256"
        },
        {
          "name": "aadharId",
          "type": "uint256"
        }
      ],
      "name": "verifyToVote",
      "outputs": [
        {
          "name": "",
          "type": "uint256"
        }
      ],
      "payable": false,
      "stateMutability": "view",
      "type": "function"
    },
    {
      "constant": true,
      "inputs": [
        {
          "name": "aadharId",
          "type": "uint256"
        }
      ],
      "name": "verifyOfficer",
      "outputs": [
        {
          "name": "",
          "type": "uint256"
        }
      ],
      "payable": false,
      "stateMutability": "view",
      "type": "function"
    },
    {
      "constant": false,
      "inputs": [],
      "name": "finishVoting",
      "outputs": [],
      "payable": false,
      "stateMutability": "nonpayable",
      "type": "function"
    },
    {
      "constant": false,
      "inputs": [],
      "name": "finishElectionCheck",
      "outputs": [],
      "payable": false,
      "stateMutability": "nonpayable",
      "type": "function"
    }
  ],
  "bytecode": "0x60806040523480156200001157600080fd5b50620000616040805190810160405280600981526020017f4879646572616261640000000000000000000000000000000000000000000000815250620007e3640100000000026401000000009004565b620000b06040805190810160405280600981526020017f42616e67616c6f72650000000000000000000000000000000000000000000000815250620007e3640100000000026401000000009004565b620001016040805190810160405280600a81526020017f4761636869626f776c6900000000000000000000000000000000000000000000815250600162000910640100000000026401000000009004565b620001526040805190810160405280600c81526020017f496e64697261204e616761720000000000000000000000000000000000000000815250600262000910640100000000026401000000009004565b620001a36040805190810160405280600981526020017f4b6f726d616e676c610000000000000000000000000000000000000000000000815250600262000910640100000000026401000000009004565b620001fa6040805190810160405280600d81526020017f4b617274696b6579204b616e740000000000000000000000000000000000000081525064aa8965f4e3600162000a9f640100000000026401000000009004565b620002516040805190810160405280600d81526020017f4173686973682052616e6a616e000000000000000000000000000000000000008152506486133fe400600262000a9f640100000000026401000000009004565b620002a86040805190810160405280600f81526020017f4d6974616e736875204d697474616c00000000000000000000000000000000008152506444487f5753600362000a9f640100000000026401000000009004565b6000600a60006101000a81548160ff02191690836002811115620002c857fe5b0217905550600360006001815260200190815260200160002060086000620497c98152602001908152602001600020600082018160000190805460018160011615610100020316600290046200032092919062000b56565b5060018201548160010155600282015481600201556003820160009054906101000a900460ff168160030160006101000a81548160ff021916908315150217905550600482015481600401559050506003600060018152602001908152602001600020600860006206f855815260200190815260200160002060008201816000019080546001816001161561010002031660029004620003c292919062000b56565b5060018201548160010155600282015481600201556003820160009054906101000a900460ff168160030160006101000a81548160ff02191690831515021790555060048201548160040155905050600360006001815260200190815260200160002060086000620c9e7c8152602001908152602001600020600082018160000190805460018160011615610100020316600290046200046492919062000b56565b5060018201548160010155600282015481600201556003820160009054906101000a900460ff168160030160006101000a81548160ff021916908315150217905550600482015481600401559050506003600060018152602001908152602001600020600860006204af538152602001908152602001600020600082018160000190805460018160011615610100020316600290046200050692919062000b56565b5060018201548160010155600282015481600201556003820160009054906101000a900460ff168160030160006101000a81548160ff0219169083151502179055506004820154816004015590505060036000600281526020019081526020016000206008600062020409815260200190815260200160002060008201816000019080546001816001161561010002031660029004620005a892919062000b56565b5060018201548160010155600282015481600201556003820160009054906101000a900460ff168160030160006101000a81548160ff0219169083151502179055506004820154816004015590505060036000600281526020019081526020016000206008600062044d958152602001908152602001600020600082018160000190805460018160011615610100020316600290046200064a92919062000b56565b5060018201548160010155600282015481600201556003820160009054906101000a900460ff168160030160006101000a81548160ff021916908315150217905550600482015481600401559050506003600060028152602001908152602001600020600860006203351c815260200190815260200160002060008201816000019080546001816001161561010002031660029004620006ec92919062000b56565b5060018201548160010155600282015481600201556003820160009054906101000a900460ff168160030160006101000a81548160ff0219169083151502179055506004820154816004015590505060036000600281526020019081526020016000206008600062075ad18152602001908152602001600020600082018160000190805460018160011615610100020316600290046200078e92919062000b56565b5060018201548160010155600282015481600201556003820160009054906101000a900460ff168160030160006101000a81548160ff0219169083151502179055506004820154816004015590505062000c93565b600e6000815480929190600101919050555060a060405190810160405280828152602001600e54815260200160008152602001600115158152602001600081525060036000600e54815260200190815260200160002060008201518160000190805190602001906200085792919062000be4565b50602082015181600101556040820151816002015560608201518160030160006101000a81548160ff02191690831515021790555060808201518160040155905050600e546005826040518082805190602001908083835b602083101515620008d65780518252602082019150602081019050602083039250620008af565b6001836020036101000a03801982511681845116808217855250505050505090500191505090815260200160405180910390208190555050565b600b60008154809291906001019190505550608060405190810160405280838152602001600b5481526020018281526020016001151581525060046000600b54815260200190815260200160002060008201518160000190805190602001906200097c92919062000be4565b50602082015181600101556040820151816002015560608201518160030160006101000a81548160ff02191690831515021790555090505060036000828152602001908152602001600020600201600081548092919060010191905055506007600082815260200190815260200160002060046000600b548152602001908152602001600020908060018154018082558091505090600182039060005260206000209060040201600090919290919091506000820181600001908054600181600116156101000203166002900462000a5692919062000b56565b5060018201548160010155600282015481600201556003820160009054906101000a900460ff168160030160006101000a81548160ff0219169083151502179055505050505050565b600f6000815480929190600101919050555060a060405190810160405280848152602001838152602001600f5481526020018281526020016001151581525060016000848152602001908152602001600020600082015181600001908051906020019062000b0f92919062000be4565b5060208201518160010155604082015181600201556060820151816003015560808201518160040160006101000a81548160ff021916908315150217905550905050505050565b828054600181600116156101000203166002900490600052602060002090601f016020900481019282601f1062000b91578054855562000bd1565b8280016001018555821562000bd157600052602060002091601f016020900482015b8281111562000bd057825482559160010191906001019062000bb3565b5b50905062000be0919062000c6b565b5090565b828054600181600116156101000203166002900490600052602060002090601f016020900481019282601f1062000c2757805160ff191683800117855562000c58565b8280016001018555821562000c58579182015b8281111562000c5757825182559160200191906001019062000c3a565b5b50905062000c67919062000c6b565b5090565b62000c9091905b8082111562000c8c57600081600090555060010162000c72565b5090565b90565b6125be8062000ca36000396000f3fe60806040526004361061015f576000357c0100000000000000000000000000000000000000000000000000000000900463ffffffff16806305a395a514610164578063150407151461018d5780633477ee2e146101ca5780633ca09fdf1461020c5780633fac3553146102355780634284eb57146102765780635499e14a146102b357806361c0ca4b146102f35780636c33f1a81461031e5780637a99c0a614610349578063921326091461036057806394909c551461038957806398c07938146103b45780639e420f05146103df578063a9a981a314610420578063b00741cb1461044b578063b384abef14610474578063da58c7d91461049d578063e1e9c3f6146104df578063e3223cc81461051c578063e8fee21014610545578063e938080d14610582578063f0bb6393146105ab578063f1b6dccd146105eb578063f909430314610616578063f9277f4f1461062d578063fc07e29714610644575b600080fd5b34801561017057600080fd5b5061018b60048036036101869190810190611d30565b610685565b005b34801561019957600080fd5b506101b460048036036101af9190810190611d07565b6107ae565b6040516101c19190612438565b60405180910390f35b3480156101d657600080fd5b506101f160048036036101ec9190810190611f3e565b6107c6565b604051610203969594939291906122a8565b60405180910390f35b34801561021857600080fd5b50610233600480360361022e9190810190611d71565b6108a7565b005b34801561024157600080fd5b5061025c60048036036102579190810190611f3e565b610b01565b60405161026d9594939291906121f4565b60405180910390f35b34801561028257600080fd5b5061029d60048036036102989190810190611f67565b610bdc565b6040516102aa9190612438565b60405180910390f35b3480156102bf57600080fd5b506102da60048036036102d59190810190611f67565b610c83565b6040516102ea94939291906121a8565b60405180910390f35b3480156102ff57600080fd5b50610308610d74565b6040516103159190612438565b60405180910390f35b34801561032a57600080fd5b50610333610d7a565b6040516103409190612438565b60405180910390f35b34801561035557600080fd5b5061035e610d80565b005b34801561036c57600080fd5b5061038760048036036103829190810190611df0565b610e10565b005b34801561039557600080fd5b5061039e610f9b565b6040516103ab9190612438565b60405180910390f35b3480156103c057600080fd5b506103c9610fa1565b6040516103d69190612438565b60405180910390f35b3480156103eb57600080fd5b5061040660048036036104019190810190611f3e565b610fa7565b6040516104179594939291906121f4565b60405180910390f35b34801561042c57600080fd5b50610435611082565b6040516104429190612438565b60405180910390f35b34801561045757600080fd5b50610472600480360361046d9190810190611f3e565b611088565b005b34801561048057600080fd5b5061049b60048036036104969190810190611f67565b611115565b005b3480156104a957600080fd5b506104c460048036036104bf9190810190611f3e565b6112a1565b6040516104d6969594939291906123d0565b60405180910390f35b3480156104eb57600080fd5b5061050660048036036105019190810190611f3e565b6113ad565b6040516105139190612438565b60405180910390f35b34801561052857600080fd5b50610543600480360361053e9190810190611e44565b611424565b005b34801561055157600080fd5b5061056c60048036036105679190810190611f67565b611745565b6040516105799190612438565b60405180910390f35b34801561058e57600080fd5b506105a960048036036105a49190810190611ed7565b611775565b005b3480156105b757600080fd5b506105d260048036036105cd9190810190611f3e565b61182a565b6040516105e294939291906121a8565b60405180910390f35b3480156105f757600080fd5b506106006118ff565b60405161060d919061218d565b60405180910390f35b34801561062257600080fd5b5061062b611912565b005b34801561063957600080fd5b506106426119a2565b005b34801561065057600080fd5b5061066b60048036036106669190810190611f3e565b611a0d565b60405161067c95949392919061224e565b60405180910390f35b600e6000815480929190600101919050555060a060405190810160405280828152602001600e54815260200160008152602001600115158152602001600081525060036000600e54815260200190815260200160002060008201518160000190805190602001906106f7929190611ae8565b50602082015181600101556040820151816002015560608201518160030160006101000a81548160ff02191690831515021790555060808201518160040155905050600e546005826040518082805190602001908083835b602083101515610774578051825260208201915060208101905060208303925061074f565b6001836020036101000a03801982511681845116808217855250505050505090500191505090815260200160405180910390208190555050565b60066020528060005260406000206000915090505481565b6000602052806000526040600020600091509050806000018054600181600116156101000203166002900480601f0160208091040260200160405190810160405280929190818152602001828054600181600116156101000203166002900480156108725780601f1061084757610100808354040283529160200191610872565b820191906000526020600020905b81548152906001019060200180831161085557829003601f168201915b5050505050908060010154908060020154908060030154908060040154908060050160009054906101000a900460ff16905086565b600060028111156108b457fe5b600a60009054906101000a900460ff1660028111156108cf57fe5b141515610911576040517f08c379a0000000000000000000000000000000000000000000000000000000008152600401610908906123b0565b60405180910390fd5b60006005846040518082805190602001908083835b60208310151561094b5780518252602082019150602081019050602083039250610926565b6001836020036101000a03801982511681845116808217855250505050505090500191505090815260200160405180910390205490506000811180156109935750600e548111155b15156109d4576040517f08c379a00000000000000000000000000000000000000000000000000000000081526004016109cb90612330565b60405180910390fd5b600d6000815480929190600101919050555060c06040519081016040528084815260200183815260200160008152602001828152602001600d54815260200160011515815250600080600d5481526020019081526020016000206000820151816000019080519060200190610a4a929190611ae8565b506020820151816001015560408201518160020155606082015181600301556080820151816004015560a08201518160050160006101000a81548160ff02191690831515021790555090505060096000828152602001908152602001600020600d549080600181540180825580915050906001820390600052602060002001600090919290919091505550600360008281526020019081526020016000206004016000815480929190600101919050555050505050565b6003602052806000526040600020600091509050806000018054600181600116156101000203166002900480601f016020809104026020016040519081016040528092919081815260200182805460018160011615610100020316600290048015610bad5780601f10610b8257610100808354040283529160200191610bad565b820191906000526020600020905b815481529060010190602001808311610b9057829003601f168201915b5050505050908060010154908060020154908060030160009054906101000a900460ff16908060040154905085565b600060016002811115610beb57fe5b600a60009054906101000a900460ff166002811115610c0657fe5b141515610c165760019050610c7d565b600115156002600084815260200190815260200160002060060160009054906101000a900460ff161515141515610c505760049050610c7d565b826002600084815260200190815260200160002060050154141515610c785760059050610c7d565b600090505b92915050565b600760205281600052604060002081815481101515610c9e57fe5b906000526020600020906004020160009150915050806000018054600181600116156101000203166002900480601f016020809104026020016040519081016040528092919081815260200182805460018160011615610100020316600290048015610d4b5780601f10610d2057610100808354040283529160200191610d4b565b820191906000526020600020905b815481529060010190602001808311610d2e57829003601f168201915b5050505050908060010154908060020154908060030160009054906101000a900460ff16905084565b600f5481565b600e5481565b60006002811115610d8d57fe5b600a60009054906101000a900460ff166002811115610da857fe5b141515610dea576040517f08c379a0000000000000000000000000000000000000000000000000000000008152600401610de1906123b0565b60405180910390fd5b6001600a60006101000a81548160ff02191690836002811115610e0957fe5b0217905550565b600b60008154809291906001019190505550608060405190810160405280838152602001600b5481526020018281526020016001151581525060046000600b5481526020019081526020016000206000820151816000019080519060200190610e7a929190611ae8565b50602082015181600101556040820151816002015560608201518160030160006101000a81548160ff02191690831515021790555090505060036000828152602001908152602001600020600201600081548092919060010191905055506007600082815260200190815260200160002060046000600b5481526020019081526020016000209080600181540180825580915050906001820390600052602060002090600402016000909192909190915060008201816000019080546001816001161561010002031660029004610f52929190611b68565b5060018201548160010155600282015481600201556003820160009054906101000a900460ff168160030160006101000a81548160ff0219169083151502179055505050505050565b600b5481565b600c5481565b6008602052806000526040600020600091509050806000018054600181600116156101000203166002900480601f0160208091040260200160405190810160405280929190818152602001828054600181600116156101000203166002900480156110535780601f1061102857610100808354040283529160200191611053565b820191906000526020600020905b81548152906001019060200180831161103657829003601f168201915b5050505050908060010154908060020154908060030160009054906101000a900460ff16908060040154905085565b600d5481565b60018114156110ba576000600a60006101000a81548160ff021916908360028111156110b057fe5b0217905550611112565b60028114156110ec576001600a60006101000a81548160ff021916908360028111156110e257fe5b0217905550611111565b6002600a60006101000a81548160ff0219169083600281111561110b57fe5b02179055505b5b50565b6001600281111561112257fe5b600a60009054906101000a900460ff16600281111561113d57fe5b14151561117f576040517f08c379a0000000000000000000000000000000000000000000000000000000008152600401611176906123b0565b60405180910390fd5b6002600082815260200190815260200160002060060160009054906101000a900460ff1615156111e4576040517f08c379a00000000000000000000000000000000000000000000000000000000081526004016111db90612310565b60405180910390fd5b6002600082815260200190815260200160002060020160009054906101000a900460ff161515611249576040517f08c379a000000000000000000000000000000000000000000000000000000000815260040161124090612350565b60405180910390fd5b6000808381526020019081526020016000206002016000815480929190600101919050555060016002600083815260200190815260200160002060020160006101000a81548160ff0219169083151502179055505050565b600260205280600052604060002060009150905080600001604080519081016040529081600082018054600181600116156101000203166002900480601f01602080910402602001604051908101604052809291908181526020018280546001816001161561010002031660029004801561135d5780601f106113325761010080835404028352916020019161135d565b820191906000526020600020905b81548152906001019060200180831161134057829003601f168201915b50505050508152602001600182015481525050908060020160009054906101000a900460ff16908060030154908060040154908060050154908060060160009054906101000a900460ff16905086565b6000600160028111156113bc57fe5b600a60009054906101000a900460ff1660028111156113d757fe5b1415156113e7576001905061141f565b6001600083815260200190815260200160002060040160009054906101000a900460ff16151561141a576002905061141f565b600090505b919050565b60006005856040518082805190602001908083835b60208310151561145e5780518252602082019150602081019050602083039250611439565b6001836020036101000a0380198251168184511680821785525050505050509050019150509081526020016040518091039020549050600060028111156114a157fe5b600a60009054906101000a900460ff1660028111156114bc57fe5b1415156114fe576040517f08c379a00000000000000000000000000000000000000000000000000000000081526004016114f5906123b0565b60405180910390fd5b6000811180156115105750600e548111155b1515611551576040517f08c379a000000000000000000000000000000000000000000000000000000000815260040161154890612330565b60405180910390fd5b600084118015611577575060036000828152602001908152602001600020600201548411155b15156115b8576040517f08c379a00000000000000000000000000000000000000000000000000000000081526004016115af90612370565b60405180910390fd5b600015156002600084815260200190815260200160002060060160009054906101000a900460ff161515141515611624576040517f08c379a000000000000000000000000000000000000000000000000000000000815260040161161b90612390565b60405180910390fd5b61162c611bef565b6040805190810160405280858152602001848152509050600c6000815480929190600101919050555061165d611c09565b60c060405190810160405280838152602001600015158152602001848152602001600c548152602001878152602001600115158152509050806002600086815260200190815260200160002060008201518160000160008201518160000190805190602001906116ce929190611ae8565b5060208201518160010155505060208201518160020160006101000a81548160ff02191690831515021790555060408201518160030155606082015181600401556080820151816005015560a08201518160060160006101000a81548160ff02191690831515021790555090505050505050505050565b60096020528160005260406000208181548110151561176057fe5b90600052602060002001600091509150505481565b600f6000815480929190600101919050555060a060405190810160405280848152602001838152602001600f548152602001828152602001600115158152506001600084815260200190815260200160002060008201518160000190805190602001906117e3929190611ae8565b5060208201518160010155604082015181600201556060820151816003015560808201518160040160006101000a81548160ff021916908315150217905550905050505050565b6004602052806000526040600020600091509050806000018054600181600116156101000203166002900480601f0160208091040260200160405190810160405280929190818152602001828054600181600116156101000203166002900480156118d65780601f106118ab576101008083540402835291602001916118d6565b820191906000526020600020905b8154815290600101906020018083116118b957829003601f168201915b5050505050908060010154908060020154908060030160009054906101000a900460ff16905084565b600a60009054906101000a900460ff1681565b6001600281111561191f57fe5b600a60009054906101000a900460ff16600281111561193a57fe5b14151561197c576040517f08c379a0000000000000000000000000000000000000000000000000000000008152600401611973906123b0565b60405180910390fd5b6002600a60006101000a81548160ff0219169083600281111561199b57fe5b0217905550565b6002808111156119ae57fe5b600a60009054906101000a900460ff1660028111156119c957fe5b141515611a0b576040517f08c379a0000000000000000000000000000000000000000000000000000000008152600401611a02906123b0565b60405180910390fd5b565b6001602052806000526040600020600091509050806000018054600181600116156101000203166002900480601f016020809104026020016040519081016040528092919081815260200182805460018160011615610100020316600290048015611ab95780601f10611a8e57610100808354040283529160200191611ab9565b820191906000526020600020905b815481529060010190602001808311611a9c57829003601f168201915b5050505050908060010154908060020154908060030154908060040160009054906101000a900460ff16905085565b828054600181600116156101000203166002900490600052602060002090601f016020900481019282601f10611b2957805160ff1916838001178555611b57565b82800160010185558215611b57579182015b82811115611b56578251825591602001919060010190611b3b565b5b509050611b649190611c4a565b5090565b828054600181600116156101000203166002900490600052602060002090601f016020900481019282601f10611ba15780548555611bde565b82800160010185558215611bde57600052602060002091601f016020900482015b82811115611bdd578254825591600101919060010190611bc2565b5b509050611beb9190611c4a565b5090565b604080519081016040528060608152602001600081525090565b60e060405190810160405280611c1d611c6f565b81526020016000151581526020016000815260200160008152602001600081526020016000151581525090565b611c6c91905b80821115611c68576000816000905550600101611c50565b5090565b90565b604080519081016040528060608152602001600081525090565b6000611c958235612503565b905092915050565b600082601f8301121515611cb057600080fd5b8135611cc3611cbe82612480565b612453565b91508082526020830160208301858383011115611cdf57600080fd5b611cea838284612531565b50505092915050565b6000611cff8235612515565b905092915050565b600060208284031215611d1957600080fd5b6000611d2784828501611c89565b91505092915050565b600060208284031215611d4257600080fd5b600082013567ffffffffffffffff811115611d5c57600080fd5b611d6884828501611c9d565b91505092915050565b600080600060608486031215611d8657600080fd5b600084013567ffffffffffffffff811115611da057600080fd5b611dac86828701611c9d565b935050602084013567ffffffffffffffff811115611dc957600080fd5b611dd586828701611c9d565b9250506040611de686828701611cf3565b9150509250925092565b60008060408385031215611e0357600080fd5b600083013567ffffffffffffffff811115611e1d57600080fd5b611e2985828601611c9d565b9250506020611e3a85828601611cf3565b9150509250929050565b60008060008060808587031215611e5a57600080fd5b600085013567ffffffffffffffff811115611e7457600080fd5b611e8087828801611c9d565b9450506020611e9187828801611cf3565b935050604085013567ffffffffffffffff811115611eae57600080fd5b611eba87828801611c9d565b9250506060611ecb87828801611cf3565b91505092959194509250565b600080600060608486031215611eec57600080fd5b600084013567ffffffffffffffff811115611f0657600080fd5b611f1286828701611c9d565b9350506020611f2386828701611cf3565b9250506040611f3486828701611cf3565b9150509250925092565b600060208284031215611f5057600080fd5b6000611f5e84828501611cf3565b91505092915050565b60008060408385031215611f7a57600080fd5b6000611f8885828601611cf3565b9250506020611f9985828601611cf3565b9150509250929050565b611fac816124b7565b82525050565b611fbb8161251f565b82525050565b6000611fcc826124ac565b808452611fe0816020860160208601612540565b611fe981612573565b602085010191505092915050565b6000601382527f766f746572206e6f7420726567697374657264000000000000000000000000006020830152604082019050919050565b6000601482527f496e76616c696420436f6e7374697475656e63790000000000000000000000006020830152604082019050919050565b6000600d82527f416c726561647920766f746564000000000000000000000000000000000000006020830152604082019050919050565b6000600d82527f496e76616c696420426f6f7468000000000000000000000000000000000000006020830152604082019050919050565b6000601f82527f596f75206861766520616c7265616479206265656e20726567697374657264006020830152604082019050919050565b6000600d82527f496e76616c6964205374617465000000000000000000000000000000000000006020830152604082019050919050565b6000604083016000830151848203600086015261215e8282611fc1565b9150506020830151612173602086018261217e565b508091505092915050565b612187816124f9565b82525050565b60006020820190506121a26000830184611fb2565b92915050565b600060808201905081810360008301526121c28187611fc1565b90506121d1602083018661217e565b6121de604083018561217e565b6121eb6060830184611fa3565b95945050505050565b600060a082019050818103600083015261220e8188611fc1565b905061221d602083018761217e565b61222a604083018661217e565b6122376060830185611fa3565b612244608083018461217e565b9695505050505050565b600060a08201905081810360008301526122688188611fc1565b9050612277602083018761217e565b612284604083018661217e565b612291606083018561217e565b61229e6080830184611fa3565b9695505050505050565b600060c08201905081810360008301526122c28189611fc1565b90506122d1602083018861217e565b6122de604083018761217e565b6122eb606083018661217e565b6122f8608083018561217e565b61230560a0830184611fa3565b979650505050505050565b6000602082019050818103600083015261232981611ff7565b9050919050565b600060208201905081810360008301526123498161202e565b9050919050565b6000602082019050818103600083015261236981612065565b9050919050565b600060208201905081810360008301526123898161209c565b9050919050565b600060208201905081810360008301526123a9816120d3565b9050919050565b600060208201905081810360008301526123c98161210a565b9050919050565b600060c08201905081810360008301526123ea8189612141565b90506123f96020830188611fa3565b612406604083018761217e565b612413606083018661217e565b612420608083018561217e565b61242d60a0830184611fa3565b979650505050505050565b600060208201905061244d600083018461217e565b92915050565b6000604051905081810181811067ffffffffffffffff8211171561247657600080fd5b8060405250919050565b600067ffffffffffffffff82111561249757600080fd5b601f19601f8301169050602081019050919050565b600081519050919050565b60008115159050919050565b60006003821015156124d157fe5b819050919050565b600073ffffffffffffffffffffffffffffffffffffffff82169050919050565b6000819050919050565b600061250e826124d9565b9050919050565b6000819050919050565b600061252a826124c3565b9050919050565b82818337600083830152505050565b60005b8381101561255e578082015181840152602081019050612543565b8381111561256d576000848401525b50505050565b6000601f19601f830116905091905056fea265627a7a723058203eff6f34d3efe885ac0ab2abf1ffe2ad36412cdb3d7d0ffc7040d62436528bff6c6578706572696d656e74616cf50037",
  "source": "pragma solidity ^0.5.0;\r\npragma experimental ABIEncoderV2;\r\n\r\ncontract Voting{\r\n    // Candidate\r\n    struct Person{\r\n        string name;\r\n        uint aadharId;\r\n    }\r\n\r\n    struct Candidate{\r\n        string name;\r\n        uint aadharId;\r\n        uint voteCount;\r\n        uint constituencyId;\r\n        uint id;\r\n        bool doesExist;\r\n    }\r\n\r\n    struct Voter{\r\n        Person person;\r\n        bool isVoted;\r\n        uint constituencyId;\r\n        uint id;\r\n        uint boothId;\r\n        bool doesExist;\r\n    }\r\n\r\n    //Booth\r\n    struct Booth{\r\n        string boothAddress;\r\n        uint id;\r\n        uint constituencyId;\r\n        bool doesExist;\r\n    }\r\n\r\n    // Constituency\r\n    struct Constituency{\r\n        string name;\r\n        uint id;\r\n        uint boothCount;\r\n        bool doesExist;\r\n        uint candidateCount;\r\n    }\r\n\r\n    struct Officer{\r\n        string name;\r\n        uint aadharId;\r\n        uint id;\r\n        uint boothId;\r\n        bool doesExist;\r\n    }\r\n\r\n\r\n    mapping(uint => Candidate) public candidates;\r\n    mapping(uint => Officer) public officersList; // aadhar\r\n    mapping(uint => Voter)  public voters; //aadhar\r\n    mapping(uint => Constituency) public constituencyList;\r\n    mapping(uint => Booth) public boothList;\r\n    mapping(string => uint)  constituencyNameToId;\r\n    mapping(address => uint) public machineToBooth;\r\n    mapping(uint => Booth[]) public constituencyToBooth;\r\n    mapping(uint => Constituency) public pinToConstituency;\r\n    mapping (uint => uint[]) public constituencyToCandidate;\r\n    enum StateType { PreVoting, Voting, Result}\r\n\r\n    //List of properties\r\n    StateType public  State;\r\n    uint public boothCount;\r\n    uint public votersCount;\r\n    uint public candidateCount;\r\n    uint public constituencyCount;\r\n    uint public officerCount;\r\n\r\n    event voteCast(address sender);\r\n\r\n    constructor() public\r\n    {\r\n        addConstituency(\"Hyderabad\");\r\n        addConstituency(\"Bangalore\");\r\n        addBooth(\"Gachibowli\",1);\r\n        addBooth(\"Indira Nagar\",2);\r\n        addBooth(\"Kormangla\",2);\r\n        addOfficer(\"Kartikey Kant\",732449600739,1);\r\n        addOfficer(\"Ashish Ranjan\", 575848571904, 2);\r\n        addOfficer(\"Mitanshu Mittal\", 293274081107, 3);\r\n        State = StateType.PreVoting;\r\n        pinToConstituency[301001] = constituencyList[1];\r\n        pinToConstituency[456789] = constituencyList[1];\r\n        pinToConstituency[827004] = constituencyList[1];\r\n        pinToConstituency[307027] = constituencyList[1];\r\n        pinToConstituency[132105] = constituencyList[2];\r\n        pinToConstituency[282005] = constituencyList[2];\r\n        pinToConstituency[210204] = constituencyList[2];\r\n        pinToConstituency[482001] = constituencyList[2];\r\n        // addVoter(\"Bangalore\",2,\"Bhuvan  Agrawal\",953072463830);\r\n        // addVoter(\"Hyderabad\",1,\"Mitanshu\",293274081107);\r\n        // addVoter(\"Hyderabad\",1,\"Ashish Ranjan\",575848571904);\r\n        // addVoter(\"Bangalore\",2,\"Kartikey Kant\",732449600739);\r\n        // addVoter(\"Bangalore\",3,\"Chandan Agrawal\",775633289221);\r\n        // addVoter(\"Bangalore\",3,\"Animesh Kumar\",732921438310);\r\n        // addVoter(\"Hyderabad\",1,\"Rahul Kumar Gupta\",910611041461);\r\n        // addCandidate(\"Hyderabad\",\"isa\",1234333);\r\n        // //addCandidate(\"Hyderabad\",\"Ganesh\",1234);\r\n        // addCandidate(\"Bangalore\",\"Bunty\",12345);\r\n        // addCandidate(\"Bangalore\",\"Parulkar\",123456);\r\n\r\n    }\r\n    function changeState(uint stateNo) public {\r\n        if(stateNo==1){\r\n            State = StateType.PreVoting;\r\n        }else if(stateNo == 2){\r\n            State = StateType.Voting;\r\n        }else{\r\n            State = StateType.Result;\r\n        }\r\n    }\r\n\r\n    function addBooth(string memory boothAddress,uint constituencyId)public {\r\n        boothCount++;\r\n        boothList[boothCount] = Booth(boothAddress,boothCount,constituencyId,true);\r\n        constituencyList[constituencyId].boothCount++;\r\n        constituencyToBooth[constituencyId].push(boothList[boothCount]);\r\n    }\r\n\r\n    function addConstituency(string memory name) public {\r\n        constituencyCount++;\r\n        constituencyList[constituencyCount] = Constituency(name,constituencyCount,0,true,0);\r\n        constituencyNameToId[name] = constituencyCount;\r\n    //    for(uint i = 0;i < boothId.length;++i){\r\n    //        constituencyToBooth[constituencyCount].push(boothId[i]);\r\n    //    }\r\n    }\r\n\r\n    function addOfficer(string memory name,uint aadharId,uint boothId) public{\r\n        officerCount++;\r\n        officersList[aadharId] = Officer(name,aadharId,officerCount,boothId,true);\r\n    }\r\n\r\n    function addCandidate(string memory constituencyName,string memory name,uint aadharId) public {\r\n        require(State==StateType.PreVoting,\"Invalid State\");\r\n        // emit voteCast(msg.sender);\r\n        // verify candidate\r\n        uint constituencyId = constituencyNameToId[constituencyName];\r\n        require(constituencyId > 0 && constituencyId <= constituencyCount,\"Invalid Constituency\");\r\n        // check aadhar.\r\n        // Person memory person = Person(name,aadharId);\r\n        candidateCount++;\r\n        candidates[candidateCount] = Candidate(name,aadharId,0,constituencyId,candidateCount,true);\r\n        constituencyToCandidate[constituencyId].push(candidateCount);\r\n        constituencyList[constituencyId].candidateCount++;\r\n    }\r\n\r\n    // // update candidate\r\n    // function updateCandidate(uint id) public {\r\n\r\n    // }\r\n\r\n    function addVoter(string memory constituencyName,uint boothId,string memory name,uint aadharId) public {\r\n        uint constituencyId = constituencyNameToId[constituencyName];\r\n        require(State==StateType.PreVoting,\"Invalid State\");\r\n        require(constituencyId > 0 && constituencyId <= constituencyCount,\"Invalid Constituency\");\r\n        require(boothId > 0 && boothId <= constituencyList[constituencyId].boothCount, \"Invalid Booth\");\r\n        require(voters[aadharId].doesExist == false,\"You have already been registerd\");\r\n        // verify aadhar.\r\n        // verify voter age checking\r\n        Person memory person = Person(name,aadharId);\r\n        votersCount++;\r\n        //error in below line,, what is id in voter\r\n        Voter memory voter = Voter(person,false,constituencyId,votersCount,boothId,true);\r\n        //changed aadharid from voter.id,,coz of problem while verfying user\r\n        voters[aadharId] = voter;\r\n    }\r\n    // Fuction to get voter details.\r\n\r\n    // register msg.sender\r\n    function StartVoting() public{\r\n        require(State==StateType.PreVoting,\"Invalid State\");\r\n        State = StateType.Voting;\r\n    }\r\n\r\n    function vote(uint candidateId,uint aadharId) public  {\r\n        require((State==StateType.Voting),\"Invalid State\");\r\n        require((voters[aadharId].doesExist),\"voter not registerd\");\r\n        require((voters[aadharId].isVoted),\"Already voted\");\r\n        candidates[candidateId].voteCount++;\r\n        voters[aadharId].isVoted = true;\r\n    }\r\n\r\n    function verifyToVote(uint boothId, uint aadharId) public view returns (uint)  {\r\n        if(!(State==StateType.Voting))\r\n            return 1;\r\n        if(!(voters[aadharId].doesExist == true))\r\n            return 4;\r\n        if(!(voters[aadharId].boothId == boothId))\r\n            return 5;\r\n        return 0;\r\n    }\r\n\r\n    function verifyOfficer(uint aadharId) public view returns (uint){\r\n        if(!(State==StateType.Voting))\r\n            return 1;\r\n        if(!(officersList[aadharId].doesExist))\r\n            return 2;\r\n        return 0;\r\n    }\r\n\r\n    function finishVoting() public{\r\n        require(State==StateType.Voting,\"Invalid State\");\r\n        State = StateType.Result;\r\n    }\r\n\r\n\r\n\r\n        // mapping (uint => Candidate[]) result;\r\n        // Candidate[] result;\r\n\r\n    event Result(\r\n        Candidate[] result\r\n    );\r\n\r\n    function finishElectionCheck() public {\r\n        require(State == StateType.Result,\"Invalid State\");\r\n    }\r\n}\r\n\r\n\r\n\r\n// contract Election {\r\n//     // Model a Candidate\r\n//     struct Candidate {\r\n//         uint id;\r\n//         string name;\r\n//         uint voteCount;\r\n//     }\r\n\r\n//     // Store accounts that have voted\r\n//     mapping(address => bool) public voters;\r\n//     // Store Candidates\r\n//     // Fetch Candidate\r\n//     mapping(uint => Candidate) public candidates;\r\n//     // Store Candidates Count\r\n//     uint public candidatesCount;\r\n\r\n//     // voted event\r\n//     event votedEvent (\r\n//         uint indexed _candidateId\r\n//     );\r\n\r\n//     constructor() public {\r\n//         addCandidate(\"Candidate 1\");\r\n//         addCandidate(\"Candidate 2\");\r\n//     }\r\n\r\n//     function addCandidate (string memory _name) private {\r\n//         candidatesCount ++;\r\n//         candidates[candidatesCount] = Candidate(candidatesCount, _name, 0);\r\n//     }\r\n\r\n//     function vote (uint _candidateId) public {\r\n//         // require that they haven't voted before\r\n//         require(!voters[msg.sender],\"You have already voted!\");\r\n\r\n//         // require a valid candidate\r\n//         require(_candidateId > 0 && _candidateId <= candidatesCount,\"Candidate is not valid!\");\r\n\r\n//         // record that voter has voted\r\n//         voters[msg.sender] = true;\r\n\r\n//         // update candidate vote Count\r\n//         candidates[_candidateId].voteCount ++;\r\n\r\n//         // trigger voted event\r\n//         emit votedEvent(_candidateId);\r\n//     }\r\n// }\r\n\r\n\r\n// contract Voting {\r\n//     // an event that is called whenever a Candidate is added so the frontend could\r\n//     // appropriately display the candidate with the right element id (it is used\r\n//     // to vote for the candidate, since it is one of arguments for the function \"vote\")\r\n//     event AddedCandidate(uint candidateID);\r\n\r\n//     // describes a Voter, which has an id and the ID of the candidate they voted for\r\n//     address owner;\r\n//     function Voting()public {\r\n//         owner=msg.sender;\r\n//     }\r\n//     modifier onlyOwner {\r\n//         require(msg.sender == owner);\r\n//         _;\r\n//     }\r\n//     struct Voter {\r\n//         bytes32 uid; // bytes32 type are basically strings\r\n//         uint candidateIDVote;\r\n//     }\r\n//     // describes a Candidate\r\n//     struct Candidate {\r\n//         bytes32 name;\r\n//         bytes32 party;\r\n//         // \"bool doesExist\" is to check if this Struct exists\r\n//         // This is so we can keep track of the candidates\r\n//         bool doesExist;\r\n//     }\r\n\r\n//     // These state variables are used keep track of the number of Candidates/Voters\r\n//     // and used to as a way to index them    \r\n//     uint numCandidates; // declares a state variable - number Of Candidates\r\n//     uint numVoters;\r\n\r\n\r\n//     // Think of these as a hash table, with the key as a uint and value of\r\n//     // the struct Candidate/Voter. These mappings will be used in the majority\r\n//     // of our transactions/calls\r\n//     // These mappings will hold all the candidates and Voters respectively\r\n//     mapping (uint => Candidate) candidates;\r\n//     mapping (uint => Voter) voters;\r\n\r\n//     /* * * * * * * * * * * * * * * * * * * * * * * * * * * * * * * *\r\n//      *  These functions perform transactions, editing the mappings *\r\n//      * * * * * * * * * * * * * * * * * * * * * * * * * * * * * * * */\r\n\r\n//     function addCandidate(bytes32 name, bytes32 party) onlyOwner public {\r\n//         // candidateID is the return variable\r\n//         uint candidateID = numCandidates++;\r\n//         // Create new Candidate Struct with name and saves it to storage.\r\n//         candidates[candidateID] = Candidate(name,party,true);\r\n//         AddedCandidate(candidateID);\r\n//     }\r\n\r\n//     function vote(bytes32 uid, uint candidateID) public {\r\n//         // checks if the struct exists for that candidate\r\n//         if (candidates[candidateID].doesExist == true) {\r\n//             uint voterID = numVoters++; //voterID is the return variable\r\n//             voters[voterID] = Voter(uid,candidateID);\r\n//         }\r\n//     }\r\n\r\n//     /* * * * * * * * * * * * * * * * * * * * * * * * * *\r\n//      *  Getter Functions, marked by the key word \"view\" *\r\n//      * * * * * * * * * * * * * * * * * * * * * * * * * */\r\n\r\n\r\n//     // finds the total amount of votes for a specific candidate by looping\r\n//     // through voters\r\n//     function totalVotes(uint candidateID) view public returns (uint) {\r\n//         uint numOfVotes = 0; // we will return this\r\n//         for (uint i = 0; i < numVoters; i++) {\r\n//             // if the voter votes for this specific candidate, we increment the number\r\n//             if (voters[i].candidateIDVote == candidateID) {\r\n//                 numOfVotes++;\r\n//             }\r\n//         }\r\n//         return numOfVotes;\r\n//     }\r\n\r\n//     function getNumOfCandidates() public view returns(uint) {\r\n//         return numCandidates;\r\n//     }\r\n\r\n//     function getNumOfVoters() public view returns(uint) {\r\n//         return numVoters;\r\n//     }\r\n//     // returns candidate information, including its ID, name, and party\r\n//     function getCandidate(uint candidateID) public view returns (uint,bytes32, bytes32) {\r\n//         return (candidateID,candidates[candidateID].name,candidates[candidateID].party);\r\n//     }\r\n// }",
  "sourcePath": "c:/Users/Ashish Ranjan/Desktop/blockchain-electronic-voting-master/contracts/Voting.sol",
  "compiler": {
    "name": "solc",
    "version": "0.5.0+commit.1d4f565a.Emscripten.clang"
  },
  "schemaVersion": "3.0.11",
  "updatedAt": "2019-08-21T15:59:30.943Z",
  "devdoc": {
    "methods": {}
  },
  "userdoc": {
    "methods": {}
  }
}